:040000000CEF00F011
:10000800FACF01F0FBCF02F0E9CF03F0F8ED0EF0E4
:1000180028EF10F03CEC13F091EC12F0000E236E78
:10002800000E226EE0EC12F0800E496E000E4A6E51
:1000380049C00FF04AC010F0960E116EFF0E126EF6
:1000480060EC12F0020E376E49C038F04AC039F041
:10005800FF0E3B6E3A68000E3D6E000E3C6E010EC0
:100068003E6E020ED2EC09F049C00FF04AC010F003
:10007800E50E116EFF0E126E60EC12F00A0E376E6E
:1000880049C038F04AC039F0FF0E3B6E3A68000E9E
:100098003D6E000E3C6E010E3E6E020ED2EC09F073
:1000A8000A0E376E620E386E000E396EFF0E3B6E0A
:1000B8003A68000E3D6E000E3C6E010E3E6E230E39
:1000C800D2EC09F049C00FF04AC010F0EB0E116EE7
:1000D800FF0E126E60EC12F00A0E376E49C038F04F
:1000E8004AC039F0FF0E3B6E3A68000E3D6E000EB6
:1000F8003C6E010E3E6E320ED2EC09F00A0E376EDF
:10010800640E386E000E396EFF0E3B6E3A68000EB4
:100118003D6E000E3C6E010E3E6E460ED2EC09F0AE
:1001280049C00FF04AC010F0EF0E116EFF0E126EAC
:1001380060EC12F00A0E376E49C038F04AC039F048
:10014800FF0E3B6E3A68000E3D6E000E3C6E010ECF
:100158003E6E500ED2EC09F00A0E376E640E386E01
:10016800000E396EFF0E3B6E3A68000E3D6E000EB3
:100178003C6E010E3E6E640ED2EC09F049C00FF0E1
:100188004AC010F0FD0E116EFF0E126E60EC12F0F8
:100198000A0E376E49C038F04AC039F0FF0E3B6E80
:1001A8003A68000E3D6E000E3C6E010E3E6E780EF3
:1001B800D2EC09F049C00FF04AC010F0C10E116E20
:1001C800FF0E126E60EC12F0140E376E49C038F054
:1001D8004AC039F0000E3B6E1F0E3A6E000E3D6E9F
:1001E800000E3C6E010E3E6E1E0ED2EC09F0000EA3
:1001F800226E1E0E216E000E246E1B0E236E000E44
:10020800266E3C0E256E000E286E120E276E000E0E
:100218002A6E1F0E296EF5EC0FF0000E1B6E280ECD
:100228001A6E000E1D6E230E1C6E000E1F6E070E3A
:100238001E6EF80E216E000E206E67EC06F0000EA2
:100248001B6E3C0E1A6E000E1D6E230E1C6E000EE9
:100258001F6E070E1E6EFF0E216EE00E206E67ECFD
:1002680006F0000E3A6E500E396E000E3C6E230EEC
:100278003B6E000E3E6E070E3D6E070E406EE00EA2
:100288003F6EE4EC10F01E0E376E5F0E386E000EF7
:10029800396E000E3B6E1F0E3A6E000E3D6E000E5C
:1002A8003C6E020E3E6E640ED2EC09F049C00FF0AF
:1002B8004AC010F0D70E116EFF0E126E60EC12F0ED
:1002C800320E376E49C038F04AC039F0F80E3B6E2E
:1002D8001F0E3A6E000E3D6E000E3C6E010E3E6E15
:1002E8001E0ED2EC09F0000E226E1E0E216E000EBC
:1002F800246E390E236E000E266E3C0E256E000EFF
:10030800286E120E276EF80E2A6E1F0E296EF5EC57
:100318000FF0000E3A6E280E396E000E3C6E410E3C
:100328003B6E000E3E6E070E3D6EF80E406E000EE0
:100338003F6EE4EC10F0000E1B6E3C0E1A6E000EC1
:100348001D6E410E1C6E000E1F6E070E1E6EFF0EF8
:10035800216EE00E206E67EC06F0000E1B6E500E4C
:100368001A6E000E1D6E410E1C6E000E1F6E070EDB
:100378001E6E070E216EE00E206E67EC06F03C0E36
:10038800376E5C0E386E000E396EF80E3B6E1F0E1F
:100398003A6E000E3D6E000E3C6E020E3E6E640E0E
:1003A800D2EC09F049C00FF04AC010F0CD0E116E22
:1003B800FF0E126E60EC12F0500E376E49C038F026
:1003C8004AC039F0070E3B6E3A68000E3D6E000ECB
:1003D8003C6E010E3E6E1E0ED2EC09F0000E226E2F
:1003E8001E0E216E000E246E570E236E000E266E12
:1003F8003C0E256E000E286E120E276E070E2A6E12
:100408002968F5EC0FF0000E3A6E280E396E000ED2
:100418003C6E5F0E3B6E000E3E6E070E3D6EF80E94
:10042800406E000E3F6EE4EC10F0000E1B6E3C0EAA
:100438001A6E000E1D6E5F0E1C6E000E1F6E070EEC
:100448001E6EFF0E216EE00E206E67EC06F0000EA9
:100458001B6E500E1A6E000E1D6E5F0E1C6E000E87
:100468001F6E070E1E6E070E216EE00E206E67ECE3
:1004780006F05A0E376EB10E386E000E396E070E42
:100488003B6E3A68000E3D6E000E3C6E020E3E6EEC
:10049800640ED2EC09F049C00FF04AC010F0DE0E2D
:1004A800116EFF0E126E60EC12F06E0E376E49C0C0
:1004B80038F04AC039F0FF0E3B6E3A68000E3D6EC8
:1004C800000E3C6E010E3E6E1E0ED2EC09F0000EC0
:1004D800226E1E0E216E000E246E750E236E000E07
:1004E800266E3C0E256E000E286E120E276EFF0E2D
:1004F8002A6E2968F5EC0FF0000E3A6E280E396E58
:10050800000E3C6E7D0E3B6E000E3E6E070E3D6E7D
:10051800F80E406E000E3F6EE4EC10F0000E1B6EFD
:100528003C0E1A6E000E1D6E7D0E1C6E000E1F6EA8
:10053800070E1E6EFF0E216EE00E206E67EC06F0B1
:10054800000E1B6E500E1A6E000E1D6E7D0E1C6E78
:10055800000E1F6E070E1E6E070E216EE00E206E37
:1005680067EC06F0780E376EAE0E386E000E396EF8
:10057800FF0E3B6E3A68000E3D6E000E3C6E020E9A
:100588003E6E640ED2EC09F049C00FF04AC010F07C
:10059800F30E116EFF0E126E60EC12F0140E376E31
:1005A80049C038F04AC039F0000E3B6E1F0E3A6E53
:1005B800000E3D6E000E3C6E010E3E6E030ED2EC38
:1005C80009F01E0E376EB70E386E000E396E000E2B
:1005D8003B6E1F0E3A6E000E3D6E000E3C6E020E14
:1005E8003E6E020ED2EC09F05A0E376EB40E386E1B
:1005F800000E396E070E3B6E3A68000E3D6E000E17
:100608003C6E020E3E6E020ED2EC09F049C00FF0AD
:100618004AC010F0F70E116EFF0E126E60EC12F069
:10062800500E376E49C038F04AC039F0070E3B6E9D
:100638003A68000E3D6E000E3C6E010E3E6E030ED3
:10064800D2EC09F049C00FF04AC010F0AC0E116EA0
:10065800FF0E126E60EC12F08C0E376E49C038F047
:100668004AC039F0FF0E3B6E3A68000E3D6E000E30
:100678003C6E010E3E6E010ED2EC09F0950E376EFF
:10068800700E386E000E396EFF0E3B6E3A68000E23
:100698003D6E000E3C6E010E3E6E060ED2EC09F069
:1006A800950E376E6E0E386E000E396EFF0E3B6E6D
:1006B8003A68000E3D6E000E3C6E010E3E6E200E36
:1006C800D2EC09F0950E376E6A0E386E000E396E50
:1006D800FF0E3B6E3A68000E3D6E000E3C6E010E3A
:1006E8003E6E3A0ED2EC09F0950E376E680E386EF3
:1006F800000E396EFF0E3B6E3A68000E3D6E000E1E
:100708003C6E010E3E6E570ED2EC09F0950E376E18
:100718006C0E386E000E396EFF0E3B6E3A68000E96
:100728003D6E000E3C6E010E3E6E700ED2EC09F06E
:10073800120000019F6F00019F511E0DF350230FFF
:100748000001A06F4150D8A467D0000E3A6E280E61
:10075800396EA0C03BF03C6A000E3E6E070E3D6E3F
:10076800000E406E000E3F6EE4EC10F0000E3A6E84
:100778003C0E396EA0C03BF03C6A000E3E6E070E80
:100788003D6E000E406E000E3F6EE4EC10F0000E61
:100798003A6E500E396EA0C03BF03C6A000E3E6EB9
:1007A800070E3D6E000E406E000E3F6EE4EC10F03A
:1007B800000E1B6E280E1A6EA0C01CF01D6A000EDB
:1007C8001F6E070E1E6EF80E216E000E206E67EC6F
:1007D80006F0000E1B6E3C0E1A6EA0C01CF01D6ABF
:1007E800000E1F6E070E1E6EFF0E216EE00E206EAD
:1007F80067EC06F0000E1B6E500E1A6EA0C01CF0BF
:100808001D6A000E1F6E070E1E6E070E216EE00E8B
:10081800206E67EC06F000D04104D8A467D0000E23
:100828003A6E280E396EA0C03BF03C6A000E3E6E50
:10083800070E3D6EF80E406E000E3F6EE4EC10F0B1
:10084800000E3A6E3C0E396EA0C03BF03C6A000EBA
:100858003E6E070E3D6E000E406E000E3F6EE4ECDD
:1008680010F0000E3A6E500E396EA0C03BF03C6A94
:10087800000E3E6E070E3D6E000E406E000E3F6E7F
:10088800E4EC10F0000E1B6E280E1A6EA0C01CF0CF
:100898001D6A000E1F6E070E1E6EF80E216E000EEA
:1008A800206E67EC06F0000E1B6E3C0E1A6EA0C0A0
:1008B8001CF01D6A000E1F6E070E1E6EFF0E216EC5
:1008C800E00E206E67EC06F0000E1B6E500E1A6EDE
:1008D800A0C01CF01D6A000E1F6E070E1E6E070ECC
:1008E800216EE00E206E67EC06F000D0030E411872
:1008F800D8A467D0000E3A6E280E396EA0C03BF01F
:100908003C6A000E3E6E070E3D6E000E406E000EF5
:100918003F6EE4EC10F0000E3A6E3C0E396EA0C04B
:100928003BF03C6A000E3E6E070E3D6EFF0E406EB9
:10093800E00E3F6EE4EC10F0000E3A6E500E396E89
:10094800A0C03BF03C6A000E3E6E070E3D6E000EE6
:10095800406E000E3F6EE4EC10F0000E1B6E280E89
:100968001A6EA0C01CF01D6A000E1F6E070E1E6EC8
:10097800F80E216E000E206E67EC06F0000E1B6E5E
:100988003C0E1A6EA0C01CF01D6A000E1F6E070EEA
:100998001E6EFF0E216EE00E206E67EC06F0000E54
:1009A8001B6E500E1A6EA0C01CF01D6A000E1F6E42
:1009B800070E1E6E070E216EE00E206E67EC06F025
:1009C80000D0020E4118D8A467D0000E3A6E280E47
:1009D800396EA0C03BF03C6A000E3E6E070E3D6EBD
:1009E800000E406E000E3F6EE4EC10F0000E3A6E02
:1009F8003C0E396EA0C03BF03C6A000E3E6E070EFE
:100A08003D6E000E406E000E3F6EE4EC10F0000EDE
:100A18003A6E500E396EA0C03BF03C6A000E3E6E36
:100A2800070E3D6E070E406EE00E3F6EE4EC10F0D0
:100A3800000E1B6E280E1A6EA0C01CF01D6A000E58
:100A48001F6E070E1E6EF80E216E000E206E67ECEC
:100A580006F0000E1B6E3C0E1A6EA0C01CF01D6A3C
:100A6800000E1F6E070E1E6EFF0E216EE00E206E2A
:100A780067EC06F0000E1B6E500E1A6EA0C01CF03C
:100A88001D6A000E1F6E070E1E6E070E216EE00E09
:100A9800206E67EC06F000D01200000E0001A86F6F
:100AA8000001A851040DF328C26ECDEC12F00FC05E
:100AB800A6F010C0A7F0A6C00FF0A7C010F0000E57
:100AC800126E050E116EA6EC12F00FC017F010C0D2
:100AD80018F027EC12F017C01BF018C01CF019C052
:100AE8001DF0000E1E6E800E1F6E440E206ED0ECA0
:100AF8000AF01BC042F01CC043F01DC044F042C0C5
:100B08000FF043C010F044C011F0000E126E600EDA
:100B1800136E400E146EE0EC0DF0D8B002D0010E4A
:100B280001D0000E536E4FC055F0000E80B2010E7A
:100B3800546E4CC052F0000E80B4010E516E5550E8
:100B4800D8A402D0300E01D0310E706E5450D8A403
:100B580002D0300E01D0310E6E6E5250D8A402D0A1
:100B6800300E01D0310E6A6E5150D8A402D0300E2A
:100B780001D0310E686E5350D8A402D04E0E01D069
:100B8800440E6C6E00D00A0E376E620E386E000E80
:100B9800396EFF0E3B6E3A68000E3D6E000E3C6EDD
:100BA800010E3E6E230ED2EC09F00A0E376E640E6B
:100BB800386E000E396EFF0E3B6E3A68000E3D6EC1
:100BC800000E3C6E010E3E6E460ED2EC09F00A0E87
:100BD800376E660E386E000E396EFF0E3B6E3A6841
:100BE800000E3D6E000E3C6E010E3E6E640ED2ECA1
:100BF80009F0950E376E700E386E000E396EFF0EC6
:100C08003B6E3A68000E3D6E000E3C6E010E3E6E65
:100C1800060ED2EC09F0950E376E6E0E386E000E89
:100C2800396EFF0E3B6E3A68000E3D6E000E3C6E4C
:100C3800010E3E6E200ED2EC09F0950E376E6A0E4C
:100C4800386E000E396EFF0E3B6E3A68000E3D6E30
:100C5800000E3C6E010E3E6E3A0ED2EC09F0950E77
:100C6800376E680E386E000E396EFF0E3B6E3A68AE
:100C7800000E3D6E000E3C6E010E3E6E570ED2EC1D
:100C880009F0950E376E6C0E386E000E396EFF0E39
:100C98003B6E3A68000E3D6E000E3C6E010E3E6ED5
:100CA800700ED2EC09F04E50D8A402D0300E01D00C
:100CB800310E646E4D50D8A402D0300E01D0310EE2
:100CC800666E00D012001EC022F01FC023F0221E44
:100CD800231E224A232A010E2224286E000E2320D6
:100CE800296E000E256E010E246E1EC022F01FC054
:100CF80023F0D89022362336221E231E224A232A86
:100D080022C026F023C027F0000E2B6E000E2A6E9C
:100D18001EC02CF01FC02DF01C501E24166E20C0C3
:100D280017F021C018F01A5079EC12F01E50000884
:100D38001C24166E20C017F021C018F01A5079EC48
:100D480012F01CC016F020C017F021C018F01A507D
:100D58001E2479EC12F01CC016F020C017F021C038
:100D680018F01E5000081A2479EC12F078D029BE29
:100D78000BD02C06D8A02D06020E2626000E272200
:100D880026502826275029222A4A2B2A020E2426B2
:100D9800000E252224502826255029221C502C24B8
:100DA800166E20C017F021C018F01A502A2479ECCA
:100DB80012F01C502C24166E20C017F021C018F019
:100DC8002A5000081A2479EC12F02C5000081C2430
:100DD800166E20C017F021C018F01A502A2479EC9A
:100DE80012F02C5000081C24166E20C017F021C0E9
:100DF80018F02A5000081A2479EC12F01C502A2402
:100E0800166E20C017F021C018F01A502C2479EC67
:100E180012F01C502A24166E20C017F021C018F0BA
:100E28002C5000081A2479EC12F02A5000081C24CF
:100E3800166E20C017F021C018F01A502C2479EC37
:100E480012F02A5000081C24166E20C017F021C08A
:100E580018F02C5000081A2479EC12F000D02C500D
:100E68002A5C2B50800A226E2D50800A2258D8A066
:100E78007ED712000001A66FB2D041C00FF0106AF1
:100E8800000E126E0A0E116E95EC0DF00F50300F19
:100E98005F6E41C00FF0106A000E126E0A0E116EDE
:100EA8007CEC0FF00F50300F606E1E0E376E5F0E29
:100EB800386E000E396E000E3B6E1F0E3A6E000E35
:100EC8003D6E000E3C6E020E3E6E640ED2EC09F0D2
:100ED80095D041C00FF0106A000E126E0A0E116E06
:100EE80095EC0DF00F50300F5C6E41C00FF0106A9A
:100EF800000E126E0A0E116E7CEC0FF00F50300FC0
:100F08005D6E3C0E376E5C0E386E000E396EF80E54
:100F18003B6E1F0E3A6E000E3D6E000E3C6E020ECA
:100F28003E6E640ED2EC09F069D041C00FF0106A31
:100F3800000E126E0A0E116E95EC0DF00F50300F68
:100F48000001B16F41C00FF0106A000E126E0A0E58
:100F5800116E7CEC0FF00F50300F0001B26F5A0E7B
:100F6800376EB10E386E000E396E070E3B6E3A685A
:100F7800000E3D6E000E3C6E020E3E6E640ED2EC0C
:100F880009F03CD041C00FF0106A000E126E0A0E34
:100F9800116E95EC0DF00F50300F0001AE6F41C08F
:100FA8000FF0106A000E126E0A0E116E7CEC0FF034
:100FB8000F50300F0001AF6F780E376EAE0E386EDF
:100FC800000E396EFF0E3B6E3A68000E3D6E000E45
:100FD8003C6E020E3E6E640ED2EC09F00FD000019A
:100FE800A651000AD8B449D7010AD8B472D7030A5F
:100FF800D8B49BD7010AD8B4C5D700D01200346E34
:10100800800E3460A6D09F0E2C6401D0A2D032503E
:10101800D8A403D0010E326E00D01F0E2D6404D068
:101028007E0E2D6403D000D03F0E2D6E000E366E5E
:10103800040E366401D08DD0530E2D6015D0E00E0D
:101048002D240F6E106AFF0E1022000E126E050E70
:10105800116EA6EC12F036500F26000E1022BB0EB1
:101068000F24F66EFD0E14D0AD0E2D240F6E106AEF
:10107800FF0E1022000E126E050E116EA6EC12F075
:1010880036500F26000E1022BA0E0F24F66EFE0EF2
:101098001020F76E0800F5CF33F000D0000E356E43
:1010A800060E356401D053D033A023D03204D8A41F
:1010B8000CD02C503524166E2EC017F02FC018F007
:1010C8003450362479EC12F03ED035503202F350C9
:1010D8002C24216E32C022F032C023F02EC024F01E
:1010E8002FC025F036503202F350342434EC11F07E
:1010F8002AD02E50301804E12F503118D8B423D0FC
:101108003204D8A40CD02C503524166E30C017F0F9
:1011180031C018F03450362479EC12F014D0355020
:101128003202F3502C24216E32C022F032C023F058
:1011380030C024F031C025F036503202F350342448
:1011480034EC11F000D0352AD8903332A9D7362A9A
:101158006FD7120025C02DF026C02EF02D1E2E1E92
:101168002D4A2E2A010E2D24336E000E2E20346EA9
:10117800000E306E010E2F6E25C02DF026C02EF009
:10118800D8902D362E362D1E2E1E2D4A2E2A2DC0D5
:1011980031F02EC032F0000E366E000E356E25C0CE
:1011A80037F026C038F067D034BE0BD03706D8A049
:1011B8003806020E3126000E3222315033263250C4
:1011C8003422354A362A020E2F26000E30222F509E
:1011D80033263050342227A025D037500008232446
:1011E800166E3750372429242D6E2D28176E2BC0E4
:1011F80018F02CC019F021503524B4EC0EF03550FD
:1012080000082324166E3550352429242D6E2D28E8
:10121800176E2BC018F02CC019F021503724B4ECED
:101228000EF000D027A227D0375000082324166ECE
:101238003750372429242D6E2D28176E2BC018F00F
:101248002CC019F0355000082124B4EC0EF03550AC
:1012580000082324166E3550352429242D6E2D2898
:10126800176E2BC018F02CC019F037500008212435
:10127800B4EC0EF000D03750355C3650800A2D6E35
:101288003850800A2D58D8A08FD71200010E56EC7E
:1012980013F0000E166E960E156EBBEC10F0110EC4
:1012A80056EC13F0010E166EF40E156EBBEC10F032
:1012B800B10E56EC13F0010E4EEC13F02C0E4EEC62
:1012C80013F02D0E4EEC13F0B20E56EC13F0010E87
:1012D8004EEC13F02C0E4EEC13F02D0E4EEC13F0DA
:1012E800B30E56EC13F0010E4EEC13F02C0E4EEC30
:1012F80013F02D0E4EEC13F0010E4EEC13F02C0EE5
:101308004EEC13F02D0E4EEC13F0B40E56EC13F019
:10131800070E4EEC13F0C00E56EC13F0A20E4EEC76
:1013280013F0020E4EEC13F0840E4EEC13F0C10EC7
:1013380056EC13F0C50E4EEC13F0C20E56EC13F03B
:101348000A0E4EEC13F0000E4EEC13F0C30E56ECE2
:1013580013F08A0E4EEC13F02A0E4EEC13F0C40E66
:1013680056EC13F08A0E4EEC13F0EE0E4EEC13F022
:10137800C50E56EC13F00E0E4EEC13F0200E56EC84
:1013880013F0360E56EC13F0C80E4EEC13F03A0E6E
:1013980056EC13F0050E4EEC13F0120000019F6F8F
:1013A8009FC0A5F037C0A4F038C00FF039C010F0C6
:1013B80008EC12F00FC0A0F010C0A1F0000E000160
:1013C800A36F000EA26F64D05B50D8B434D03E50E7
:1013D800050D0001A5513F6E406AF3503F26F450B9
:1013E800402240BE28D0405004E1810E3F5CD8A086
:1013F80022D0000E0001A56F3E50070DF3500001EA
:10140800A425030F0001A46FA00E0001A46504D059
:10141800A00E0001A46F00D00001A2513824D96E9B
:101428000001A3513920DA6E200EDE18D8B42CD072
:1014380002D02AD000D0A4C02CF00001A251382438
:10144800D96E0001A3513920DA6EDF502D6E3AC0F3
:101458002EF03BC02FF03CC030F03DC031F03EC014
:1014680032F00001A55103EC08F03E50060DF35090
:101478000001A5250001A56F800E0001A56504D017
:10148800800E0001A56F00D00001A24BA32B00D055
:101498000001A0510001A25D0001A1510001A35962
:1014A800D8A092D71200E00E56EC13F0020E4EECC4
:1014B80013F01C0E4EEC13F0070E4EEC13F0120E48
:1014C8004EEC13F0370E4EEC13F0320E4EEC13F0D8
:1014D800290E4EEC13F02D0E4EEC13F0290E4EECA7
:1014E80013F0250E4EEC13F02B0E4EEC13F0390EC4
:1014F8004EEC13F0000E4EEC13F0010E4EEC13F010
:10150800030E4EEC13F0100E4EEC13F0E10E56ECF9
:1015180013F0030E4EEC13F01D0E4EEC13F0070EF5
:101528004EEC13F0060E4EEC13F02E0E4EEC13F0AC
:101538002C0E4EEC13F0290E4EEC13F02D0E4EEC43
:1015480013F02E0E4EEC13F02E0E4EEC13F0370E59
:101558004EEC13F03F0E4EEC13F0000E4EEC13F071
:10156800000E4EEC13F0020E4EEC13F0100E4EEC83
:1015780013F0130E56EC13F0000E166E0A0E156ECD
:10158800BBEC10F0290E56EC13F0000E166E640E2C
:10159800156EBBEC10F012001DC021F0226A236A00
:1015A8001C34213601E322802150286E2850D8A40B
:1015B80002D00ED061D020C021F0226A236A1F34E5
:1015C800213601E322802150296E2950D8A407D062
:1015D800000E1B6E000E1C6E000E1D6E4DD0000E10
:1015E800256E000E266E000E276E2950890F285E84
:1015F8001DC029F02050291A800E29161C8EFF0EB6
:101608001B16FF0E1C16000E1D161F8EFF0E1E1633
:10161800FF0E1F16000E2016180E246E00D0D8904C
:101628002536263627361E501B5C1F501C58205066
:101638001D58D8A007D01E501B5E1F501C5A2050A2
:101648001D5A2580D8901B361C361D36242EE7D708
:1016580000D025C00FF026C010F027C011F028C018
:1016680012F029C013F080EC0CF00FC01BF010C072
:101678001CF011C01DF000D01200216E800E2160F8
:1016880069D09F0E166401D065D0FF0E1B6EFF0E49
:101698001C6E175021C01DF01E6A1D26000E1E224A
:1016A8001B501D261C501E221EBE0AD01E5004E1CF
:1016B800800E1D5CD8A004D021500008800F176E42
:1016C800FF0E1B6EFF0E1C6E185016C01DF01E6A12
:1016D8001D26000E1E221B501D261C501E221EBE3B
:1016E8000BD01E5004E1A00E1D5CD8A005D01650EA
:1016F8000008A00F186E00D016C012F02150172451
:101708001B6E1B04136E165018241C6E1C04146EDA
:1017180021500DEC11F01A501F6E19C020F0828074
:10172800829218C016F01650D8B413D001D011D038
:1017380017C021F02150D8B40AD001D008D01F50CA
:1017480032EC13F0205032EC13F02106F3D71606D2
:10175800EAD782821200000E466E010E456E818E17
:10176800440E626E020E7DEC11F0010E59EC11F080
:10177800010EC5EC11F0010EA1EC11F04F04D8A434
:1017880007D0070E0001A96F000E8AEC10F000D0F8
:10179800020E7DEC11F0090E45EC12F0030E7DEC03
:1017A80011F0030E45EC12F0010E7DEC11F080A44F
:1017B80010D0020EA1EC11F0060E45EC12F0030E4B
:1017C800A1EC11F0030E45EC12F0010EA1EC11F0A2
:1017D80000D0020EC5EC11F04C04D8A406D00A0EB5
:1017E8000001A96F020E8AEC10F0070E45EC12F00A
:1017F800030EC5EC11F0030E45EC12F0010EC5EC1A
:1018080011F080A210D0020E59EC11F0060E45EC32
:1018180012F0030E59EC11F0030E45EC12F0010E14
:1018280059EC11F000D012000001A66F5BD041C046
:101838000FF0106A000E126E0A0E116E95EC0DF084
:101848000F50300F0001B76F41C00FF0106A000E43
:10185800126E0A0E116E7CEC0FF00F50300F000163
:10186800B86F1E0E376EB70E386E000E396E000E4A
:101878003B6E1F0E3A6E000E3D6E000E3C6E020E61
:101888003E6E020ED2EC09F036D041C00FF0106A5D
:10189800000E126E0A0E116E95EC0DF00F50300FFF
:1018A8000001B46F41C00FF0106A000E126E0A0EEC
:1018B800116E7CEC0FF00F50300F0001B56F5A0E0F
:1018C800376EB40E386E000E396E070E3B6E3A68EE
:1018D800000E3D6E000E3C6E020E3E6E020ED2EC05
:1018E80009F009D00001A651000AD8B4A0D7020A0D
:1018F800D8B4CBD700D012001250D8B405D00F50AE
:1019080010101110D8A40ED0000E0F6E000E106E1D
:10191800000E116E53D006D0122AD8901132103210
:101928000F3200D0000E0F14146E000E1014156E36
:10193800FE0E1114166E145015101610D8B40ED0D1
:10194800EBD70CD0122A010E0F26000E1022000E23
:101958001122D890113210320F3200D0000E0F141D
:10196800146E000E1014156EFF0E1114166E14501E
:1019780015101610D8B408D0E5D706D01206D8909E
:101988000F361036113600D010BE04D0020E126089
:10199800F5D700D012B002D0109E00D0D8901232E5
:1019A800125011121350D8B402D0118E00D00FC0AB
:1019B8000FF010C010F011C011F000D01200F19E0D
:1019C800BAEC12F007EC13F028EC13F0700ED36E9B
:1019D8000EEC00F0CDEC12F00FC0ACF010C0ADF082
:1019E800ACC00FF0ADC010F0000E126E050E116EF7
:1019F800A6EC12F00FC017F010C018F027EC12F088
:101A080017C01BF018C01CF019C01DF0000E1E6E88
:101A1800800E1F6E440E206ED0EC0AF01BC042F000
:101A28001CC043F01DC044F042C00FF043C010F08A
:101A380044C011F0000E126E200E136E400E146E8C
:101A4800E0EC0DF0D8B002D0010E01D0000E536EBC
:101A580000D05350D8B403D0AFEC0BF003D03EEC19
:101A68000DF000D04E04D8A4F4D759EC10F0F1D7FB
:101A78000CEF00F0000E4F6E000E4C6E000E466E1E
:101A8800000E456E819E4E0E626E010E59EC11F0ED
:101A9800010EC5EC11F0010EA1EC11F0020E7DEC67
:101AA80011F0080E45EC12F0030E7DEC11F0030E58
:101AB80045EC12F0010E7DEC11F080A410D0020E5E
:101AC800A1EC11F0060E45EC12F0030EA1EC11F09A
:101AD800030E45EC12F0010EA1EC11F000D0020E3D
:101AE800C5EC11F0080E45EC12F0030EC5EC11F030
:101AF800030E45EC12F0010EC5EC11F080A210D0D7
:101B0800020E59EC11F0060E45EC12F0030E59ECDA
:101B180011F0030E45EC12F0010E59EC11F000D053
:101B28001200000E146E12AE07D0116C121ED8B03F
:101B3800122A010E146E00D010AE07D00F6C101EC2
:101B4800D8B0102A010E141A00D0000E166E000E1E
:101B5800156E11501210D8B421D0010E136E05D095
:101B6800D89011361236132A00D012BE02D0F8D7F8
:101B780000D0D8901536163611500F5C12501058F8
:101B8800D8A006D011500F5E1250105A158000D000
:101B9800D89012321132132EECD700D01450D8B48A
:101BA80005D0156C161ED8B0162A00D015C00FF037
:101BB80016C010F000D0120011AE17D00FC015F0EB
:101BC80010C016F011C017F0151E161E171E152A84
:101BD800000E16221722000E15240F6E000E162076
:101BE800106E800E1720116E00D014AE17D012C0E0
:101BF80015F013C016F014C017F0151E161E171E88
:101C0800152A000E16221722000E1524126E000E39
:101C18001620136E800E1720146E00D0000E0F1AB7
:101C2800000E101A800E111A000E121A000E131A46
:101C3800800E141A12500F5C13501058145011587B
:101C4800D8B002D0D89002D0D88000D01200838EAD
:101C580049C00FF04AC010F0FD0E116EFF0E126E53
:101C680060EC12F00A0E376E49C038F04AC039F0FD
:101C7800FF0E3B6E3A68000E3D6E000E3C6E010E84
:101C88003E6E780ED2EC09F045EC13F0EEEC12F053
:101C9800839E49C00FF04AC010F0FB0E116EFF0E74
:101CA800126E60EC12F00A0E376E49C038F04AC066
:101CB80039F0FF0E3B6E3A68000E3D6E000E3C6E2A
:101CC800010E3E6E780ED2EC09F06BEC13F0EEECE0
:101CD80012F051EC05F01200206E800E20603FD00B
:101CE8009F0E166401D03BD0FF0E1A6EFF0E1B6EBE
:101CF800175020C01CF01D6A1C26000E1D221A5009
:101D08001C261B501D221DBE0BD01D5004E1800E49
:101D18001C5CD8A005D020500008800F176E00D09A
:101D280019501E6E18C01FF016C012F0205017244C
:101D38001A6E1A04136E16C014F020500DEC11F030
:101D48008280829207D01E5032EC13F01F5032EC82
:101D580013F000D017061728D8A4F5D782821200EE
:101D6800206E800E20603FD09F0E166401D03BD0BD
:101D7800FF0E1A6EFF0E1B6E175016C01CF01D6A60
:101D88001C26000E1D221A501C261B501D221DBE8B
:101D98000BD01D5004E1A00E1C5CD8A005D0165035
:101DA8000008A00F176E00D019501E6E18C01FF043
:101DB80016C012F020C013F0165017241A6E1A0419
:101DC800146E20500DEC11F08280829207D01E50C4
:101DD80032EC13F01F5032EC13F000D0170617281E
:101DE800D8A4F5D7828212000600EACF04F0E1CF2A
:101DF80005F0E2CF06F0D9CF07F0DACF08F0F3CF3D
:101E080009F0F4CF0AF0F6CF0BF0F7CF0CF0F8CFCB
:101E18000DF0F5CF0EF0F2A203D01DEC13F000D0B8
:101E2800F0A003D012EC13F000D0F0A203D06FECB6
:101E380013F000D00EC0F5FF0DC0F8FF0CC0F7FF7F
:101E48000BC0F6FF0AC0F4FF09C0F3FF08C0DAFFB1
:101E580007C0D9FF06C0E2FF05C0E1FF04C0EAFFE2
:101E680003C0E9FF02C0FBFF01C0FAFF1100838E27
:101E780049C00FF04AC010F0FD0E116EFF0E126E31
:101E880060EC12F00A0E376E49C038F04AC039F0DB
:101E9800FF0E3B6E3A68000E3D6E000E3C6E010E62
:101EA8003E6E780ED2EC09F0EEEC12F0839E49C03B
:101EB8000FF04AC010F0FB0E116EFF0E126E60ECB0
:101EC80012F00A0E376E49C038F04AC039F0FF0EDA
:101ED8003B6E3A68000E3D6E000E3C6E010E3E6E83
:101EE800780ED2EC09F0EEEC12F051EC05F012008D
:101EF800000E146E10AE07D00F6C101ED8B0102A4A
:101F0800010E146E00D012AE05D0116C121ED8B09E
:101F1800122A00D011501210D8B41DD0010E136E21
:101F280005D0D89011361236132A00D012BE02D02E
:101F3800F8D700D011500F5C12501058D8A005D017
:101F480011500F5E1250105A00D0D8901232113230
:101F5800132EF0D700D01450D8B405D00F6C101E33
:101F6800D8B0102A00D00FC00FF010C010F000D069
:101F78001200116E000EAC6E000EAB6E11A002D0F6
:101F8800AC8800D011A203D0AC8CAB8C00D011A4CB
:101F980002D0AC8E00D011A602D0AB8802D0AB8A9A
:101FA80000D011B8AC849E9811AA02D0AB8600D09C
:101FB80011AC02D09D8A01D09D9A9E9A11AE02D092
:101FC8009D8801D09D980FC0AFFF1050B06EAC8AAD
:101FD800AB8E949C948EACB8ACBE02D0948C00D0DE
:101FE800120023C016F025C017F029C018F02AC027
:101FF80019F0215070EC0EF0235027242B6E2B047F
:10200800166E25C017F029C018F02AC019F0215003
:1020180070EC0EF023C016F027C017F029C018F096
:102028002AC019F02150B4EC0EF023C016F027C0D6
:1020380017F029C018F02AC019F0215025242B6E5A
:102048002B04B4EC0EF0120000EE80F01F0EEE6AC6
:10205800E806FDE100EE42F0190EEE6AE806FDE141
:10206800CA0EF66E260EF76E000EF86E00EEAEF093
:1020780010EE0CF00900F5CFEEFFE550E150FAE163
:10208800F60EF66E250EF76E000EF86E00EE5BF09B
:1020980010EE17F00900F5CFEEFFE550E150FAE138
:1020A800000EF86E0001E3EF0CF0010E0001A96FBD
:1020B800000E4E6E26D04E04D8A406D0000E4E6EEA
:1020C800000E0001A96F1DD0010E7DEC11F0010E6C
:1020D80059EC11F0010EC5EC11F0010EA1EC11F054
:1020E8003BEC0FF0000E7DEC11F0000E59EC11F0F6
:1020F800000EC5EC11F0000EA1EC11F03BEC0FF056
:1021080000D00001A905D8B4D6D712000001AA6FE3
:102118000001A9050001AB6F0001AB510001D8B463
:102128000DD001D00BD0ABC041F00001AA5118EC82
:102138000CF02BEC0EF00001AB07EED7000E416E51
:102148000001AA5118EC0CF02BEC0EF006D0000E92
:102158004F6E0CD0000E4C6E09D00001AA51000A37
:10216800D8B4F5D7020AD8B4F5D700D0120015C0F4
:102178000FF016C010F0000E126EFA0E116EA6ECDB
:1021880012F00FC019F010C01AF019C017F01AC0D9
:1021980018F0171E181E174A182AFF0E1724196E52
:1021A800FF0E18201A6EB80EB16E19C0D6FF1A505D
:1021B800D76EA192B18000D0A1A2FED7B190120033
:1021C8003D5000083B24166ED8803D34176E3FC042
:1021D80018F040C019F03950B4EC0EF039C021F0B5
:1021E8003AC022F03BC023F03CC024F03DC025F0AB
:1021F8003EC026F0000E286E030E276E000E2A6ED3
:10220800000E296E3FC02BF040C02CF0AEEC08F059
:102218001200156E2A0E56EC13F0000E4EEC13F059
:10222800155057244EEC13F0000E4EEC13F01350DB
:1022380057244EEC13F02B0E56EC13F0000E4EEC18
:1022480013F012505A244EEC13F0000E4EEC13F01B
:1022580014505A244EEC13F02C0E56EC13F01200C6
:10226800296E29C02AF02B6A0ED021C016F023C08F
:1022780017F024C018F025C019F02A50B4EC0EF05D
:102288002A4A2B2A00D0225029C026F0276A26265F
:10229800000E272226502A5C2B50800A286E2750D1
:1022A800800A2858D8A0E1D712000001A16F010EBA
:1022B800596EA1C041F059509DEC03F00AD08398A3
:1022C80001D08388839A14D0839801D08388838A25
:1022D8000FD00001A151000AD8B4F1D7010AD8B42F
:1022E800F0D7030AD8B4F0D7010AD8B4EFD700D092
:1022F80012000001A16F000E596EA1C041F05950A3
:102308009DEC03F00AD0839401D08384839614D083
:10231800839401D0838483860FD00001A151000AE1
:10232800D8B4F1D7010AD8B4F0D7030AD8B4F0D793
:10233800010AD8B4EFD700D012000001A16F030E34
:10234800596EA1C041F059509DEC03F00AD0849217
:1023580001D08482849414D0849201D084828484AD
:102368000FD00001A151000AD8B4F1D7010AD8B49E
:10237800F0D7030AD8B4F0D7010AD8B4EFD700D001
:1023880012000001A16F020E596EA1C041F0595010
:102398009DEC03F00AD0819801D08188819A14D0ED
:1023A800819801D08188818A0FD00001A151000A4B
:1023B800D8B4F1D7010AD8B4F0D7030AD8B4F0D703
:1023C800010AD8B4EFD700D012002A0E56EC13F049
:1023D800000E4EEC13F0000E4EEC13F0000E4EEC17
:1023E80013F07F0E4EEC13F02B0E56EC13F0000E8C
:1023F8004EEC13F0000E4EEC13F0000E4EEC13F002
:102408009F0E4EEC13F012000FC013F010C014F022
:1024180003D0134A142A00D013C0D9FF14C0DAFF1E
:10242800DF50D8A4F6D70FC011F010C012F0111E5B
:10243800121E114A122A135011240F6E1450122022
:10244800106E00D01200000E1A6E18AE07D0176C6E
:10245800181ED8B0182A010E1A6E00D017C00FF037
:1024680018C010F0116A8E0E126E1AC013F080ECAC
:102478000CF00FC017F010C018F011C019F000D000
:1024880012000001A96FA9C0AAF00001AA51000119
:10249800D8B40CD001D00AD0AAC041F059503EECB3
:1024A80007F03BEC0FF00001AA07EFD7000E416ED2
:1024B80059503EEC07F012000FC013F010C014F092
:1024C80005D0134A142A114A122A00D011C0F6FF67
:1024D80012C0F7FF13C0D9FF14C0DAFF0800F5CF08
:1024E800DFFFDF50D8A4EDD71200196E800E1960F7
:1024F80013D09F0E166401D00FD016C012F0192801
:10250800136E1628146E19500DEC11F018504EEC7D
:1025180013F017504EEC13F0120082828290800E56
:10252800C76E300EC66E4AEC09F0E9EC11F057ECB4
:102538000AF0360E56EC13F0C00E4EEC13F0010EF6
:10254800566E12000F501102F3CF13F0F4CF14F0AF
:102558000F501202F350142610501102F350142693
:1025680013C00FF014C010F000D0120028EC13F0C4
:102578005EEC13F0700ED36E070E936EF292F0902D
:10258800F092F19CF19AF198F288F086F088F28E38
:102598001200C28200D0C2B2FED7C450126E116AB5
:1025A800C3501124136E000E1220146E13C00FF0C6
:1025B80014C010F000D01200000E166E800E176EB8
:1025C800A00E186E22C019F023C01AF0000E41ECBC
:1025D8000BF01200030ED56EDB0ED66E0B0ED76E07
:1025E800F294D58E00D0F2A4FED7D59E1200013009
:1025F80030003030004400300030003000300044FB
:102608000030003000001F0E926E070E936E000E11
:10261800946E000E956E000E966E1200F0904504B2
:102628004610D8A402D0010E01D0000E4C6E00D086
:102638001200F29245044610D8A402D0010E01D02F
:10264800000E4F6E00D01200000E106E190E0F6EA5
:102658003C0EBDEC0FF0600ED36E1200106E9E960D
:10266800C9CF0FF010C0C9FF00D0C7A0FED7120015
:102678008294000E166E640E156EBBEC10F0828408
:102688001200F90ECB6E050ECA6E4A0EBB6E3C0EDA
:10269800BA6E1200116E82928280115032EC13F0E1
:1026A80082821200116E82928290115032EC13F0E5
:1026B80082821200010EC26E0E0EC16EA90EC06E8D
:1026C8001200303000303000303000303000000E62
:0E26D800BA6E81961200F092010E4E6E120044
:10FDBA0000000000000000005F00000007000700CC
:10FDCA00147F147F14242A7F2A12231308646236AC
:10FDDA00495620500008070300001C224100004138
:10FDEA00221C002A1C7F1C2A08083E080800807072
:10FDFA0030000808080808000060600020100804A5
:10FE0A00023E5149453E00427F40007249494946F7
:10FE1A002141494D331814127F1027454545393C75
:10FE2A004A49493141211109073649494936464962
:10FE3A0049291E0000140000004034000000081484
:10FE4A0022411414141414004122140802015909FD
:10FE5A00063E415D594E7C1211127C7F4949493652
:10FE6A003E414141227F4141413E7F494949417FCB
:10FE7A00090909013E414151737F0808087F004181
:10FE8A007F41002040413F017F081422417F4040CA
:10FE9A0040407F021C027F7F0408107F3E4141419F
:10FEAA003E7F090909063E4151215E7F091929460B
:10FEBA00264949493203017F01033F4040403F1F21
:10FECA002040201F3F4038403F6314081463030456
:10FEDA007804036159494D43007F414141020408B6
:10FEEA001020004141417F04020102044040404089
:10FEFA0040000307080020545478407F28444438BF
:10FF0A003844444428384444287F38545454180008
:10FF1A00087E090218A4A49C787F08040478004487
:10FF2A007D40002040403D007F1028440000417F72
:10FF3A0040007C047804787C0804047838444444FB
:10FF4A0038FC1824241818242418FC7C08040408F3
:10FF5A00485454542404043F44243C4040207C1C0C
:10FF6A002040201C3C4030403C44281028444C90FF
:10FF7A0090907C4464544C44000836410000007759
:10FF8A0000000041360800020102040245434533DD
:10FF9A003330314C20535052494E472032322D5380
:10FFAA0031004E5350204E534C5420455750204553
:10FFBA00574C54204D52004E4F5254482F534F55D0
:10FFCA00544800454153542F57455354004E2F531C
:10FFDA00204C5400452F57204C54004D6F64653A0D
:10FFEA000046523A0046533A00504E530050455785
:06FFFA000020002A0000B7
:020000040020DA
:08000000FFFFFFFFFFFFFFFF00
:020000040030CA
:0E000000FF08191EFF8281FF0FC00FE00F40A6
:00000001FF
