:040000000CEF00F011
:10000800FACF03F0FBCF04F0E9CF05F00DED09F0CE
:100018008DEF08F0290E386E000E396E0DD2250EC0
:100028004118D8B404D0415075EC0BF005D2000E3D
:100038003F6E000E3E6E000E406E05D04084274A8B
:10004800282A01D00BD027C0F6FF28C0F7FF0800E8
:10005800F550300AD8B4F2D701D0F5D727C0F6FF4B
:1000680028C0F7FF0800F55011EC0BF0D8A03DD0E0
:10007800000E3F6E000E3E6E00D03EC011F03FC035
:1000880012F0000E146E0A0E136EFDEC0AF011C089
:100098003EF012C03FF0D00E316EFF0E326E27C018
:1000A800F6FF28C0F7FF0800F550336E346A315068
:1000B80033263250342233503E2634503F22274ACA
:1000C800282A27C0F6FF28C0F7FF0800F55011ECD2
:1000D8000BF0D8A00AD0D1D708D0BCD1408805D021
:1000E8001ED0408E1CD0A8D11AD027C0F6FF28C039
:1000F800F7FF274A282A0800F5CF41F04150000AA7
:10010800D8B4A8D1640AD8B40AD00D0AD8B407D094
:10011800050AD8B4E3D7140AD8B4E3D78DD140BEC2
:100128002FD040A80ED038C0D9FF39C0DAFFDECFB3
:100138003AF0DECF3BF0DECF3CF0DECF3DF0040EF0
:100148000ED038C0D9FF39C0DAFFDECF3AF0DDCFA4
:100158003BF0000E3BBEFF0E3C6E3D6E020E382695
:10016800000E392200D03DAE74D0030E40123D1E61
:100178003C1E3B1E3A6C000E3B223C223D2269D0BD
:1001880040A80ED038C0D9FF39C0DAFFDECF3AF028
:10019800DECF3BF0DECF3CF0DECF3DF0040E0FD0DB
:1001A80038C0D9FF39C0DAFFDECF31F0DDCF32F009
:1001B80031C03AF032C03BF03C6A3D6A020E382644
:1001C800000E392246D0010E416E0A0E4118D8B4ED
:1001D80049D001D047D04150040D6A0EF324F66E81
:1001E800FF0EF420F76E0900F5503A5C0900F5504F
:1001F8003B580900F5503C580900F5503D58D8A027
:1002080031D001D02FD0412AE0D72CD0010E416E39
:10021800080E4118D8B426D001D024D04150040D7E
:10022800920EF324F66EFF0EF420F76E0900F550D7
:100238003A5C0900F5503B580900F5503C58090054
:10024800F5503D58D8A00ED001D00CD0412AE0D7A7
:1002580009D04050800B000AD8B4B5D7800AD8B46A
:10026800D5D700D03E503F10D8B40AD040C031F0A6
:10027800030E3116D8B404D03E06D8A03F0600D0ED
:10028800800E41BE7F0E316E3E50415C3F50800A69
:100298003158D8B007D041503E5E000E41BEFF0E27
:1002A8003F5A05D0000E3F6E000E3E6E00D040A4AF
:1002B8001AD040C031F0030E3116D8B404D02D0E38
:1002C80075EC0BF000D03E503F10D8B426D0300E5D
:1002D80075EC0BF03E06D8A03F063E503F10D8B450
:1002E8001CD0F5D71AD03E503F10D8B40CD0200EF1
:1002F80075EC0BF03E06D8A03F063E503F10D8B430
:1003080002D0F5D700D040C031F0030E3116D8B472
:1003180004D02D0E75EC0BF000D04150366E376AC4
:1003280036BE37067FD071D036C031F037C032F0D4
:10033800D89031363236D890313632366A0E31247A
:10034800F66EFF0E3220F76E0900F5CF15F00900A2
:10035800F5CF16F00900F5CF17F00A00F5CF18F021
:100368003AC011F03BC012F03CC013F03DC014F08D
:1003780003EC08F011C01EF012C01FF013C020F0EB
:1003880014C021F00A0E226E000E236E000E246E99
:10039800000E256E4BEC09F01E50300F416E3ED01A
:1003A8003AC011F03BC012F03CC013F03DC014F04D
:1003B80036C031F037C032F0D89031363236D89066
:1003C80031363236920E3124F66EFF0E3220F76E39
:1003D8000900F5CF15F00900F5CF16F00900F5CFA3
:1003E80017F00A00F5CF18F003EC08F011500F0BC6
:1003F800356E3550010DE60EF324F66EFF0EF4202F
:10040800F76E0800F5CF41F009D04050800B000A84
:10041800D8B48AD7800AD8B4C3D700D0415075EC75
:100428000BF000D03606D8A037063628EEE137287C
:10043800D8B402D0EAD700D027C0F6FF28C0F7FF0B
:10044800274A282A0800F5CF41F04150D8B402D0F5
:10045800E6D500D0120020C024F021C025F0241ECB
:10046800251E244A252A010E24242A6E000E252042
:100478002B6E000E276E010E266E20C024F021C0C0
:1004880025F0D89024362536241E251E244A252AF0
:1004980024C028F025C029F0000E2D6E000E2C6E09
:1004A80020C02EF021C02FF01E502024186E22C02C
:1004B80019F023C01AF01C50D0EC0AF020500008A4
:1004C8001E24186E22C019F023C01AF01C50D0EC5C
:1004D8000AF01EC018F022C019F023C01AF01C50F0
:1004E8002024D0EC0AF01EC018F022C019F023C056
:1004F8001AF0205000081C24D0EC0AF078D02BBE4B
:100508000BD02E06D8A02F06020E2826000E292270
:1005180028502A2629502B222C4A2D2A020E26261C
:10052800000E272226502A2627502B221E502E2422
:10053800186E22C019F023C01AF01C502C24D0ECDD
:100548000AF01E502E24186E22C019F023C01AF08B
:100558002C5000081C24D0EC0AF02E5000081E2451
:10056800186E22C019F023C01AF01C502C24D0ECAD
:100578000AF02E5000081E24186E22C019F023C05D
:100588001AF02C5000081C24D0EC0AF01E502C2421
:10059800186E22C019F023C01AF01C502E24D0EC7B
:1005A8000AF01E502C24186E22C019F023C01AF02D
:1005B8002E5000081C24D0EC0AF02C5000081E24F1
:1005C800186E22C019F023C01AF01C502E24D0EC4B
:1005D8000AF02C5000081E24186E22C019F023C0FF
:1005E8001AF02E5000081C24D0EC0AF000D02E502F
:1005F8002C5C2D50800A246E2F50800A2458D8A0D5
:100608007ED7120048EC0BF0700ED36EF19E010EEF
:10061800936E000E946E000E956E000E966E0F0E81
:10062800C16EBCEC07F0F292F19CF288000ECF6E1E
:10063800000ECE6E9E909D80F28CF28E000E666E3D
:10064800000E656E000E5D6E000E5E6E000E5F6E33
:10065800000E606E00D065046610D8A4FCD7000EAA
:10066800666E000E656E5EC069F0F288F19C4668A1
:10067800000E456E000E446E45BE08D0455017E189
:10068800150E445CD8B013D001D011D0470E4424C5
:10069800D96E000E4520DA6E6950DE18D8A403D052
:1006A80044C046F000D0444A452AE6D700D0462840
:1006B800D8B442D0000E3C6E3C0E3B6E000E3E6E2F
:1006C800500E3D6E000E406E140E3F6E4650020DE9
:1006D800000EF324D96E010EF420DA6EDECF41F05D
:1006E800DDCF42F0BBEC09F0000E1D6E3C0E1C6E17
:1006F800000E1F6E500E1E6E000E216E140E206E20
:10070800FF0E236E22682FEC02F04D0E396E465014
:10071800040D2A0EF3243A6E010EF4203B6EFF0EF0
:100728003D6E3C68000E3F6E000E3E6E010E406E40
:10073800340E50EC06F000D0B20E276EFF0E286E75
:100748005DC029F05EC02AF05FC02BF060C02CF0BD
:1007580069C02DF02E6A46C02FF0306A0EEC00F00A
:100768004650010DAA0EF324D96E000EF420DA6E5D
:10077800DF50436E4650010D800EF324D96E000EF3
:10078800F420DA6EDF504310836E4650010D950E4B
:10079800F324D96E000EF420DA6EDF50846E818E59
:1007A80030EC0BF0819E57D70CEF00F0366E800EC0
:1007B8003660A6D09F0E2E6401D0A2D03450D8A4A3
:1007C80003D0010E346E00D01F0E2F6404D07E0EAD
:1007D8002F6403D000D03F0E2F6E000E386E040E2B
:1007E800386401D08DD0530E2F6015D0E00E2F2421
:1007F800116E126AFF0E1222000E146E050E136E91
:10080800FDEC0AF038501126000E12228F0E11242A
:10081800F66EFD0E14D0AD0E2F24116E126AFF0E67
:100828001222000E146E050E136EFDEC0AF03850FD
:100838001126000E12228E0E1124F66EFE0E1220C4
:10084800F76E0800F5CF35F000D0000E376E060EB3
:10085800376401D053D035A023D03404D8A40CD0A9
:100868002E503724186E30C019F031C01AF03650A7
:100878003824D0EC0AF03ED037503402F3502E24FE
:10088800236E34C024F034C025F030C026F031C0C7
:1008980027F038503402F350362434EC0AF02AD0CA
:1008A8003050321804E131503318D8B423D034040E
:1008B800D8A40CD02E503724186E32C019F033C08B
:1008C8001AF036503824D0EC0AF014D037503402DD
:1008D800F3502E24236E34C024F034C025F032C0E7
:1008E80026F033C027F038503402F350362434EC65
:1008F8000AF000D0372AD8903532A9D7382A6FD7CE
:100908001200F2926A50D8B491D0CE50CFCF01F0F5
:10091800026A01C002F0016A0110616E0250626E43
:10092800000ECF6E000ECE6E81D0000ECF6E000E80
:10093800CE6E9E90900ECD6ECD80000E6C6E000E29
:100948005D6E000E5E6E000E5F6E000E606E010E34
:100958001FD0F18C7CD0350E615C210E6258D8A076
:1009680076D01C0E615C250E6258D8B070D0020E8D
:100978001FD0F19C6CD0A10E615C0F0E6258D8A0FC
:1009880066D0880E615C130E6258D8B060D0030E32
:100998006A6EDFD75CD0910E615C010E6258D8A0F8
:1009A80056D0080E615C070E6258D8B050D0040EBD
:1009B8006A6EDFD74CD0910E615C010E6258D8A0E8
:1009C80030D0080E615C070E6258D8B02AD0D89093
:1009D8005D345D6E5E345E6E5F345F6E6034606E93
:1009E800E90E615C030E6258D8A00CD0010E5D249C
:1009F8005D6E000E5E205E6E000E5F205F6E000E64
:100A08006020606E6C286C6E1F0E6C6407D0000E40
:100A1800666E010E656EF298000E6A6E030E6A6EBF
:100A280098D782EC0BF095D794D711D06A50000A6A
:100A3800D8B47BD7010AD8B48ED7030AD8B49BD7C9
:100A4800010AD8B4A8D7070AD8B4B5D700D012007D
:100A580027C02FF028C030F02F1E301E2F4A302A12
:100A6800010E2F24356E000E3020366E000E326EC9
:100A7800010E316E27C02FF028C030F0D8902F36E5
:100A880030362F1E301E2F4A302A2FC033F030C088
:100A980034F0000E386E000E376E27C039F028C0CB
:100AA8003AF067D036BE0BD03906D8A03A06020E07
:100AB8003326000E34223350352634503622374A36
:100AC800382A020E3126000E322231503526325095
:100AD800362229A025D0395000082524186E39500F
:100AE80039242B242F6E2F28196E2DC01AF02EC0F2
:100AF8001BF02350372449EC08F037500008252410
:100B0800186E375037242B242F6E2F28196E2DC0BE
:100B18001AF02EC01BF02350392449EC08F000D0FD
:100B280029A227D0395000082524186E39503924B5
:100B38002B242F6E2F28196E2DC01AF02EC01BF0F3
:100B480037500008232449EC08F0375000082524C2
:100B5800186E375037242B242F6E2F28196E2DC06E
:100B68001AF02EC01BF039500008232449EC08F075
:100B780000D03950375C3850800A2F6E3A50800ABE
:100B88002F58D8A08FD71200010E6DEC0BF0000E75
:100B9800186E960E176EE4EC09F0110E6DEC0BF062
:100BA800010E186EF40E176EE4EC09F0B10E6DEC40
:100BB8000BF0010E65EC0BF02C0E65EC0BF02D0E16
:100BC80065EC0BF0B20E6DEC0BF0010E65EC0BF062
:100BD8002C0E65EC0BF02D0E65EC0BF0B30E6DECE6
:100BE8000BF0010E65EC0BF02C0E65EC0BF02D0EE6
:100BF80065EC0BF0010E65EC0BF02C0E65EC0BF0C0
:100C08002D0E65EC0BF0B40E6DEC0BF0070E65ECD9
:100C18000BF0C00E6DEC0BF0A20E65EC0BF0020EA3
:100C280065EC0BF0840E65EC0BF0C10E6DEC0BF06F
:100C3800C50E65EC0BF0C20E6DEC0BF00A0E65EC00
:100C48000BF0000E65EC0BF0C30E6DEC0BF08A0E8A
:100C580065EC0BF02A0E65EC0BF0C40E6DEC0BF096
:100C68008A0E65EC0BF0EE0E65EC0BF0C50E6DEC24
:100C78000BF00E0E65EC0BF0200E6DEC0BF0360E43
:100C88006DEC0BF0C80E65EC0BF03A0E6DEC0BF04A
:100C9800050E65EC0BF012000001DE6FDEC0E4F01B
:100CA80039C0E3F03AC011F03BC012F079EC0AF019
:100CB80011C0DFF012C0E0F0000E0001E26F000E7C
:100CC800E16F64D05C50D8B434D04050050D0001B9
:100CD800E451416E426AF3504126F450422242BE2A
:100CE80028D0425004E1810E415CD8A022D0000EE9
:100CF8000001E46F4050070DF3500001E325030F96
:100D08000001E36FA00E0001E36504D0A00E00010E
:100D1800E36F00D00001E1513A24D96E0001E2519D
:100D28003B20DA6E200EDE18D8B42CD002D02AD0A0
:100D380000D0E3C02EF00001E1513A24D96E000141
:100D4800E2513B20DA6EDF502F6E3CC030F03DC0E0
:100D580031F03EC032F03FC033F040C034F0000103
:100D6800E451DAEC03F04050060DF3500001E4259D
:100D78000001E46F800E0001E46504D0800E0001DC
:100D8800E46F00D00001E14BE22B00D00001DF51FD
:100D98000001E15D0001E0510001E259D8A092D7BD
:100DA8001200E00E6DEC0BF0020E65EC0BF01C0E61
:100DB80065EC0BF0070E65EC0BF0120E65EC0BF012
:100DC800370E65EC0BF0320E65EC0BF0290E65EC76
:100DD8000BF02D0E65EC0BF0290E65EC0BF0250ED3
:100DE80065EC0BF02B0E65EC0BF0390E65EC0BF097
:100DF800000E65EC0BF0010E65EC0BF0030E65ECD4
:100E08000BF0100E65EC0BF0E10E6DEC0BF0030E21
:100E180065EC0BF01D0E65EC0BF0070E65EC0BF0A6
:100E2800060E65EC0BF02E0E65EC0BF02C0E65EC47
:100E38000BF0290E65EC0BF02D0E65EC0BF02E0E69
:100E480065EC0BF02E0E65EC0BF0370E65EC0BF035
:100E58003F0E65EC0BF0000E65EC0BF0000E65EC38
:100E68000BF0020E65EC0BF0100E65EC0BF0130E98
:100E78006DEC0BF0000E186E0A0E176EE4EC09F01C
:100E8800290E6DEC0BF0000E186E640E176EE4EC74
:100E980009F01200236E800E236069D09F0E18643B
:100EA80001D065D0FF0E1D6EFF0E1E6E195023C0B7
:100EB8001FF0206A1F26000E20221D501F261E50DC
:100EC800202220BE0AD0205004E1800E1F5CD8A04A
:100ED80004D023500008800F196EFF0E1D6EFF0E00
:100EE8001E6E1A5018C01FF0206A1F26000E2022FE
:100EF8001D501F261E50202220BE0BD0205004E17A
:100F0800A00E1F5CD8A005D018500008A00F1A6EBC
:100F180000D018C014F0235019241D6E1D04156E3E
:100F280018501A241E6E1E04166E23500DEC0AF07B
:100F38001C50216E1BC022F0828082921AC018F0C9
:100F48001850D8B413D001D011D019C023F02350B1
:100F5800D8B40AD001D008D0215052EC0BF022505E
:100F680052EC0BF02306F3D71806EAD78282120058
:100F78005CEC0BF0E8EC0AF0000E256E000E246E17
:100F880022EC0BF0BF0E676E000E686E67C011F0A2
:100F980068C012F0D40E136EFF0E146EB7EC0AF090
:100FA800020E396E67C03AF068C03BF0FF0E3D6E26
:100FB8003C68000E3F6E000E3E6E010E406E020E43
:100FC80050EC06F067C011F068C012F0F70E136E0F
:100FD800FF0E146EB7EC0AF00A0E396E67C03AF0CD
:100FE80068C03BF0FF0E3D6E3C68000E3F6E000E81
:100FF8003E6E010E406E320E50EC06F01200000EEE
:10100800196E000E1A6E000E1B6E000E1C6E155027
:10101800161017101810D8B42FD0010E1D6E07D057
:10102800D89015361636173618361D2A00D018BE31
:1010380002D0F6D700D0D89019361A361B361C368F
:101048001550115C16501258175013581850145850
:10105800D8A00AD01550115E1650125A1750135ABC
:101068001850145A198000D0D890183217321632F6
:1010780015321D2EE0D700D019C011F01AC012F099
:101088001BC013F01CC014F01200226E800E2260E8
:101098003FD09F0E186401D03BD0FF0E1C6EFF0E90
:1010A8001D6E195018C01EF01F6A1E26000E1F2242
:1010B8001C501E261D501F221FBE0BD01F5004E1BE
:1010C800A00E1E5CD8A005D018500008A00F196EFD
:1010D80000D01B50206E1AC021F018C014F022C096
:1010E80015F0185019241C6E1C04166E22500DECB5
:1010F8000AF08280829207D0205052EC0BF02150E7
:1011080052EC0BF000D019061928D8A4F5D7828222
:10111800120000EEBFF01F0EEE6AE806FDE100EED9
:101128005DF0130EEE6AE806FDE19C0EF66E110EF8
:10113800F76E000EF86E01EE00F010EE7EF009007A
:10114800F5CFEEFFE550E150FAE1B20EF66E140E5F
:10115800F76E000EF86E00EE80F010EE3FF009001A
:10116800F5CFEEFFE550E150FAE17A0EF66E160E75
:10117800F76E000EF86E00EE47F010EE16F009005C
:10118800F5CFEEFFE550E150FAE1000EF86E0001F0
:1011980006EF03F000F800F800F81F001F00E00752
:1011A8001FF81FF81FF800000000000000000000F2
:1011B800000000000000000000000000000043489C
:1011C8002D004348200043482B00505256004E58EB
:1011D8005400502F5000564C2D00564C2B004551B2
:1011E80020002030200031303000323030002031F3
:1011F8002000203220002033200020342000203519
:1012080020002036200020372000203820002039F8
:1012180020000600EACF06F0E1CF07F0E2CF08F0A1
:10122800D9CF09F0DACF0AF0F3CF0BF0F4CF0CF0F6
:10123800F6CF0DF0F7CF0EF0F8CF0FF0F5CF10F096
:101248009EA003D07CEC0BF000D0F2A203D085EC7A
:1012580004F000D010C0F5FF0FC0F8FF0EC0F7FF74
:101268000DC0F6FF0CC0F4FF0BC0F3FF0AC0DAFF95
:1012780009C0D9FF08C0E2FF07C0E1FF06C0EAFFC6
:1012880005C0E9FF04C0FBFF03C0FAFF11002250AC
:10129800231024102510D8B429D0010E266E07D0AB
:1012A800D8902236233624362536262A00D025BE65
:1012B80002D0F6D700D022501E5C23501F5824506D
:1012C800205825502158D8A009D022501E5E2350FE
:1012D8001F5A2450205A2550215A00D0D890253220
:1012E800243223322232262EE6D700D01EC01EF02A
:1012F8001FC01FF020C020F021C021F01200136E83
:10130800000EAC6E000EAB6E13A002D0AC8800D0FD
:1013180013A203D0AC8CAB8C00D013A402D0AC8E3B
:1013280000D013A602D0AB8802D0AB8A00D013B885
:10133800AC849E9813AA02D0AB8600D013AC02D01E
:101348009D8A01D09D9A9E9A13AE02D09D8801D0A5
:101358009D9811C0AFFF1250B06EAC8AAB8E949CB2
:10136800948EACB8ACBE02D0948C00D012003F5022
:1013780000083D24186ED8803F34196E41C01AF019
:1013880042C01BF03B5049EC08F03BC023F03CC086
:1013980024F03DC025F03EC026F03FC027F040C0F5
:1013A80028F0000E2A6E030E296E000E2C6E000E19
:1013B8002B6E41C02DF042C02EF02CEC05F012002F
:1013C80017C011F018C012F0000E146EFA0E136E4A
:1013D800FDEC0AF011C01BF012C01CF01BC019F084
:1013E8001CC01AF0191E1A1E194A1A2AFF0E1924AF
:1013F8001B6EFF0E1A201C6EB80EB16E1BC0B2FF1A
:101408001C50B36EA192B18000D0A1A2FED7B190BA
:101418001200176E2A0E6DEC0BF0000E65EC0BF047
:1014280017506D2465EC0BF0000E65EC0BF01550B1
:101438006D2465EC0BF02B0E6DEC0BF0000E65ECDB
:101448000BF014506F2465EC0BF0000E65EC0BF0FC
:1014580016506F2465EC0BF02C0E6DEC0BF012009F
:101468002B6E2BC02CF02D6A0ED023C018F025C08F
:1014780019F026C01AF027C01BF02C5049EC08F0D0
:101488002C4A2D2A00D024502BC028F0296A28265F
:10149800000E292228502C5C2D50800A2A6E2950D3
:1014A800800A2A58D8A0E1D71200000001000002E3
:1014B8000000050000070000070000070000070003
:1014C80001000004000005000007000007000007F5
:1014D80000000700100000400000500000700000ED
:1014E8007000007000007000000011C015F012C0FC
:1014F80016F003D0154A162A00D015C0D9FF16C019
:10150800DAFFDF50D8A4F6D711C013F012C014F0D8
:10151800131E141E134A142A15501324116E165044
:101528001420126E00D012002A0E6DEC0BF0000E83
:1015380065EC0BF0000E65EC0BF0000E65EC0BF0A3
:101548007F0E65EC0BF02B0E6DEC0BF0000E65ECCE
:101558000BF0000E65EC0BF0000E65EC0BF09F0E27
:1015680065EC0BF0120011C015F012C016F005D092
:10157800154A162A134A142A00D013C0F6FF14C0BD
:10158800F7FF15C0D9FF16C0DAFF0800F5CFDFFF57
:10159800DF50D8A4EDD712001B6E800E1B6013D04D
:1015A8009F0E186401D00FD018C014F01B28156EB8
:1015B8001828166E1B500DEC0AF01A5065EC0BF04B
:1015C800195065EC0BF0120082828290800EC76E73
:1015D800300EC66EC8EC05F098EC0AF0D5EC06F0B3
:1015E800360E6DEC0BF0C00E65EC0BF0010E6B6E59
:1015F800120011501302F3CF15F0F4CF16F011506A
:101608001402F350162612501302F350162615C072
:1016180011F016C012F000D01200136E000E126EF8
:101628003A0E136006D02F0E136403D0010E126E0B
:1016380000D012C011F0113000D01200000E186E48
:10164800800E196EA00E1A6E24C01BF025C01CF067
:10165800000E4EEC07F01200030ED56EDB0ED66EB0
:101668000B0ED76EF294D58E00D0F2A4FED7D59E7D
:101678001200A262E22202C2E0A8906898B0301874
:101688007A10385A424A5201000E126E190E116E23
:101698003C0E83EC09F0600ED36E1200126E9E961B
:1016A800C9CF11F012C0C9FF00D0C7A0FED71200E1
:1016B8008294000E186E640E176EE4EC09F08284B2
:1016C8001200136E82928280135052EC0BF08282C9
:1016D8001200136E82928290135052EC0BF08282A9
:1016E8001200116E00D0ACA2FED711C0ADFF1200DF
:1016F800000E6A6EF19CCD909E901200000E6A6EEC
:04170800CD9012006E
:10FD8E0000000000000000005F00000007000700F8
:10FD9E00147F147F14242A7F2A12231308646236D8
:10FDAE00495620500008070300001C224100004164
:10FDBE00221C002A1C7F1C2A08083E08080080709E
:10FDCE0030000808080808000060600020100804D1
:10FDDE00023E5149453E00427F4000724949494624
:10FDEE002141494D331814127F1027454545393CA2
:10FDFE004A4949314121110907364949493646498F
:10FE0E0049291E00001400000040340000000814B0
:10FE1E002241141414141400412214080201590929
:10FE2E00063E415D594E7C1211127C7F494949367E
:10FE3E003E414141227F4141413E7F494949417FF7
:10FE4E00090909013E414151737F0808087F0041AD
:10FE5E007F41002040413F017F081422417F4040F6
:10FE6E0040407F021C027F7F0408107F3E414141CB
:10FE7E003E7F090909063E4151215E7F0919294637
:10FE8E00264949493203017F01033F4040403F1F4D
:10FE9E002040201F3F4038403F6314081463030482
:10FEAE007804036159494D43007F414141020408E2
:10FEBE001020004141417F040201020440404040B5
:10FECE0040000307080020545478407F28444438EB
:10FEDE003844444428384444287F38545454180035
:10FEEE00087E090218A4A49C787F080404780044B4
:10FEFE007D40002040403D007F1028440000417F9F
:10FF0E0040007C047804787C080404783844444427
:10FF1E0038FC1824241818242418FC7C080404081F
:10FF2E00485454542404043F44243C4040207C1C38
:10FF3E002040201C3C4030403C44281028444C902B
:10FF4E0090907C4464544C44000836410000007785
:10FF5E000000004136080002010204020100000008
:10FF6E000A00000064000000E803000010270000F3
:10FF7E00A086010040420F008096980000E1F50532
:10FF8E0000CA9A3B010000001000000000010000B2
:10FF9E000010000000000100000010000000000131
:10FFAE00000000104E45435F436F6465203D2025E1
:10FFBE0030386C7820257820466F756E64203D2091
:10FFCE002564200D0A00454345333330314C205310
:10FFDE00702032322D5331003031323334353637D2
:10FFEE003839616263646566004C414220313020CD
:02FFFE00000001
:020000040020DA
:08000000FFFFFFFFFFFFFFFF00
:020000040030CA
:0E000000FF08191EFF8281FF0FC00FE00F40A6
:00000001FF
