:040000000CEF00F011
:10000800FACF01F0FBCF02F0E9CF03F09EED0AF042
:1000180025EF0AF01D0E2E6E000E2F6E99D1250EBB
:100028003618D8B404D0365010EC0DF091D1000E2B
:10003800356E000E346E000E336E05D033841B4AC5
:100048001C2A01D00BD01BC0F6FF1CC0F7FF08000C
:10005800F550300AD8B4F2D701D0F5D71BC0F6FF57
:100068001CC0F7FF0800F550B3EC0CF0D8A03BD04B
:10007800000E356E000E346E00D034C00FF035C05F
:1000880010F0000E126E0A0E116E8CEC0CF00FC000
:1000980034F010C035F0D00E296EFF0E2A6E1BC04A
:1000A800F6FF1CC0F7FF0800F5502B6E2C6A29508C
:1000B8002B262A502C222B5034262C5035221B4A12
:1000C8001C2A1BC0F6FF1CC0F7FF0800F550B3EC54
:1000D8000CF0D8A008D0D1D706D048D11BD0338E89
:1000E80019D036D117D01BC0F6FF1CC0F7FF1B4A2A
:1000F8001C2A0800F5CF36F03650000AD8B436D19D
:10010800640AD8B407D00D0AD8B404D0110AD8B4F8
:10011800E6D71ED133BE15D02EC0D9FF2FC0DAFFC7
:10012800DECF31F0DDCF32F0020E2E26000E2F2268
:1001380032AE4ED0030E3312316C321ED8B0322A92
:1001480047D02EC0D9FF2FC0DAFFDECF31F0DDCF88
:1001580032F0020E2E26000E2F223AD0010E366EF5
:10016800050E3618D8B43DD001D03BD03650020D1C
:10017800500EF324F66EFF0EF420F76E0900F550CA
:10018800315C0900F5503258D8A02BD001D029D0C5
:10019800362AE6D726D0010E366E040E3618D8B4A5
:1001A80020D001D01ED03650020D5A0EF324F66E20
:1001B800FF0EF420F76E0900F550315C0900F55088
:1001C8003258D8A00ED001D00CD0362AE6D709D0A4
:1001D8003350800B000AD8B4C1D7800AD8B4DBD713
:1001E80000D034503510D8B40AD033C029F0030EEB
:1001F8002916D8B404D03406D8A0350600D0800E0D
:1002080036BE7F0E296E3450365C3550800A295828
:10021800D8B007D03650345E000E36BEFF0E355AC1
:1002280005D0000E356E000E346E00D033A41AD0FF
:1002380033C029F0030E2916D8B404D02D0E10ECC3
:100248000DF000D034503510D8B426D0300E10EC54
:100258000DF03406D8A0350634503510D8B41CD06B
:10026800F5D71AD034503510D8B40CD0200E10EC75
:100278000DF03406D8A0350634503510D8B402D065
:10028800F5D700D033C029F0030E2916D8B404D00E
:100298002D0E10EC0DF000D036C030F053D045D004
:1002A8003050020D500EF324F66EFF0EF420F76E58
:1002B8000900F5CF11F00A00F5CF12F031C00FF0A8
:1002C80032C010F0D2EC0AF00FC016F010C017F0D0
:1002D800000E196E0A0E186E78EC0BF01650300FDF
:1002E800366E2CD031C00FF032C010F03050020DF5
:1002F8005A0EF324F66EFF0EF420F76E0900F5CFC0
:1003080011F00A00F5CF12F0D2EC0AF00F500F0BE3
:100318002D6E2D50010DBF0EF324F66EFF0EF42046
:10032800F76E0800F5CF36F009D03350800B000A7D
:10033800D8B4B6D7800AD8B4D5D700D0365010EC88
:100348000DF000D030063028D8B402D0EED700D057
:100358001BC0F6FF1CC0F7FF1B4A1C2A0800F5CF7C
:1003680036F03650D8B402D05AD600D01200F7EC86
:100378000CF077EC0CF0000E236E000E226ED5EC1C
:100388000CF0000E496E010E4A6E49C00FF04AC0CB
:1003980010F0800E116EFF0E126E46EC0CF0010E7E
:1003A8000001E96F49C0EAF04AC0EBF0FF0E000116
:1003B800ED6FEC69000E0001EF6F000EEE6F010E9D
:1003C8000001F06F010E6DEC05F049C00FF04AC056
:1003D80010F0D00E116EFF0E126E46EC0CF00B0EE4
:1003E8000001E96F49C0EAF04AC0EBF0F80E0001DD
:1003F800ED6F1F0EEC6F000E0001EF6F000EEE6F39
:10040800010E0001F06F180E6DEC05F0000E1B6E6A
:10041800280E1A6E000E1D6E170E1C6E000E1F6E33
:10042800020E1E6EFF0E216EE00E206EEBEC03F046
:1004380049C00FF04AC010F0F90E116EFF0E126E8F
:1004480046EC0CF0170E0001E96F49C0EAF04AC00B
:10045800EBF0FF0E0001ED6FE00EEC6F000E0001F7
:10046800EF6F000EEE6F020E0001F06F2D0E6DECB7
:1004780005F049C00FF04AC010F0F30E116EFF0EE0
:10048800126E46EC0CF0000E1B6E6E0E1A6E000E0D
:100498001D6E170E1C6E000E1F6E020E1E6EFF0ED6
:1004A800216EE00E206EEBEC03F0170E0001E96FF1
:1004B80049C0EAF04AC0EBF0FF0E0001ED6FE00E14
:1004C800EC6F000E0001EF6F000EEE6F020E0001E0
:1004D800F06F730E6DEC05F049C00FF04AC010F0D4
:1004E800E30E116EFF0E126E46EC0CF0280E0001A2
:1004F800E96F49C0EAF04AC0EBF0000E0001ED6F69
:100508001F0EEC6F000E0001EF6F000EEE6F010E74
:100518000001F06F320E6DEC05F049C00FF04AC0D3
:1005280010F0E80E116EFF0E126E46EC0CF0470E3E
:100538000001E96F49C0EAF04AC0EBF0F80E00018B
:10054800ED6F000EEC6F000E0001EF6F000EEE6F06
:10055800010E0001F06F320E6DEC05F049C00FF08E
:100568004AC010F0DD0E116EFF0E126E46EC0CF054
:10057800780E0001E96F49C0EAF04AC0EBF0000EBE
:100588000001ED6F1F0EEC6F000E0001EF6F000E03
:10059800EE6F010E0001F06F550E6DEC05F049C0CD
:1005A8000FF04AC010F0FC0E116EFF0E126E46ECF2
:1005B8000CF08C0E0001E96F49C0EAF04AC0EBF07C
:1005C800FF0E0001ED6FEC69000E0001EF6F000EE9
:1005D800EE6F010E0001F06F0C0E6DEC05F049C0D6
:1005E8000FF04AC010F0F50E116EFF0E126E46ECB9
:1005F8000CF08C0E0001E96F49C0EAF04AC0EBF03C
:10060800FF0E0001ED6FEC69000E0001EF6F000EA8
:10061800EE6F010E0001F06F5F0E6DEC05F0120039
:100628009EEC0BF0BBEC01F08088320E576E5750F1
:10063800C8EC08F02DEC0DF05D506B18D8B45CD008
:100648005DC06BF02EEC0DF00FC03BF010C03CF01D
:100658003BC00FF03CC010F0000E126E090E116E78
:100668008CEC0CF00FC015F010C016F0000E186ED0
:10067800050E176E96EC09F0200E15243D6E000E3F
:1006880016203E6EE9EC0BF01DC045F01EC046F08A
:10069800620E1B6EFF0E1C6E59C01DF01E6A5AC0FA
:1006A8001FF0206A5DC021F0226A5BC023F0246A33
:1006B80055C025F0266A67C027F0286A0EEC00F0BE
:1006C800960E1B6EFF0E1C6E3BC01DF03CC01EF04C
:1006D8003DC01FF03EC020F00EEC00F0AB0E1B6ECC
:1006E800FF0E1C6E45C01DF046C01EF057C01FF01F
:1006F800206A0EEC00F000D08088320E576E5750FA
:10070800C8EC08F000D02DEC0DF05D506B18D8B493
:10071800FAD75DC06BF02EEC0DF00FC03BF010C0A7
:100728003CF03BC00FF03CC010F0000E126E090EFA
:10073800116E8CEC0CF00FC015F010C016F0000E06
:10074800186E050E176E96EC09F0200E15243D6EF6
:10075800000E16203E6EE9EC0BF01DC045F01EC0E1
:1007680046F0620E1B6EFF0E1C6E59C01DF01E6A0D
:100778005AC01FF0206A5DC021F0226A5BC023F0D6
:10078800246A55C025F0266A67C027F0286A0EEC4F
:1007980000F0960E1B6EFF0E1C6E3BC01DF03CC099
:1007A8001EF03DC01FF03EC020F00EEC00F0AB0E76
:1007B8001B6EFF0E1C6E45C01DF046C01EF057C0D4
:1007C8001FF0206A0EEC00F09ED70CEF00F01EC060
:1007D80022F01FC023F0221E231E224A232A010EC4
:1007E8002224286E000E2320296E000E256E010E8D
:1007F800246E1EC022F01FC023F0D8902236233664
:10080800221E231E224A232A22C026F023C027F0B4
:10081800000E2B6E000E2A6E1EC02CF01FC02DF08D
:100828001C501E24166E20C017F021C018F01A5054
:100838005FEC0CF01E5000081C24166E20C017F048
:1008480021C018F01A505FEC0CF01CC016F020C044
:1008580017F021C018F01A501E245FEC0CF01CC0D1
:1008680016F020C017F021C018F01E5000081A24F6
:100878005FEC0CF078D029BE0BD02C06D8A02D0642
:10088800020E2626000E2722265028262750292227
:100898002A4A2B2A020E2426000E25222450282616
:1008A800255029221C502C24166E20C017F021C078
:1008B80018F01A502A245FEC0CF01C502C24166EE9
:1008C80020C017F021C018F02A5000081A245FEC45
:1008D8000CF02C5000081C24166E20C017F021C004
:1008E80018F01A502A245FEC0CF02C5000081C2435
:1008F800166E20C017F021C018F02A5000081A24DC
:100908005FEC0CF01C502A24166E20C017F021C092
:1009180018F01A502C245FEC0CF01C502A24166E88
:1009280020C017F021C018F02C5000081A245FECE2
:100938000CF02A5000081C24166E20C017F021C0A5
:1009480018F01A502C245FEC0CF02A5000081C24D4
:10095800166E20C017F021C018F02C5000081A2479
:100968005FEC0CF000D02C502A5C2B50800A226ED1
:100978002D50800A2258D8A07ED71200346E800EDF
:100988003460A6D09F0E2C6401D0A2D03250D8A4D7
:1009980003D0010E326E00D01F0E2D6404D07E0EDF
:1009A8002D6403D000D03F0E2D6E000E366E040E5F
:1009B800366401D08DD0530E2D6015D0E00E2D2455
:1009C8000F6E106AFF0E1022000E126E050E116EC9
:1009D8008CEC0CF036500F26000E1022750E0F24EA
:1009E800F66EFD0E14D0AD0E2D240F6E106AFF0E9C
:1009F8001022000E126E050E116E8CEC0CF03650A3
:100A08000F26000E1022740E0F24F66EFE0E102014
:100A1800F76E0800F5CF33F000D0000E356E060EE5
:100A2800356401D053D033A023D03204D8A40CD0DD
:100A38002C503524166E2EC017F02FC018F03450E5
:100A480036245FEC0CF03ED035503202F3502C24A3
:100A5800216E32C022F032C023F02EC024F02FC005
:100A680025F036503202F3503424C4EC0BF02AD06F
:100A78002E50301804E12F503118D8B423D0320446
:100A8800D8A40CD02C503524166E30C017F031C0C5
:100A980018F0345036245FEC0CF014D03550320284
:100AA800F3502C24216E32C022F032C023F030C023
:100AB80024F031C025F036503202F3503424C4EC0F
:100AC8000BF000D0352AD8903332A9D7362A6FD701
:100AD80012000001F16FF1C0F7F0E9C0F6F0EAC0CA
:100AE8000FF0EBC010F008EC0CF00FC0F2F010C0E3
:100AF800F3F0000E0001F56F000EF46F6BD06C5030
:100B0800D8B438D00001F051050D0001F751376E07
:100B1800386AF3503726F450382238BE2BD0385074
:100B280004E1810E375CD8A025D0000E0001F76FD4
:100B38000001F051070DF3500001F625030F0001E5
:100B4800F66FA00E0001F66504D0A00E0001F66F46
:100B580000D00001F4510001EA25D96E0001F551D9
:100B68000001EB21DA6E200EDE18D8B42FD002D0A7
:100B78002DD000D0F6C02CF00001F4510001EA2578
:100B8800D96E0001F5510001EB21DA6EDF502D6EB0
:100B9800ECC02EF0EDC02FF0EEC030F0EFC031F019
:100BA800F0C032F00001F751C2EC04F00001F0513E
:100BB800060DF3500001F7250001F76F800E0001C4
:100BC800F76504D0800E0001F76F00D00001F44BE8
:100BD800F52B00D00001F2510001F45D0001F35142
:100BE8000001F559D8A08BD71200010E08EC0DF0C2
:100BF800000E166E960E156E00EC0BF0110E08EC3A
:100C08000DF0010E166EF40E156E00EC0BF0B10E21
:100C180008EC0DF0010E00EC0DF02C0E00EC0DF0C0
:100C28002D0E00EC0DF0B20E08EC0DF0010E00ECEC
:100C38000DF02C0E00EC0DF02D0E00EC0DF0B30EA7
:100C480008EC0DF0010E00EC0DF02C0E00EC0DF090
:100C58002D0E00EC0DF0010E00EC0DF02C0E00EC4A
:100C68000DF02D0E00EC0DF0B40E08EC0DF0070E93
:100C780000EC0DF0C00E08EC0DF0A20E00EC0DF02B
:100C8800020E00EC0DF0840E00EC0DF0C10E08EC25
:100C98000DF0C50E00EC0DF0C20E08EC0DF00A0EBA
:100CA80000EC0DF0000E00EC0DF0C30E08EC0DF09A
:100CB8008A0E00EC0DF02A0E00EC0DF0C40E08ECC4
:100CC8000DF08A0E00EC0DF0EE0E00EC0DF0C50EE6
:100CD80008EC0DF00E0E00EC0DF0200E08EC0DF0F7
:100CE800360E08EC0DF0C80E00EC0DF03A0E08ECCC
:100CF8000DF0050E00EC0DF012001DC021F0226A67
:100D0800236A1C34213601E322802150246E2450AA
:100D1800D8A402D00ED06CD020C021F0226A236A59
:100D28001F34213601E322802150296E2950D8A48E
:100D380007D0000E1B6E000E1C6E000E1D6E58D0E4
:100D480029507B0F24261DC029F02050291A800E17
:100D580029161C8E1F8EFF0E1E16FF0E1F16000E64
:100D68002016000E256E000E266E000E276E070E4A
:100D7800286E00D01BA007D01E5025261F50262203
:100D88002050272200D0D8901D321C321B32D89018
:100D98001E361F362036282EEDD700D0090E286EB5
:100DA80000D01BA007D01E5025261F5026222050F9
:100DB800272200D0D8901D321C321B32D8902732FF
:100DC80026322532282EEDD700D025C00FF026C0B8
:100DD80010F027C011F024C012F029C013F033EC32
:100DE80009F00FC01BF010C01CF011C01DF000D09E
:100DF8001200E00E08EC0DF0020E00EC0DF01C0ED7
:100E080000EC0DF0070E00EC0DF0120E00EC0DF0EA
:100E1800370E00EC0DF0320E00EC0DF0290E00EC50
:100E28000DF02D0E00EC0DF0290E00EC0DF0250E46
:100E380000EC0DF02B0E00EC0DF0390E00EC0DF06F
:100E4800000E00EC0DF0010E00EC0DF0030E00ECAE
:100E58000DF0100E00EC0DF0E10E08EC0DF0030E95
:100E680000EC0DF01D0E00EC0DF0070E00EC0DF07F
:100E7800060E00EC0DF02E0E00EC0DF02C0E00EC22
:100E88000DF0290E00EC0DF02D0E00EC0DF02E0EDD
:100E980000EC0DF02E0E00EC0DF0370E00EC0DF00E
:100EA8003F0E00EC0DF0000E00EC0DF0000E00EC13
:100EB8000DF0020E00EC0DF0100E00EC0DF0130E0C
:100EC80008EC0DF0000E166E0A0E156E00EC0BF015
:100ED800290E08EC0DF0000E166E640E156E00EC6F
:100EE8000BF0120011C013F0146A156A103413368F
:100EF80001E3148013501D6E1D50D8A402D039D0C0
:100F080063D0170E136E0FC014F010C015F011C087
:100F180016F01328176E04D0D890163215321432F2
:100F2800172EFAD71450186E108EFF0E0F16FF0EDC
:100F38001016000E11160F50196E10501A6E11501F
:100F48001B6E1C6A8E0E1D5E1DAE10D01D50800AD1
:100F58008F0FD8B003D00DD037D000D0D8901C3226
:100F68001B321A3219321D3EF9D719D0170E1D64DB
:100F780011D0000E0F6E000E106E000E116E000ED6
:100F8800126E22D007D0D89019361A361B361C3666
:100F98001D0600D01D50D8B402D0F5D700D0185087
:100FA800D8B409D01C1E1B1E1A1E196C000E1A225A
:100FB8001B221C2200D019C00FF01AC010F01BC051
:100FC80011F01CC012F000D012002CC030F0316AB1
:100FD800326A2B34303601E331803050376E375067
:100FE800D8A402D00ED061D02FC030F0316A326A56
:100FF8002E34303601E331803050386E3850D8A462
:1010080007D0000E2A6E000E2B6E000E2C6E4DD0EF
:10101800000E346E000E356E000E366E3850890F95
:10102800375E2CC038F02F50381A800E38162B8EA9
:10103800FF0E2A16FF0E2B16000E2C162E8EFF0EF4
:101048002D16FF0E2E16000E2F16180E336E00D01A
:10105800D8903436353636362D502A5C2E502B58DB
:101068002F502C58D8A007D02D502A5E2E502B5A1E
:101078002F502C5A3480D8902A362B362C36332EC3
:10108800E7D700D034C00FF035C010F036C011F0EB
:1010980037C012F038C013F033EC09F00FC02AF053
:1010A80010C02BF011C02CF000D01200216E800E61
:1010B800216069D09F0E166401D065D0FF0E1B6EAB
:1010C800FF0E1C6E175021C01DF01E6A1D26000E53
:1010D8001E221B501D261C501E221EBE0AD01E504A
:1010E80004E1800E1D5CD8A004D021500008800FB8
:1010F800176EFF0E1B6EFF0E1C6E185016C01DF0EB
:101108001E6A1D26000E1E221B501D261C501E2264
:101118001EBE0BD01E5004E1A00E1D5CD8A005D049
:1011280016500008A00F186E00D016C012F02150FB
:1011380017241B6E1B04136E165018241C6E1C04F7
:10114800146E215051EC0BF01A501F6E19C020F08C
:10115800818A819C18C016F01650D8B413D001D0DB
:1011680011D017C021F02150D8B40AD001D008D02E
:101178001F50E3EC0CF02050E3EC0CF02106F3D701
:101188001606EAD7818C12000001EF6F040ECB6EB1
:10119800070ECA6E000E1E6E800E1F6E400E206E69
:1011A8000001EF51A0EC0CF017C01BF018C01CF0A8
:1011B80019C01DF081EC06F01BC02AF01CC02BF0F2
:1011C8001DC02CF0000E2D6EA00E2E6E410E2F6E3F
:1011D800E9EC07F02AC0ECF02BC0EDF02CC0EEF0E3
:1011E800ECC00FF0EDC010F0EEC011F076EC07F097
:1011F8000FC0F0F010C0F1F00001EF510001E96FED
:10120800EA6B0001F0510001E95D0001EA51800A32
:101218000001EB6F0001F151800A0001EB59D8B0D1
:1012280004D00001F04BF12B00D0F0C0E9F0030E20
:101238000001E9170001E939F00B0C09BD6EF0C097
:10124800E9F0F1C0EAF00001EA35EA33E9330001D8
:10125800EA35EA33E9330001E951BE6E1200125053
:10126800D8B405D00F5010101110D8A40ED0000E0D
:101278000F6E000E106E000E116E53D006D0122A9B
:10128800D890113210320F3200D0000E0F14146EA5
:10129800000E1014156EFE0E1114166E1450151053
:1012A8001610D8B40ED0EBD70CD0122A010E0F2688
:1012B800000E1022000E1122D890113210320F3277
:1012C80000D0000E0F14146E000E1014156EFF0ED1
:1012D8001114166E145015101610D8B408D0E5D78E
:1012E80006D01206D8900F361036113600D010BE30
:1012F80004D0020E1260F5D700D012B002D0109EB2
:1013080000D0D8901232125011121350D8B402D013
:10131800118E00D00FC00FF010C010F011C011F0E6
:1013280000D01200000E1A6E18AE07D0176C181EE7
:10133800D8B0182A010E1A6E00D016AE07D0156C58
:10134800161ED8B0162A010E1A1A00D0000E1C6EEE
:10135800000E1B6E17501810D8B421D0010E196E4C
:1013680005D0D89017361836192A00D018BE02D0E2
:10137800F8D700D0D8901B361C361750155C18507B
:101388001658D8A006D01750155E1850165A1B804C
:1013980000D0D89018321732192EECD700D01A5036
:1013A800D8B405D01B6C1C1ED8B01C2A00D01BC09A
:1013B80015F01CC016F000D01200206E800E2060C0
:1013C8003FD09F0E166401D03BD0FF0E1A6EFF0E61
:1013D8001B6E175016C01CF01D6A1C26000E1D221D
:1013E8001A501C261B501D221DBE0BD01D5004E197
:1013F800A00E1C5CD8A005D016500008A00F176ED0
:1014080000D019501E6E18C01FF016C012F020C070
:1014180013F0165017241A6E1A04146E205051EC4B
:101428000BF0818A819C07D01E50E3EC0CF01F5012
:10143800E3EC0CF000D017061728D8A4F5D7818C58
:10144800120000EED0F0190EEE6AE806FDE100EE9B
:1014580039F02F0EEE6AE806FDE1880EF66E190ED9
:10146800F76E000EF86E01EE00F010EE21F00900A4
:10147800F5CFEEFFE550E150FAE1520EF66E160E8A
:10148800F76E000EF86E00EE80F010EE50F00900D6
:10149800F5CFEEFFE550E150FAE1440EF66E1A0E74
:1014A800F76E000EF86E00EE68F010EE09F0090015
:1014B800F5CFEEFFE550E150FAE1000EF86E0001BD
:1014C80014EF03F0116E000EAC6E000EAB6E11A09F
:1014D80002D0AC8800D011A203D0AC8CAB8C00D069
:1014E80011A402D0AC8E00D011A602D0AB8802D0D5
:1014F800AB8A00D011B8AC849E9811AA02D0AB86F2
:1015080000D011AC02D09D8A01D09D9A9E9A11AE4E
:1015180002D09D8801D09D980FC0AFFF1050B06ECB
:10152800AC8AAB8E949C948EACB8ACBE02D0948C32
:1015380000D012000600EACF04F0E1CF05F0E2CFB8
:1015480006F0D9CF07F0DACF08F0F3CF09F0F4CFDF
:101558000AF0F6CF0BF0F7CF0CF0F8CF0DF0F5CF7F
:101568000EF00EC0F5FF0DC0F8FF0CC0F7FF0BC062
:10157800F6FF0AC0F4FF09C0F3FF08C0DAFF07C08E
:10158800D9FF06C0E2FF05C0E1FF04C0EAFF03C0BF
:10159800E9FF02C0FBFF01C0FAFF1100000E146E44
:1015A800000E136E11501210D8B421D0010E156E12
:1015B80005D0D89011361236152A00D012BE02D0A6
:1015C800F8D700D0D8901336143611500F5C12504B
:1015D8001058D8A006D011500F5E1250105A138020
:1015E80000D0D89012321132152EECD700D013C08B
:1015F8000FF014C010F0120015C00FF016C010F054
:10160800000E126E7D0E116E8CEC0CF00FC019F0EE
:1016180010C01AF019C017F01AC018F0171E181EBB
:10162800174A182AFF0E1724196EFF0E18201A6E73
:10163800030ED56E19C0D6FF1A50D76EF294D58E08
:1016480000D0F2A4FED7D59E120030303A30303A9E
:1016580030300030303A30303A30300030312F30CE
:10166800312F30300030303A30303A3030003037B7
:101678003546004F46460030302F30302F3030008E
:1016880030303A30303A303000303030300030309E
:1016980030004F4646002B373700156E2A0E08ECEF
:1016A8000DF0000E00EC0DF01550542400EC0DF078
:1016B800000E00EC0DF01350542400EC0DF02B0E2E
:1016C80008EC0DF0000E00EC0DF012505C2400EC5C
:1016D8000DF0000E00EC0DF014505C2400EC0DF041
:1016E8002C0E08EC0DF0120018501910D8B41DD0AB
:1016F800010E1A6E05D0D890183619361A2A00D05D
:1017080019BE02D0F8D700D01850165C19501758D7
:10171800D8A005D01850165E1950175A00D0D89086
:10172800193218321A2EF0D700D016C016F017C08A
:1017380017F01200EDEC0CF0700ED36E0F0EC16EA8
:10174800000E926E010E936E010E946E000E956E51
:10175800000E966EF19E000EB26E030EB16EA00ED4
:101768000F6E860E106E010E116E000E126E1DECBD
:101778000DF02CEC0DF02BEC0DF0000E4B6E120062
:10178800296E29C02AF02B6A0ED021C016F023C07A
:1017980017F024C018F025C019F02A50E1EC09F020
:1017A8002A4A2B2A00D0225029C026F0276A26264A
:1017B800000E272226502A5C2B50800A286E2750BC
:1017C800800A2858D8A0E1D71200B2CF15F0166ABF
:1017D800000E186E020E176E96EC09F015C01FF079
:1017E80016C020F0000EB26E1FC00FF020C010F01F
:1017F800000E126E3C0E116E8CEC0CF00FC01DF03A
:1018080010C01EF000D012000FC013F010C014F06A
:1018180003D0134A142A00D013C0D9FF14C0DAFF2A
:10182800DF50D8A4F6D70FC011F010C012F0111E67
:10183800121E114A122A135011240F6E145012202E
:10184800106E00D012002A0E08EC0DF0000E00EC0D
:101858000DF0000E00EC0DF0000E00EC0DF07F0E08
:1018680000EC0DF02B0E08EC0DF0000E00EC0DF066
:10187800000E00EC0DF0000E00EC0DF09F0E00ECD9
:101888000DF012000FC013F010C014F005D0134A69
:10189800142A114A122A00D011C0F6FF12C0F7FF0D
:1018A80013C0D9FF14C0DAFF0800F5CFDFFFDF50FF
:1018B800D8A4EDD71200196E800E196013D09F0EB0
:1018C800166401D00FD016C012F01928136E16280E
:1018D800146E195051EC0BF0185000EC0DF0175025
:1018E80000EC0DF01200818C819A800EC76E300ECC
:1018F800C66EF9EC05F027EC0CF0FDEC06F0360EA0
:1019080008EC0DF0C00E00EC0DF0010E4E6E12004A
:101918000F501102F3CF13F0F4CF14F00F5012024E
:10192800F350142610501102F350142613C00FF070
:1019380014C010F000D012001A6E1A500F6E106A00
:10194800116A8E0E126E000E136E33EC09F00FC082
:1019580017F010C018F011C019F000D01200116E65
:10196800000E106E3A0E116006D02F0E116403D0CF
:10197800010E106E00D010C00FF00F3000D0120012
:1019880020454345333330314C20537027323120C2
:101998004C31320000000000000000000000000090
:1019A8000000000E166E800E176EA00E186E22C074
:1019B80019F023C01AF0000E5AEC08F01200106E4D
:1019C8009E96C9CF0FF010C0C9FF00D0C7A0FED7A0
:1019D8001200000E106E190E0F6E3C0E66EC0AF027
:1019E800700ED36E12008292000E166E640E156E83
:1019F80000EC0BF082821200116E819C818A1150DA
:101A0800E3EC0CF0818C1200116E819C819A1150CC
:101A1800E3EC0CF0818C12000F6E00D0ACA2FED764
:101A28000FC0ADFF1200958C060EE82EFED700D031
:101A3800120017EC0DF027EC0DF0120030004BFFF0
:101A4800012B32350000958E00D000D01200120014
:061A580012001200120052
:10FD740000000000000000005F0000000700070012
:10FD8400147F147F14242A7F2A12231308646236F2
:10FD9400495620500008070300001C22410000417E
:10FDA400221C002A1C7F1C2A08083E0808008070B8
:10FDB40030000808080808000060600020100804EB
:10FDC400023E5149453E00427F400072494949463E
:10FDD4002141494D331814127F1027454545393CBC
:10FDE4004A494931412111090736494949364649A9
:10FDF40049291E00001400000040340000000814CB
:10FE04002241141414141400412214080201590943
:10FE1400063E415D594E7C1211127C7F4949493698
:10FE24003E414141227F4141413E7F494949417F11
:10FE3400090909013E414151737F0808087F0041C7
:10FE44007F41002040413F017F081422417F404010
:10FE540040407F021C027F7F0408107F3E414141E5
:10FE64003E7F090909063E4151215E7F0919294651
:10FE7400264949493203017F01033F4040403F1F67
:10FE84002040201F3F4038403F631408146303049C
:10FE94007804036159494D43007F414141020408FC
:10FEA4001020004141417F040201020440404040CF
:10FEB40040000307080020545478407F2844443805
:10FEC4003844444428384444287F3854545418004F
:10FED400087E090218A4A49C787F080404780044CE
:10FEE4007D40002040403D007F1028440000417FB9
:10FEF40040007C047804787C080404783844444442
:10FF040038FC1824241818242418FC7C0804040839
:10FF1400485454542404043F44243C4040207C1C52
:10FF24002040201C3C4030403C44281028444C9045
:10FF340090907C4464544C4400083641000000779F
:10FF440000000041360800020102040201000A0018
:10FF54006400E803102701001000000100102530A0
:10FF640032783A253032783A2530327820253032CA
:10FF7400782F253032782F253032780045434533A9
:10FF84003330314C20537072696E672032312D53F7
:10FF940031002054656D70203D2025642043203DB0
:10FFA4002025642046200052504D203D2025642009
:10FFB400206463203D2025640D0A0030313233343F
:10FFC40035363738396162636465660054656D702F
:10FFD400657261747572653A00202046414E005482
:10FFE400696D650044617465004F4E20004F4646BC
:0CFFF4000052504D00432F004443000019
:020000040020DA
:08000000FFFFFFFFFFFFFFFF00
:020000040030CA
:0E000000FF08191EFF8281FF0FC00FE00F40A6
:00000001FF
