:040000000CEF00F011
:10000800FACF03F0FBCF04F0E9CF05F035ED0DF0A2
:10001800F5EF0CF044AE1CD02D0E0001DC6F7F0E06
:100028004414176E186A000E1A6E0A0E196E25EC23
:100038000CF01750300F0001DD6F7F0E44141F6E57
:10004800206A000E226E0A0E216EB4EC0CF01BD052
:100058002B0E0001DC6F44C017F045C018F0000EED
:100068001A6E0A0E196E25EC0CF01750300F0001AD
:10007800DD6F44C01FF045C020F0000E226E0A0E4E
:10008800216EB4EC0CF01F50300F0001DE6F00D071
:1000980047AE29D02D0E0001E06F46C0EBF047C0F7
:1000A800ECF00001EB1FEC1FEB4BEC2BEBC0EFF07F
:1000B800ECC0F0F0EFC017F0F0C018F0000E1A6EA8
:1000C8000A0E196E25EC0CF01750300F0001E16F85
:1000D800EFC01FF0F0C020F0000E226E0A0E216E55
:1000E800B4EC0CF01BD02B0E0001E06F46C017F0EB
:1000F80047C018F0000E1A6E0A0E196E25EC0CF0A7
:100108001750300F0001E16F46C01FF047C020F0C4
:10011800000E226E0A0E216EB4EC0CF01F50300F48
:100128000001E26F00D05E380F0B300F0001C66F80
:100138005E500F0B300F0001C76F5F380F0B300F89
:100148000001C96F5F500F0B300F0001CA6F623892
:100158000F0B300F0001CC6F62500F0B300F0001F6
:10016800CD6F60380F0B300F0001BD6F60500F0B63
:10017800300F0001BE6F5A380F0B300F0001C06FEF
:100188005A500F0B300F0001C16F6C380F0B300F36
:100198000001C36F6C500F0B300F0001C46F500487
:1001A800D8A40BD0D80E116E000E126EED0E136E81
:1001B800FF0E146E2FEC10F00BD0D80E116E000E3F
:1001C800126EF10E136EFF0E146E2FEC10F000D0AD
:1001D8005CC017F0186A000E1A6E640E196E25ECD2
:1001E8000CF01750300F0001D46F000E1A6E0A0E73
:1001F800196E5CC017F0186A25EC0CF017C01FF0D8
:1002080018C020F0000E226E0A0E216EB4EC0CF01D
:100218001F50300F0001D56F5CC01FF0206A000E20
:10022800226E0A0E216EB4EC0CF01F50300F000144
:10023800D66F4CC017F04DC018F0030E1A6EE80EBA
:10024800196E25EC0CF01750300F0001CF6F000E1F
:100258001A6E640E196E4CC017F04DC018F025ECDC
:100268000CF017C01FF018C020F0000E226E0A0E06
:10027800216EB4EC0CF01F50300F0001D06F000E4F
:10028800226E640E216E4CC01FF04DC020F0B4ECFD
:100298000CF01FC017F020C018F0000E1A6E0A0EDE
:1002A800196E25EC0CF01750300F0001D16F000EBD
:1002B800226E0A0E216E4CC01FF04DC020F0B4EC27
:1002C8000CF01FC0EDF020C0EEF0EDC01FF0EEC046
:1002D80020F0000E226E0A0E216EB4EC0CF01F50B6
:1002E800300F0001D26F170E396EDC0E3A6E000E19
:1002F8003B6EFF0E3D6EE00E3C6E000E3F6E000E34
:100308003E6E020E406E010E9BEC08F0170E396E21
:10031800E00E3A6E000E3B6EFF0E3D6EE00E3C6E38
:10032800000E3F6E000E3E6E020E406E460E9BECB7
:1003380008F0340E396EC60E3A6E000E3B6E070E8C
:100348003D6E3C68000E3F6E000E3E6E020E406E23
:100358000F0E9BEC08F0520E396EBD0E3A6E000E71
:100368003B6E070E3D6EE00E3C6E000E3F6E000EBB
:100378003E6E020E406E0F0E9BEC08F0820E396E38
:10038800D80E3A6E000E3B6EF80E3D6E000E3C6EB7
:10039800000E3F6E000E3E6E010E406E5F0E9BEC2F
:1003A80008F0960E396ED40E3A6E000E3B6E070EAC
:1003B8003D6EE00E3C6E000E3F6E000E3E6E010E6E
:1003C800406E0A0E9BEC08F0960E396ECF0E3A6E10
:1003D800000E3B6E070E3D6EE00E3C6E000E3F6E4B
:1003E800000E3E6E010E406E5D0E9BEC08F0120092
:1003F8001F0E306E000E316E99D1250E3818D8B404
:1004080004D03850C7EC11F091D1000E376E000EB1
:10041800366E000E356E05D035841D4A1E2A01D071
:100428000BD01DC0F6FF1EC0F7FF0800F550300ABC
:10043800D8B4F2D701D0F5D71DC0F6FF1EC0F7FF1C
:100448000800F550DBEC10F0D8A03BD0000E376E5A
:10045800000E366E00D036C011F037C012F0000E14
:10046800146E0A0E136E8DEC10F011C036F012C027
:1004780037F0D00E2B6EFF0E2C6E1DC0F6FF1EC07F
:10048800F7FF0800F5502D6E2E6A2B502D262C50A4
:100498002E222D5036262E5037221D4A1E2A1DC0C8
:1004A800F6FF1EC0F7FF0800F550DBEC10F0D8A0EF
:1004B80008D0D1D706D048D11BD0358E19D036D127
:1004C80017D01DC0F6FF1EC0F7FF1D4A1E2A0800E0
:1004D800F5CF38F03850000AD8B436D1640AD8B409
:1004E80007D00D0AD8B404D0110AD8B4E6D71ED163
:1004F80035BE15D030C0D9FF31C0DAFFDECF33F0BA
:10050800DDCF34F0020E3026000E312234AE4ED04C
:10051800030E3512336C341ED8B0342A47D030C09D
:10052800D9FF31C0DAFFDECF33F0DDCF34F0020E71
:100538003026000E31223AD0010E386E050E3818DA
:10054800D8B43DD001D03BD03850020DF40EF3247E
:10055800F66EFE0EF420F76E0900F550335C0900C4
:10056800F5503458D8A02BD001D029D0382AE6D756
:1005780026D0010E386E040E3818D8B420D001D019
:100588001ED03850020DFE0EF324F66EFE0EF42037
:10059800F76E0900F550335C0900F5503458D8A0BF
:1005A8000ED001D00CD0382AE6D709D03550800BB0
:1005B800000AD8B4C1D7800AD8B4DBD700D03650E7
:1005C8003710D8B40AD035C02BF0030E2B16D8B488
:1005D80004D03606D8A0370600D0800E38BE7F0E6D
:1005E8002B6E3650385C3750800A2B58D8B007D05D
:1005F8003850365E000E38BEFF0E375A05D0000E52
:10060800376E000E366E00D035A41AD035C02BF0E8
:10061800030E2B16D8B404D02D0EC7EC11F000D061
:1006280036503710D8B426D0300EC7EC11F0360645
:10063800D8A0370636503710D8B41CD0F5D71AD002
:1006480036503710D8B40CD0200EC7EC11F036064F
:10065800D8A0370636503710D8B402D0F5D700D016
:1006680035C02BF0030E2B16D8B404D02D0EC7ECD2
:1006780011F000D038C032F053D045D03250020DBE
:10068800F40EF324F66EFE0EF420F76E0900F5CF93
:1006980013F00A00F5CF14F033C011F034C012F093
:1006A800DDEC0DF011C018F012C019F0000E1B6E31
:1006B8000A0E1A6EDEEC0EF01850300F386E2CD081
:1006C80033C011F034C012F03250020DFE0EF32484
:1006D800F66EFE0EF420F76E0900F5CF13F00A004F
:1006E800F5CF14F0DDEC0DF011500F0B2F6E2F50DD
:1006F800010DA00EF324F66EFF0EF420F76E08002D
:10070800F5CF38F009D03550800B000AD8B4B6D7E9
:10071800800AD8B4D5D700D03850C7EC11F000D033
:1007280032063228D8B402D0EED700D01DC0F6FF6A
:100738001EC0F7FF1D4A1E2A0800F5CF38F03850B2
:10074800D8B402D05AD600D012008AEC11F078EC56
:1007580010F0000E256E000E246EFCEC10F02A0E30
:100768004E6E010E4F6E4EC011F04FC012F0240EA7
:10077800136EFF0E146E2FEC10F0010E396E4EC082
:100788003AF04FC03BF0FF0E3D6E3C68000E3F6EE6
:10079800000E3E6E010E406E010E9BEC08F04EC03E
:1007A80011F04FC012F0D00E136EFF0E146E2FEC26
:1007B80010F00B0E396E4EC03AF04FC03BF0F80EF9
:1007C8003D6E1F0E3C6E000E3F6E000E3E6E010E1B
:1007D800406E180E9BEC08F0000E1D6E280E1C6E65
:1007E800000E1F6E170E1E6E000E216E020E206E7A
:1007F800FF0E236EE00E226ED7EC05F04EC011F00E
:100808004FC012F0F90E136EFF0E146E2FEC10F09D
:10081800170E396E4EC03AF04FC03BF0FF0E3D6EDA
:10082800E00E3C6E000E3F6E000E3E6E020E406EF5
:100838002D0E9BEC08F04EC011F04FC012F0F30ED5
:10084800136EFF0E146E2FEC10F0000E1D6E6E0E60
:100858001C6E000E1F6E170E1E6E000E216E020E0D
:10086800206EFF0E236EE00E226ED7EC05F0170EF9
:10087800396E4EC03AF04FC03BF0FF0E3D6EE00EB1
:100888003C6E000E3F6E000E3E6E020E406E730E02
:100898009BEC08F04EC011F04FC012F0E30E136E3F
:1008A800FF0E146E2FEC10F0280E396E4EC03AF081
:1008B8004FC03BF0000E3D6E1F0E3C6E000E3F6EAB
:1008C800000E3E6E010E406E320E9BEC08F04EC0DC
:1008D80011F04FC012F0E80E136EFF0E146E2FECDD
:1008E80010F0470E396E4EC03AF04FC03BF0F80E8C
:1008F8003D6E000E3C6E000E3F6E000E3E6E010E09
:10090800406E320E9BEC08F04EC011F04FC012F052
:10091800DD0E136EFF0E146E2FEC10F0780E396E8C
:100928004EC03AF04FC03BF0000E3D6E1F0E3C6EBD
:10093800000E3F6E000E3E6E010E406E550E9BEC93
:1009480008F04EC011F04FC012F0FC0E136EFF0EEF
:10095800146E2FEC10F08C0E396E4EC03AF04FC06A
:100968003BF0FF0E3D6E3C68000E3F6E000E3E6E83
:10097800010E406E0C0E9BEC08F04EC011F04FC0FB
:1009880012F0F50E136EFF0E146E2FEC10F08C0E95
:10099800396E4EC03AF04FC03BF0FF0E3D6E3C68DA
:1009A800000E3F6E000E3E6E010E406E5F0E9BEC19
:1009B80008F0120004EC0FF0A9EC03F0320E5C6EA4
:1009C80000D039EC0EF062506E18D8B45ED062C018
:1009D8006EF060EC10F014C044F015C045F044C04F
:1009E80011F045C012F0000E146E090E136E8DEC56
:1009F80010F011C017F012C018F0000E1A6E050E94
:100A0800196E25EC0CF0200E1724466E000E1820E7
:100A1800476E99EC0FF01FC04CF020C04DF0060E49
:100A28001D6EFF0E1E6E5EC01FF0206A5FC021F0B3
:100A3800226A62C023F0246A60C025F0266A5AC080
:100A480027F0286A6CC029F02A6AFCEC01F0500EE5
:100A58001D6EFF0E1E6E44C01FF045C020F046C03C
:100A680021F047C022F0FCEC01F0650E1D6EFF0E70
:100A78001E6E4CC01FF04DC020F05CC021F0226AF1
:100A8800FCEC01F00EEC00F000D04A044B10D8A4A6
:100A980081D0000E4B6E000E4A6EB10E1D6EFF0E19
:100AA8001E6E51C01FF0206AFCEC01F0F288F19C28
:100AB8005D68000E0001F36F000EF26F0001F3BFD6
:100AC8000AD00001F35120E1150E0001F25DD8B003
:100AD8001BD001D019D0000E0001F225D96E010EED
:100AE8000001F321DA6E5150DE18D8A408D0F2C004
:100AF8005DF0000E0001F36F150EF26F00D00001DB
:100B0800F24BF32BDBD700D05D28D8A407D03A0EE0
:100B18001D6EFF0E1E6EFCEC01F03CD080EC11F057
:100B2800C10E1D6EFF0E1E6E5DC01FF0206AFCEC2C
:100B380001F0050E5D18D8A403D062EC11F014D0B2
:100B4800060E5D18D8A403D0B5EC10F00DD0070E32
:100B58005D18D8A403D0A1EC10F006D0080E5D18DB
:100B6800D8A412D00BEC0EF05D50010D150EF32435
:100B7800D96E010EF420DA6EDF500001F16F00012A
:100B8800F139F00B836E00D05CC01FF0206A15ECC1
:100B980010F000D04CC01FF04DC020F065EC0EF0F6
:100BA80010D70CEF00F020C024F021C025F0241E3F
:100BB800251E244A252A010E24242A6E000E2520EB
:100BC8002B6E000E276E010E266E20C024F021C069
:100BD80025F0D89024362536241E251E244A252A99
:100BE80024C028F025C029F0000E2D6E000E2C6EB2
:100BF80020C02EF021C02FF01E502024186E22C0D5
:100C080019F023C01AF01C5048EC10F020500008CE
:100C18001E24186E22C019F023C01AF01C5048EC8C
:100C280010F01EC018F022C019F023C01AF01C5092
:100C3800202448EC10F01EC018F022C019F023C080
:100C48001AF0205000081C2448EC10F078D02BBE75
:100C58000BD02E06D8A02F06020E2826000E292219
:100C680028502A2629502B222C4A2D2A020E2626C5
:100C7800000E272226502A2627502B221E502E24CB
:100C8800186E22C019F023C01AF01C502C2448EC0E
:100C980010F01E502E24186E22C019F023C01AF02E
:100CA8002C5000081C2448EC10F02E5000081E247C
:100CB800186E22C019F023C01AF01C502C2448ECDE
:100CC80010F02E5000081E24186E22C019F023C000
:100CD8001AF02C5000081C2448EC10F01E502C244C
:100CE800186E22C019F023C01AF01C502E2448ECAC
:100CF80010F01E502C24186E22C019F023C01AF0D0
:100D08002E5000081C2448EC10F02C5000081E241B
:100D1800186E22C019F023C01AF01C502E2448EC7B
:100D280010F02C5000081E24186E22C019F023C0A1
:100D38001AF02E5000081C2448EC10F000D02E5059
:100D48002C5C2D50800A246E2F50800A2458D8A07D
:100D58007ED71200F2925250D8B4A4D0CE50CFCF42
:100D680001F0026A01C002F0016A0110486E0250E7
:100D7800496E000ECF6E000ECE6E94D0000ECF6E70
:100D8800000ECE6E9E90900ECD6ECD80000E586EE9
:100D9800000E0001F46F000EF56F000EF66F000EE6
:100DA800F76F010E1FD0F18C8ED0350E485C210EE6
:100DB8004958D8A088D01C0E485C250E4958D8B090
:100DC80082D0020E1FD0F19C7ED0A10E485C0F0E7F
:100DD8004958D8A078D0880E485C130E4958D8B026
:100DE80072D0030E526EDFD76ED0910E485C010EA2
:100DF8004958D8A068D0BC0E485C020E4958D8B0F3
:100E080062D0040E526EDFD75ED0910E485C010EA0
:100E18004958D8A042D0080E485C070E4958D8B0A7
:100E28003CD0D8900001F4350001F46F0001F5358D
:100E38000001F56F0001F6350001F66F0001F73586
:100E48000001F76FE90E485C030E4958D8A014D08A
:100E5800010E0001F4250001F46F000E0001F521D8
:100E68000001F56F000E0001F6210001F66F000E7B
:100E78000001F7210001F76F5828586E1F0E5864BB
:100E880009D0000E4B6E010E4A6EF5C051F0F29873
:100E9800000E526E030E526E86D7FAEC11F083D70D
:100EA80082D711D05250000AD8B468D7010AD8B4F2
:100EB8007CD7030AD8B489D7010AD8B496D7070AC9
:100EC800D8B4A3D700D01200366E800E3660A6D0F4
:100ED8009F0E2E6401D0A2D03450D8A403D0010EA6
:100EE800346E00D01F0E2F6404D07E0E2F6403D002
:100EF80000D03F0E2F6E000E386E040E386401D0FD
:100F08008DD0530E2F6015D0E00E2F24116E126A6B
:100F1800FF0E1222000E146E050E136E8DEC10F0EB
:100F280038501126000E1222190E1124F66EFD0EED
:100F380014D0AD0E2F24116E126AFF0E1222000E6D
:100F4800146E050E136E8DEC10F038501126000E3D
:100F58001222180E1124F66EFE0E1220F76E0800EB
:100F6800F5CF35F000D0000E376E060E376401D08D
:100F780053D035A023D03404D8A40CD02E50372415
:100F8800186E30C019F031C01AF03650382448ECC9
:100F980010F03ED037503402F3502E24236E34C064
:100FA80024F034C025F030C026F031C027F0385086
:100FB8003402F350362450EC0FF02AD03050321857
:100FC80004E131503318D8B423D03404D8A40CD059
:100FD8002E503724186E32C019F033C01AF036502C
:100FE800382448EC10F014D037503402F3502E2433
:100FF800236E34C024F034C025F032C026F033C04C
:1010080027F038503402F350362450EC0FF000D05B
:10101800372AD8903532A9D7382A6FD71200010E4F
:10102800BFEC11F0000E186E960E176E8EEC0EF0D7
:10103800110EBFEC11F0010E186EF40E176E8EEC47
:101048000EF0B10EBFEC11F0010EB7EC11F02C0E42
:10105800B7EC11F02D0EB7EC11F0B20EBFEC11F099
:10106800010EB7EC11F02C0EB7EC11F02D0EB7EC09
:1010780011F0B30EBFEC11F0010EB7EC11F02C0E0D
:10108800B7EC11F02D0EB7EC11F0010EB7EC11F022
:101098002C0EB7EC11F02D0EB7EC11F0B40EBFEC1E
:1010A80011F0070EB7EC11F0C00EBFEC11F0A20E54
:1010B800B7EC11F0020EB7EC11F0840EB7EC11F09A
:1010C800C10EBFEC11F0C50EB7EC11F0C20EBFECAB
:1010D80011F00A0EB7EC11F0000EB7EC11F0C30EC8
:1010E800BFEC11F08A0EB7EC11F02A0EB7EC11F034
:1010F800C40EBFEC11F08A0EB7EC11F0EE0EB7EC8F
:1011080011F0C50EBFEC11F00E0EB7EC11F0200E69
:10111800BFEC11F0360EBFEC11F0C80EB7EC11F0B1
:101128003A0EBFEC11F0050EB7EC11F012000001F9
:10113800E46FE4C0EAF039C0E9F03AC011F03BC00E
:1011480012F0B8EC0FF011C0E5F012C0E6F0000E96
:101158000001E86F000EE76F64D06F50D8B434D048
:101168004050050D0001EA51416E426AF350412694
:10117800F450422242BE28D0425004E1810E415C24
:10118800D8A022D0000E0001EA6F4050070DF3509E
:101198000001E925030F0001E96FA00E0001E965D0
:1011A80004D0A00E0001E96F00D00001E7513A24F5
:1011B800D96E0001E8513B20DA6E200EDE18D8B453
:1011C8002CD002D02AD000D0E9C02EF00001E7517F
:1011D8003A24D96E0001E8513B20DA6EDF502F6EB9
:1011E8003CC030F03DC031F03EC032F03FC033F07B
:1011F80040C034F00001EA5168EC07F04050060D99
:10120800F3500001EA250001EA6F800E0001EA654B
:1012180004D0800E0001EA6F00D00001E74BE82BF4
:1012280000D00001E5510001E75D0001E651000131
:10123800E859D8A092D712001FC023F0246A256A63
:101248001E34233601E324802350266E2650D8A46A
:1012580002D00ED06CD022C023F0246A256A213433
:10126800233601E3248023502B6E2B50D8A407D0BB
:10127800000E1D6E000E1E6E000E1F6E58D02B50F5
:101288007B0F26261FC02BF022502B1A800E2B1600
:101298001E8E218EFF0E2016FF0E2116000E22161E
:1012A800000E276E000E286E000E296E070E2A6E9D
:1012B80000D01DA007D020502726215028222250D8
:1012C800292200D0D8901F321E321D32D8902036E5
:1012D800213622362A2EEDD700D0090E2A6E00D0EC
:1012E8001DA007D02050272621502822225029222D
:1012F80000D0D8901F321E321D32D89029322832A1
:1013080027322A2EEDD700D027C011F028C012F0BE
:1013180029C013F026C014F02BC015F067EC0BF0B1
:1013280011C01DF012C01EF013C01FF000D0120033
:10133800E00EBFEC11F0020EB7EC11F01C0EB7EC8A
:1013480011F0070EB7EC11F0120EB7EC11F0370ED2
:10135800B7EC11F0320EB7EC11F0290EB7EC11F022
:101368002D0EB7EC11F0290EB7EC11F0250EB7ECE5
:1013780011F02B0EB7EC11F0390EB7EC11F0000E8E
:10138800B7EC11F0010EB7EC11F0030EB7EC11F049
:10139800100EB7EC11F0E10EBFEC11F0030EB7EC34
:1013A80011F01D0EB7EC11F0070EB7EC11F0060E98
:1013B800B7EC11F02E0EB7EC11F02C0EB7EC11F0C3
:1013C800290EB7EC11F02D0EB7EC11F02E0EB7EC7C
:1013D80011F02E0EB7EC11F0370EB7EC11F03F0EEE
:1013E800B7EC11F0000EB7EC11F0000EB7EC11F0ED
:1013F800020EB7EC11F0100EB7EC11F0130EBFECA3
:1014080011F0000E186E0A0E176E8EEC0EF0290EF3
:10141800BFEC11F0000E186E640E176E8EEC0EF015
:10142800120013C015F0166A176A1234153601E354
:10143800168015501F6E1F50D8A402D039D063D023
:10144800170E156E11C016F012C017F013C018F061
:101458001528196E04D0D890183217321632192E62
:10146800FAD716501A6E128EFF0E1116FF0E1216AC
:10147800000E131611501B6E12501C6E13501D6E69
:101488001E6A8E0E1F5E1FAE10D01F50800A8F0F6F
:10149800D8B003D00DD037D000D0D8901E321D322E
:1014A8001C321B321F3EF9D719D0170E1F6411D0FA
:1014B800000E116E000E126E000E136E000E146EEA
:1014C80022D007D0D8901B361C361D361E361F0674
:1014D80000D01F50D8B402D0F5D700D01A50D8B4D5
:1014E80009D01E1E1D1E1C1E1B6C000E1C221D2258
:1014F8001E2200D01BC011F01CC012F01DC013F03A
:101508001EC014F000D012002EC032F0336A346AC4
:101518002D34323601E333803250396E3950D8A435
:1015280002D00ED061D031C032F0336A346A303420
:10153800323601E3338032503A6E3A50D8A407D09D
:10154800000E2C6E000E2D6E000E2E6E4DD0000E6D
:10155800366E000E376E000E386E3A50890F395EBF
:101568002EC03AF031503A1A800E3A162D8EFF0EE0
:101578002C16FF0E2D16000E2E16308EFF0E2F166F
:10158800FF0E3016000E3116180E356E00D0D890AA
:101598003636373638362F502C5C30502D5831506F
:1015A8002E58D8A007D02F502C5E30502D5A3150CD
:1015B8002E5A3680D8902C362D362E36352EE7D733
:1015C80000D036C011F037C012F038C013F039C05F
:1015D80014F03AC015F067EC0BF011C02CF012C0F3
:1015E8002DF013C02EF000D01200236E800E236061
:1015F80069D09F0E186401D065D0FF0E1D6EFF0ED6
:101608001E6E195023C01FF0206A1F26000E2022CC
:101618001D501F261E50202220BE0AD0205004E153
:10162800800E1F5CD8A004D023500008800F196ECC
:10163800FF0E1D6EFF0E1E6E1A5018C01FF0206A96
:101648001F26000E20221D501F261E50202220BEBD
:101658000BD0205004E1A00E1F5CD8A005D0185074
:101668000008A00F1A6E00D018C014F023501924D7
:101678001D6E1D04156E18501A241E6E1E04166E5B
:101688002350B7EC0EF01C50216E1BC022F0818A4B
:10169800819C1AC018F01850D8B413D001D011D0BA
:1016A80019C023F02350D8B40AD001D008D0215053
:1016B8006CEC11F022506CEC11F02306F3D71806ED
:1016C800EAD7818C12001450D8B405D011501210EA
:1016D8001310D8A40ED0000E116E000E126E000E5C
:1016E800136E53D006D0142AD89013321232113206
:1016F80000D0000E1114166E000E1214176EFE0E96
:101708001314186E165017101810D8B40ED0EBD743
:101718000CD0142A010E1126000E1222000E1322DC
:10172800D89013321232113200D0000E1114166EF6
:10173800000E1214176EFF0E1314186E16501710A1
:101748001810D8B408D0E5D706D01406D8901136AA
:101758001236133600D012BE04D0020E1460F5D72C
:1017680000D014B002D0129E00D0D8901432145079
:1017780013121550D8B402D0138E00D011C011F036
:1017880012C012F013C013F000D01200416E040E04
:10179800CB6E070ECA6E000E206E800E216E400EB4
:1017A800226E4150C8EC10F019C01DF01AC01EF08E
:1017B8001BC01FF020EC09F01DC02CF01EC02DF03E
:1017C8001FC02EF0000E2F6EA00E306E410E316E2F
:1017D80088EC0AF02CC03EF02DC03FF02EC040F03F
:1017E8003EC011F03FC012F040C013F015EC0AF0F3
:1017F80011C042F012C043F041503B6E3C6A425067
:101808003B5C3C50800A3D6E4350800A3D58D8B03E
:1018180003D0424A432A00D042C03BF0030E3B1695
:101828003B38F00B0C09BD6E42C03BF043C03CF0A6
:101838003C343C323B323C343C323B323B50BE6E53
:101848001200000E1C6E1AAE07D0196C1A1ED8B002
:101858001A2A010E1C6E00D018AE07D0176C181E7D
:10186800D8B0182A010E1C1A00D0000E1E6E000EE9
:101878001D6E19501A10D8B421D0010E1B6E05D058
:10188800D89019361A361B2A00D01ABE02D0F8D7BB
:1018980000D0D8901D361E361950175C1A501858AB
:1018A800D8A006D01950175E1A50185A1D8000D0BB
:1018B800D8901A3219321B2EECD700D01C50D8B44D
:1018C80005D01D6C1E1ED8B01E2A00D01DC017F0F2
:1018D8001EC018F000D01200226E800E22603FD089
:1018E8009F0E186401D03BD0FF0E1C6EFF0E1D6EBC
:1018F800195018C01EF01F6A1E26000E1F221C5009
:101908001E261D501F221FBE0BD01F5004E1A00E23
:101918001E5CD8A005D018500008A00F196E00D082
:101928001B50206E1AC021F018C014F022C015F008
:10193800185019241C6E1C04166E2250B7EC0EF0B9
:10194800818A819C07D020506CEC11F021506CECFE
:1019580011F000D019061928D8A4F5D7818C1200E7
:10196800000E246E20AE07D01F6C201ED8B0202A8F
:10197800010E246E00D022AE05D0216C221ED8B0F4
:10198800222A00D021502210D8B41DD0010E236E77
:1019980005D0D89021362236232A00D022BE02D084
:1019A800F8D700D021501F5C22502058D8A005D06D
:1019B80021501F5E2250205A00D0D8902232213266
:1019C800232EF0D700D02450D8B405D01F6C201E89
:1019D800D8B0202A00D01FC01FF020C020F000D0AF
:1019E800120000EEF4F00A0EEE6AE806FDE100EEE1
:1019F80044F0290EEE6AE806FDE1540EF66E1E0E5E
:101A0800F76E000EF86E01EE00F010EE4BF00900D4
:101A1800F5CFEEFFE550E150FAE1560EF66E1B0EDB
:101A2800F76E000EF86E00EE80F010EE64F009001C
:101A3800F5CFEEFFE550E150FAE1FC0EF66E230E0D
:101A4800F76E000EF86E0900F5CF6DF00900F5CFBE
:101A58006EF00900F5CF6FF0000EF86E0001DEEFB2
:101A680004F00600EACF06F0E1CF07F0E2CF08F075
:101A7800D9CF09F0DACF0AF0F3CF0BF0F4CF0CF09E
:101A8800F6CF0DF0F7CF0EF0F8CF0FF0F5CF10F03E
:101A98009EA003D0D4EC11F000D0F2A203D0AEEC9B
:101AA80006F000D010C0F5FF0FC0F8FF0EC0F7FF1A
:101AB8000DC0F6FF0CC0F4FF0BC0F3FF0AC0DAFF3D
:101AC80009C0D9FF08C0E2FF07C0E1FF06C0EAFF6E
:101AD80005C0E9FF04C0FBFF03C0FAFF1100136E45
:101AE800000EAC6E000EAB6E13A002D0AC8800D016
:101AF80013A203D0AC8CAB8C00D013A402D0AC8E54
:101B080000D013A602D0AB8802D0AB8A00D013B89D
:101B1800AC849E9813AA02D0AB8600D013AC02D036
:101B28009D8A01D09D9A9E9A13AE02D09D8801D0BD
:101B38009D9811C0AFFF1250B06EAC8AAB8E949CCA
:101B4800948EACB8ACBE02D0948C00D012000100C8
:101B580003000200040005000600070030303A3098
:101B6800303A30300030303A30303A3030003031AE
:101B78002F30312F30300030303A30303A303000AA
:101B880030373546004F464600300030302F303071
:101B98002F30300030303A30303A3030003030308A
:101BA8003000303030004F4646002B3235002B379E
:101BB8003700000E176E000E166E13501410D8B4AE
:101BC80021D0010E156E05D0D89013361436152A7B
:101BD80000D014BE02D0F8D700D0D89016361736E9
:101BE8001350115C14501258D8A006D01350115E2F
:101BF8001450125A168000D0D89014321332152E71
:101C0800ECD700D016C011F017C012F01200000E69
:101C1800626E000E5F6E000E5E6E040E5B6E280E26
:101C28005A6E040E606E220E6C6EA5EC11F0D00E8A
:101C3800F6EC0FF0000EF6EC0FF06250F6EC0FF039
:101C48005F50F6EC0FF05E50F6EC0FF05B50F6ECE0
:101C58000FF05A50F6EC0FF06050F6EC0FF06C50A5
:101C6800F6EC0FF09CEC11F01200A5EC11F0D00E80
:101C7800F6EC0FF0000EF6EC0FF057EC11F0D10E69
:101C8800F6EC0FF0010E75EC0FF0626E010E75ECBC
:101C98000FF05F6E010E75EC0FF05E6E010E75ECC5
:101CA8000FF05B6E010E75EC0FF05A6E010E75ECBD
:101CB8000FF0606E000E75EC0FF06C6E9CEC11F07E
:101CC800120020EE80F010EE21F00D0EDBCFE3FFC6
:101CD800E806FCE220BE05D0205005E11F04D8B07C
:101CE80002D0000E14D01FC017F020C018F0010E4B
:101CF8001A6EF40E196E25EC0CF0D89017361836BB
:101D0800210E1724D96E000E1820DA6EDF50846E6B
:101D180000D0120017C011F018C012F0000E146E97
:101D28007D0E136E8DEC10F011C01BF012C01CF06C
:101D38001BC019F01CC01AF0191E1A1E194A1A2ABB
:101D4800FF0E19241B6EFF0E1A201C6E030ED56E93
:101D58001BC0D6FF1C50D76EF294D58E00D0F2A4CB
:101D6800FED7D59E1200176E2A0EBFEC11F0000E9A
:101D7800B7EC11F017505924B7EC11F0000EB7EC7E
:101D880011F015505924B7EC11F02B0EBFEC11F0DF
:101D9800000EB7EC11F014506124B7EC11F0000EEE
:101DA800B7EC11F016506124B7EC11F02C0EBFEC13
:101DB80011F012001A501B10D8B41DD0010E1C6E61
:101DC80005D0D8901A361B361C2A00D01BBE02D06C
:101DD800F8D700D01A50185C1B501958D8A005D055
:101DE8001A50185E1B50195A00D0D8901B321A325C
:101DF8001C2EF0D700D018C018F019C019F0120026
:101E080076EC11F0700ED36E0F0EC16E000E926E4E
:101E1800010E936E010E946E000E956E000E966E76
:101E2800F19E000EB26E030EB16EA00E116E860EFC
:101E3800126E010E136E000E146EDAEC11F024EC23
:101E480011F04BEC11F0000E506E1200A262E2226B
:101E580002C2E0A8906898B030187A10385A424AFE
:101E680052010101040402050505070707070707D2
:101E780007070707070720454345333330314C2010
:101E88005370273232204C3132000000000000002D
:101E980000000000000000002B6E2BC02CF02D6A03
:101EA8000ED023C018F025C019F026C01AF027C09C
:101EB8001BF02C5070EC0CF02C4A2D2A00D024502A
:101EC8002BC028F0296A2826000E292228502C5CCD
:101ED8002D50800A2A6E2950800A2A58D8A0E1D7A6
:101EE8001200116EF6EC11F0000E126E070E12645D
:101EF80001D00FD0CEEC11F083AE03D0D8801336CA
:101F080004D013501324136E00D0F2EC11F0122AEF
:101F1800EDD71150D8B403D0AEEC11F003D0E4ECF7
:101F280011F000D0135000D01200B2CF17F0186A89
:101F3800000E1A6E020E196E25EC0CF017C021F077
:101F480018C022F0000EB26E21C011F022C012F0AB
:101F5800000E146E3C0E136E8DEC10F011C01FF0C5
:101F680012C020F000D0120011C015F012C016F0F7
:101F780003D0154A162A00D015C0D9FF16C0DAFFBB
:101F8800DF50D8A4F6D711C013F012C014F0131EF6
:101F9800141E134A142A15501324116E16501420B7
:101FA800126E00D012002A0EBFEC11F0000EB7EC32
:101FB80011F0000EB7EC11F0000EB7EC11F07F0E27
:101FC800B7EC11F02B0EBFEC11F0000EB7EC11F0CE
:101FD800000EB7EC11F0000EB7EC11F09F0EB7EC45
:101FE80011F01200116E000E126E070E126401D06D
:101FF80011D011AE03D0F6EC11F003D0E9EC11F0DA
:1020080000D0CEEC11F0F2EC11F011501124116E49
:10201800122AEBD7F6EC11F0CEEC11F0F2EC11F03D
:10202800120020BE09D0205004E1460E1F5CD8A043
:1020380003D0835007090CD01FC017F020C018F038
:10204800000E1A6E0A0E196E25EC0CF0175083104C
:10205800836E00D0120011C015F012C016F005D022
:10206800154A162A134A142A00D013C0F6FF14C0C2
:10207800F7FF15C0D9FF16C0DAFF0800F5CFDFFF5C
:10208800DF50D8A4EDD712001B6E800E1B6013D052
:102098009F0E186401D00FD018C014F01B28156EBD
:1020A8001828166E1B50B7EC0EF01A50B7EC11F04A
:1020B8001950B7EC11F01200A5EC11F0900EF6ECE7
:1020C8000FF0AA0EF6EC0FF057EC11F0910EF6ECAB
:1020D8000FF0000E75EC0FF0166E9CEC11F016C0A8
:1020E80014F0156A00D01200818C819A800EC76E98
:1020F800300EC66E13EC08F0D7EC0FF09CEC09F02C
:10210800360EBFEC11F0C00EB7EC11F0010E536E95
:10211800120011501302F3CF15F0F4CF16F011503E
:102128001402F350162612501302F350162615C047
:1021380011F016C012F000D01200640E5C18D8A47A
:1021480008D080EC11F080EC11F05C50CAEC0BF078
:1021580007D05C50050F5C6E5C50CAEC0BF000D0E9
:1021680012005C50D8A408D080EC11F080EC11F07B
:102178005C50CAEC0BF007D05C50FB0F5C6E5C50F7
:10218800CAEC0BF000D012001C6E1C50116E126AC3
:10219800136A8E0E146E000E156E67EC0BF011C0EC
:1021A80019F012C01AF013C01BF000D01200136E01
:1021B800000E126E3A0E136006D02F0E136403D071
:1021C800010E126E00D012C011F0113000D01200B2
:1021D800156EA5EC11F015501524F6EC0FF0135000
:1021E800F6EC0FF01450F6EC0FF09CEC11F0120026
:1021F800000E186E800E196EA00E1A6E24C01BF009
:1022080025C01CF0000EF9EC0AF012008D0E1D6EB0
:10221800FF0E1E6EFCEC01F0010E506E5C50CAEC15
:102228000BF080881200790E1D6EFF0E1E6EFCECFE
:1022380001F0000E506E000ECAEC0BF080981200F0
:10224800AC0E136E020E146E480EECEC10F0EE0E8F
:10225800136E480E31EC11F01200146EA5EC11F05B
:1022680014501424F6EC0FF01350F6EC0FF09CEC1D
:1022780011F01200030ED56EDB0ED66E0B0ED76E64
:10228800F294D58E00D0F2A4FED7D59E1200F29219
:10229800F19CF288000ECF6E000ECE6E9E909D804F
:1022A800F28CF28E1200F2EC11F0F6EC11F0CEEC9A
:1022B80011F0E9EC11F0F2EC11F012005050D8A432
:1022C80003D00AEC11F003D017EC11F000D0120083
:1022D800126E9E96C9CF11F012C0C9FF00D0C7A0D8
:1022E800FED71200000E126E190E116E3C0E73EC22
:1022F8000DF0700ED36E120093EC11F0DFEC11F0BC
:10230800EEEC11F05C50CAEC0BF012008292000E59
:10231800186E640E176E8EEC0EF082821200F90EA3
:10232800CB6E050ECA6E4A0EBB6E3C0EBA6E12001C
:10233800F2EC11F0E9EC11F0CEEC11F0F6EC11F042
:102348001200F6EC11F0CEEC11F0E9EC11F0F2EC21
:1023580011F01200E9EC11F0CEEC11F0F2EC11F0F2
:10236800F6EC11F01200136E819C818A13506CEC0C
:1023780011F0818C1200136E819C819A13506CECC1
:1023880011F0818C1200116E00D0ACA2FED711C0E2
:10239800ADFF12009388060EE82EFED700D012007B
:1023A800000E526EF19CCD909E901200CEEC11F072
:1023B800F6EC11F012003EEC11F03EEC11F01200B8
:1023C800CEEC11F0F2EC11F01200839E959E00D035
:1023D80000D01200000EBA6E819612008198939870
:1023E80000D01200958E00D000D01200000E526E60
:0823F800CD9012004BFF010023
:10FD180000000000000000005F000000070007006E
:10FD2800147F147F14242A7F2A122313086462364E
:10FD3800495620500008070300001C2241000041DA
:10FD4800221C002A1C7F1C2A08083E080800807014
:10FD58003000080808080800006060002010080447
:10FD6800023E5149453E00427F400072494949469A
:10FD78002141494D331814127F1027454545393C18
:10FD88004A49493141211109073649494936464905
:10FD980049291E0000140000004034000000081427
:10FDA80022411414141414004122140802015909A0
:10FDB800063E415D594E7C1211127C7F49494936F5
:10FDC8003E414141227F4141413E7F494949417F6E
:10FDD800090909013E414151737F0808087F004124
:10FDE8007F41002040413F017F081422417F40406D
:10FDF80040407F021C027F7F0408107F3E41414142
:10FE08003E7F090909063E4151215E7F09192946AD
:10FE1800264949493203017F01033F4040403F1FC3
:10FE28002040201F3F4038403F63140814630304F8
:10FE38007804036159494D43007F41414102040858
:10FE48001020004141417F0402010204404040402B
:10FE580040000307080020545478407F2844443861
:10FE68003844444428384444287F385454541800AB
:10FE7800087E090218A4A49C787F0804047800442A
:10FE88007D40002040403D007F1028440000417F15
:10FE980040007C047804787C08040478384444449E
:10FEA80038FC1824241818242418FC7C0804040896
:10FEB800485454542404043F44243C4040207C1CAF
:10FEC8002040201C3C4030403C44281028444C90A2
:10FED80090907C4464544C440008364100000077FC
:10FEE80000000041360800020102040201000A0075
:10FEF8006400E803102701001000000100102530FD
:10FF080032783A253032783A253032782025303226
:10FF1800782F253032782F25303278004543453305
:10FF28003330314C20537072696E672032322D5352
:10FF3800310043616E6E6F742066696E642062756D
:10FF480074746F6E200D0A002054656D70203D207A
:10FF580025642043203D2025642046200052504D32
:10FF6800203D20256420206463203D2025640D0A5F
:10FF78000046616E206973207475726E6564206F27
:10FF880066660D0A0046616E206973207475726E8C
:10FF98006564206F6E0D0A003031323334353637E0
:10FFA8003839616263646566004E45435F436F6438
:10FFB80065203D2025780D0A00627574746F6E20E7
:10FFC8003D202564200D0A0054656D7065726174CA
:10FFD8007572653A00202046414E0054696D6500EF
:10FFE80044617465004F4E20004F46460052504D04
:08FFF80000432F004443000008
:020000040020DA
:08000000FFFFFFFFFFFFFFFF00
:020000040030CA
:0E000000FF08191EFF8281FF0FC00FE00F40A6
:00000001FF
