:040000000CEF00F011
:10000800FACF03F0FBCF04F0E9CF05F09FED08F03D
:10001800DDEF08F01F0E306E000E316E99D1250EFF
:100028003818D8B404D038509BEC0CF091D1000E9D
:10003800376E000E366E000E356E05D035841D4ABB
:100048001E2A01D00BD01DC0F6FF1EC0F7FF080006
:10005800F550300AD8B4F2D701D0F5D71DC0F6FF55
:100068001EC0F7FF0800F550DBEC0BF0D8A03BD022
:10007800000E376E000E366E00D036C011F037C055
:1000880012F0000E146E0A0E136EC7EC0BF011C0BE
:1000980036F012C037F0D00E2B6EFF0E2C6E1DC03E
:1000A800F6FF1EC0F7FF0800F5502D6E2E6A2B5084
:1000B8002D262C502E222D5036262E5037221D4A02
:1000C8001E2A1DC0F6FF1EC0F7FF0800F550DBEC26
:1000D8000BF0D8A008D0D1D706D048D11BD0358E88
:1000E80019D036D117D01DC0F6FF1EC0F7FF1D4A24
:1000F8001E2A0800F5CF38F03850000AD8B436D197
:10010800640AD8B407D00D0AD8B404D0110AD8B4F8
:10011800E6D71ED135BE15D030C0D9FF31C0DAFFC1
:10012800DECF33F0DDCF34F0020E3026000E312260
:1001380034AE4ED0030E3512336C341ED8B0342A88
:1001480047D030C0D9FF31C0DAFFDECF33F0DDCF82
:1001580034F0020E3026000E31223AD0010E386EED
:10016800050E3818D8B43DD001D03BD03850020D18
:10017800580EF324F66EFF0EF420F76E0900F550C2
:10018800335C0900F5503458D8A02BD001D029D0C1
:10019800382AE6D726D0010E386E040E3818D8B49F
:1001A80020D001D01ED03850020D620EF324F66E16
:1001B800FF0EF420F76E0900F550335C0900F55086
:1001C8003458D8A00ED001D00CD0382AE6D709D0A0
:1001D8003550800B000AD8B4C1D7800AD8B4DBD711
:1001E80000D036503710D8B40AD035C02BF0030EE3
:1001F8002B16D8B404D03606D8A0370600D0800E07
:1002080038BE7F0E2B6E3650385C3750800A2B581C
:10021800D8B007D03850365E000E38BEFF0E375AB9
:1002280005D0000E376E000E366E00D035A41AD0F9
:1002380035C02BF0030E2B16D8B404D02D0E9BEC32
:100248000CF000D036503710D8B426D0300E9BECC6
:100258000CF03606D8A0370636503710D8B41CD064
:10026800F5D71AD036503710D8B40CD0200E9BECE6
:100278000CF03606D8A0370636503710D8B402D05E
:10028800F5D700D035C02BF0030E2B16D8B404D008
:100298002D0E9BEC0CF000D038C032F053D045D076
:1002A8003250020D580EF324F66EFF0EF420F76E4E
:1002B8000900F5CF13F00A00F5CF14F033C011F0A0
:1002C80034C012F052EC09F011C018F012C019F045
:1002D800000E1B6E0A0E1A6E7DEC0AF01850300FD5
:1002E800386E2CD033C011F034C012F03250020DE9
:1002F800620EF324F66EFF0EF420F76E0900F5CFB8
:1003080013F00A00F5CF14F052EC09F011500F0B5E
:100318002F6E2F50010DE50EF324F66EFF0EF4201C
:10032800F76E0800F5CF38F009D03550800B000A79
:10033800D8B4B6D7800AD8B4D5D700D038509BECFB
:100348000CF000D032063228D8B402D0EED700D054
:100358001DC0F6FF1EC0F7FF1D4A1E2A0800F5CF74
:1003680038F03850D8B402D05AD600D01200ECEC8D
:100378000AF0D5EC07F080EC09F000D0AEEC09F0FB
:1003880062506D18D8B44CD062C06DF09AEC0BF086
:1003980014500001FB6F0001FB51116E126A11BE6F
:1003A8001206000E146E090E136EC7EC0BF011C086
:1003B80017F012C018F0000E1A6E050E196E8AECAE
:1003C80007F01750200F0001FA6F950E1D6EFF0EF3
:1003D8001E6E5DC01FF0206A5FC021F0226A62C0F5
:1003E80023F0246A60C025F0266A5AC027F0286ADC
:1003F8006CC029F02A6A0EEC00F06A0E1D6EFF0E22
:100408001E6E0001FB511F6E206A1FBE20060001F0
:10041800FA51216E226A21BE22060EEC00F000D0AD
:100428004C044D10D8A4AAD7000E4D6E000E4C6E89
:10043800F288F19C0001FE69000E0001FD6F000EBC
:10044800FC6F0001FDBF0AD00001FD511BE1150E34
:100458000001FC5DD8B016D001D014D0BF0E000149
:10046800FC25D96E000E0001FD21DA6E5050DE1811
:10047800D8A403D0FCC0FEF000D00001FC4BFD2B3B
:10048800E0D700D00001FE29D8B444D0000E3C6E5D
:100498003C0E3B6E000E3E6E500E3D6E000E406EE2
:1004A800140E3F6E0001FE51020D000EF324D96EAA
:1004B800010EF420DA6EDECF41F0DDCF42F004EC1D
:1004C8000AF0000E1D6E3C0E1C6E000E1F6E500EC4
:1004D8001E6E000E216E140E206EFF0E236E226813
:1004E800CFEC02F04D0E396E0001FE51040D2A0EBC
:1004F800F3243A6E010EF4203B6EFF0E3D6E3C680D
:10050800000E3F6E000E3E6E010E406E340E1EEC65
:1005180006F000D0B30E1D6EFF0E1E6E50C01FF009
:10052800206AFEC021F0226A0EEC00F0080E0001DD
:10053800FE19D8A403D080EC09F000D00001FE51C8
:10054800010DAA0EF324D96E000EF420DA6EDF50E6
:10055800436E0001FE51010D800EF324D96E000E8A
:10056800F420DA6EDF504310836E0001FE51010D56
:10057800950EF324D96E000EF420DA6EDF50846EE7
:10058800818E82EC0CF019EC0CF0819EBDEC0CF025
:10059800F5D60CEF00F020C024F021C025F0241E71
:1005A800251E244A252A010E24242A6E000E252001
:1005B8002B6E000E276E010E266E20C024F021C07F
:1005C80025F0D89024362536241E251E244A252AAF
:1005D80024C028F025C029F0000E2D6E000E2C6EC8
:1005E80020C02EF021C02FF01E502024186E22C0EB
:1005F80019F023C01AF01C5082EC0BF020500008B0
:100608001E24186E22C019F023C01AF01C5082EC68
:100618000BF01EC018F022C019F023C01AF01C50AD
:10062800202482EC0BF01EC018F022C019F023C061
:100638001AF0205000081C2482EC0BF078D02BBE56
:100648000BD02E06D8A02F06020E2826000E29222F
:1006580028502A2629502B222C4A2D2A020E2626DB
:10066800000E272226502A2627502B221E502E24E1
:10067800186E22C019F023C01AF01C502C2482ECEA
:100688000BF01E502E24186E22C019F023C01AF049
:100698002C5000081C2482EC0BF02E5000081E245D
:1006A800186E22C019F023C01AF01C502C2482ECBA
:1006B8000BF02E5000081E24186E22C019F023C01B
:1006C8001AF02C5000081C2482EC0BF01E502C242D
:1006D800186E22C019F023C01AF01C502E2482EC88
:1006E8000BF01E502C24186E22C019F023C01AF0EB
:1006F8002E5000081C2482EC0BF02C5000081E24FD
:10070800186E22C019F023C01AF01C502E2482EC57
:100718000BF02C5000081E24186E22C019F023C0BC
:100728001AF02E5000081C2482EC0BF000D02E503A
:100738002C5C2D50800A246E2F50800A2458D8A093
:100748007ED71200366E800E3660A6D09F0E2E64BD
:1007580001D0A2D03450D8A403D0010E346E00D0FA
:100768001F0E2F6404D07E0E2F6403D000D03F0EDE
:100778002F6E000E386E040E386401D08DD0530EE3
:100788002F6015D0E00E2F24116E126AFF0E122270
:10079800000E146E050E136EC7EC0BF038501126C0
:1007A800000E12227D0E1124F66EFD0E14D0AD0E31
:1007B8002F24116E126AFF0E1222000E146E050EFF
:1007C800136EC7EC0BF038501126000E12227C0E67
:1007D8001124F66EFE0E1220F76E0800F5CF35F0E4
:1007E80000D0000E376E060E376401D053D035A006
:1007F80023D03404D8A40CD02E503724186E30C01F
:1008080019F031C01AF03650382482EC0BF03ED083
:1008180037503402F3502E24236E34C024F034C0F1
:1008280025F030C026F031C027F038503402F3509C
:100838003624A3EC0AF02AD03050321804E13150A3
:100848003318D8B423D03404D8A40CD02E5037246D
:10085800186E32C019F033C01AF03650382482ECC2
:100868000BF014D037503402F3502E24236E34C0CA
:1008780024F034C025F032C026F033C027F03850B9
:100888003402F3503624A3EC0AF000D0372AD8906B
:100898003532A9D7382A6FD71200F2925150D8B4FE
:1008A80093D0CE50CFCF01F0026A01C002F0016AA6
:1008B8000110486E0250496E000ECF6E000ECE6ECB
:1008C80083D0000ECF6E000ECE6E9E90900ECD6E31
:1008D800CD80000E586E000E446E000E456E000E60
:1008E800466E000E476E010E1FD0F18C7ED0350E7D
:1008F800485C210E4958D8A078D01C0E485C250EBB
:100908004958D8B072D0020E1FD0F19C6ED0A10EFB
:10091800485C0F0E4958D8A068D0880E485C130E62
:100928004958D8B062D0030E516EDFD75ED0910E11
:10093800485C010E4958D8A058D0080E485C070EEC
:100948004958D8B052D0040E516EDFD74ED0910E10
:10095800485C010E4958D8A032D0080E485C070EF2
:100968004958D8B02CD0D8904434446E4534456E9C
:100978004634466E4734476EE90E485C030E4958C4
:10098800D8A00CD0010E4424446E000E4520456EBC
:10099800000E4620466E000E4720476E5828586EB7
:1009A8001F0E586409D0000E4D6E010E4C6E45C0E6
:1009B80050F0F298000E516E030E516E96D7C9ECA6
:1009C8000CF093D792D711D05150000AD8B479D7E8
:1009D800010AD8B48CD7030AD8B499D7010AD8B475
:1009E800A6D7070AD8B4B3D700D0120027C02FF073
:1009F80028C030F02F1E301E2F4A302A010E2F2417
:100A0800356E000E3020366E000E326E010E316EDD
:100A180027C02FF028C030F0D8902F3630362F1E40
:100A2800301E2F4A302A2FC033F030C034F0000E69
:100A3800386E000E376E27C039F028C03AF067D0FC
:100A480036BE0BD03906D8A03A06020E3326000E61
:100A580034223350352634503622374A382A020E8B
:100A68003126000E3222315035263250362229A046
:100A780025D0395000082524186E395039242B24E4
:100A88002F6E2F28196E2DC01AF02EC01BF0235080
:100A980037241CEC08F0375000082524186E37500E
:100AA80037242B242F6E2F28196E2DC01AF02EC034
:100AB8001BF0235039241CEC08F000D029A227D0C1
:100AC800395000082524186E395039242B242F6EEC
:100AD8002F28196E2DC01AF02EC01BF037500008B1
:100AE80023241CEC08F0375000082524186E3750D2
:100AF80037242B242F6E2F28196E2DC01AF02EC0E4
:100B08001BF03950000823241CEC08F000D03950A1
:100B1800375C3850800A2F6E3A50800A2F58D8A078
:100B28008FD71200010E93EC0CF0000E186E960E83
:100B3800176E2DEC0AF0110E93EC0CF0010E186EE6
:100B4800F40E176E2DEC0AF0B10E93EC0CF0010EBA
:100B58008BEC0CF02C0E8BEC0CF02D0E8BEC0CF0BF
:100B6800B20E93EC0CF0010E8BEC0CF02C0E8BEC0F
:100B78000CF02D0E8BEC0CF0B30E93EC0CF0010E78
:100B88008BEC0CF02C0E8BEC0CF02D0E8BEC0CF08F
:100B9800010E8BEC0CF02C0E8BEC0CF02D0E8BEC6C
:100BA8000CF0B40E93EC0CF0070E8BEC0CF0C00EAE
:100BB80093EC0CF0A20E8BEC0CF0020E8BEC0CF00C
:100BC800840E8BEC0CF0C10E93EC0CF0C50E8BEC84
:100BD8000CF0C20E93EC0CF00A0E8BEC0CF0000E2D
:100BE8008BEC0CF0C30E93EC0CF08A0E8BEC0CF033
:100BF8002A0E8BEC0CF0C40E93EC0CF08A0E8BECE6
:100C08000CF0EE0E8BEC0CF0C50E93EC0CF00E0E07
:100C18008BEC0CF0200E93EC0CF0360E93EC0CF0F1
:100C2800C80E8BEC0CF03A0E93EC0CF0050E8BEC26
:100C38000CF012000001F36FF3C0F9F039C0F8F0BE
:100C48003AC011F03BC012F00CEC0BF011C0F4F0FC
:100C580012C0F5F0000E0001F76F000EF66F64D0B9
:100C68006E50D8B434D04050050D0001F951416E92
:100C7800426AF3504126F450422242BE28D04250E4
:100C880004E1810E415CD8A022D0000E0001F96F6A
:100C98004050070DF3500001F825030F0001F86FCD
:100CA800A00E0001F86504D0A00E0001F86F00D076
:100CB8000001F6513A24D96E0001F7513B20DA6E53
:100CC800200EDE18D8B42CD002D02AD000D0F8C01C
:100CD8002EF00001F6513A24D96E0001F7513B205D
:100CE800DA6EDF502F6E3CC030F03DC031F03EC0B0
:100CF80032F03FC033F040C034F00001F951A6ECA7
:100D080003F04050060DF3500001F9250001F96F7A
:100D1800800E0001F96504D0800E0001F96F00D043
:100D28000001F64BF72B00D00001F4510001F65DED
:100D38000001F5510001F759D8A092D71200E00E32
:100D480093EC0CF0020E8BEC0CF01C0E8BEC0CF000
:100D5800070E8BEC0CF0120E8BEC0CF0370E8BECB4
:100D68000CF0320E8BEC0CF0290E8BEC0CF02D0EE7
:100D78008BEC0CF0290E8BEC0CF0250E8BEC0CF0A8
:100D88002B0E8BEC0CF0390E8BEC0CF0000E8BEC70
:100D98000CF0010E8BEC0CF0030E8BEC0CF0100E2B
:100DA8008BEC0CF0E10E93EC0CF0030E8BEC0CF0DA
:100DB8001D0E8BEC0CF0070E8BEC0CF0060E8BEC7A
:100DC8000CF02E0E8BEC0CF02C0E8BEC0CF0290E8C
:100DD8008BEC0CF02D0E8BEC0CF02E0E8BEC0CF03B
:100DE8002E0E8BEC0CF0370E8BEC0CF03F0E8BECD0
:100DF8000CF0000E8BEC0CF0000E8BEC0CF0020EDD
:100E08008BEC0CF0100E8BEC0CF0130E93EC0CF03A
:100E1800000E186E0A0E176E2DEC0AF0290E93ECD0
:100E28000CF0000E186E640E176E2DEC0AF012000E
:100E3800236E800E236069D09F0E186401D065D0A0
:100E4800FF0E1D6EFF0E1E6E195023C01FF0206A84
:100E58001F26000E20221D501F261E50202220BEB5
:100E68000AD0205004E1800E1F5CD8A004D0235083
:100E78000008800F196EFF0E1D6EFF0E1E6E1A50B1
:100E880018C01FF0206A1F26000E20221D501F26A2
:100E98001E50202220BE0BD0205004E1A00E1F5C63
:100EA800D8A005D018500008A00F1A6E00D018C09E
:100EB80014F0235019241D6E1D04156E18501A24A1
:100EC8001E6E1E04166E235056EC0AF01C50216E3E
:100ED8001BC022F0828082921AC018F01850D8B431
:100EE80013D001D011D019C023F02350D8B40AD0A0
:100EF80001D008D021504AEC0CF022504AEC0CF0FA
:100F08002306F3D71806EAD782821200000E1C6E59
:100F18001AAE07D0196C1A1ED8B01A2A010E1C6E08
:100F280000D018AE07D0176C181ED8B0182A010EBA
:100F38001C1A00D0000E1E6E000E1D6E19501A10DD
:100F4800D8B421D0010E1B6E05D0D89019361A36A8
:100F58001B2A00D01ABE02D0F8D700D0D8901D3670
:100F68001E361950175C1A501858D8A006D01950B8
:100F7800175E1A50185A1D8000D0D8901A321932AC
:100F88001B2EECD700D01C50D8B405D01D6C1E1EEB
:100F9800D8B01E2A00D01DC017F01EC018F000D00F
:100FA80012005EEC0CF0B2EC0BF0000E256E000E99
:100FB800246E0BEC0CF0D40E4E6E000E4F6E4EC02D
:100FC80011F04FC012F0CF0E136EFF0E146E69ECC5
:100FD8000BF0020E396E4EC03AF04FC03BF0FF0ED8
:100FE8003D6E3C68000E3F6E000E3E6E010E406E78
:100FF800020E1EEC06F04EC011F04FC012F0F60EB5
:10100800136EFF0E146E69EC0BF00A0E396E4EC0AB
:101018003AF04FC03BF0FF0E3D6E3C68000E3F6E4D
:10102800000E3E6E010E406E320E1EEC06F01200EF
:10103800226E800E22603FD09F0E186401D03BD0F4
:10104800FF0E1C6EFF0E1D6E195018C01EF01F6A91
:101058001E26000E1F221C501E261D501F221FBEBA
:101068000BD01F5004E1A00E1E5CD8A005D018506C
:101078000008A00F196E00D01B50206E1AC021F076
:1010880018C014F022C015F0185019241C6E1C0446
:10109800166E225056EC0AF08280829207D02050B9
:1010A8004AEC0CF021504AEC0CF000D01906192833
:1010B800D8A4F5D78282120000F800F800F81F00C3
:1010C8001F00E0071FF81FF81FF8000000000000CD
:1010D8000000000000000000000000000000000008
:1010E800000043482D004348200043482B0050523D
:1010F80056004E585400502F5000564C2D00564C58
:101108002B00455120002030200031303000323093
:1011180030002031200020322000203320002034ED
:1011280020002035200020362000203720002038DD
:101138002000203920000600EACF06F0E1CF07F0B2
:10114800E2CF08F0D9CF09F0DACF0AF0F3CF0BF0ED
:10115800F4CF0CF0F6CF0DF0F7CF0EF0F8CF0FF07C
:10116800F5CF10F09EA003D0A8EC0CF000D0F2A2AE
:1011780003D051EC04F000D010C0F5FF0FC0F8FF09
:101188000EC0F7FF0DC0F6FF0CC0F4FF0BC0F3FF55
:101198000AC0DAFF09C0D9FF08C0E2FF07C0E1FFB3
:1011A80006C0EAFF05C0E9FF04C0FBFF03C0FAFF61
:1011B800110000EED4F01F0EEE6AE806FDE100EE25
:1011C80044F0290EEE6AE806FDE1C00EF66E100E38
:1011D800F76E000EF86E01EE00F010EE7EF00900DA
:1011E800F5CFEEFFE550E150FAE1B40EF66E130EBE
:1011F800F76E000EF86E00EE80F010EE54F0090065
:10120800F5CFEEFFE550E150FAE19A0EF66E190EB1
:10121800F76E000EF86E0900F5CF6DF00900F5CFF6
:101228006EF0000EF86E0001BBEF01F0136E000EB9
:10123800AC6E000EAB6E13A002D0AC8800D013A227
:1012480003D0AC8CAB8C00D013A402D0AC8E00D0F1
:1012580013A602D0AB8802D0AB8A00D013B8AC84F6
:101268009E9813AA02D0AB8600D013AC02D09D8AF8
:1012780001D09D9A9E9A13AE02D09D8801D09D9868
:1012880011C0AFFF1250B06EAC8AAB8E949C948E96
:10129800ACB8ACBE02D0948C00D01200000E176E11
:1012A800000E166E13501410D8B421D0010E156E0E
:1012B80005D0D89013361436152A00D014BE02D0A3
:1012C800F8D700D0D890163617361350115C145042
:1012D8001258D8A006D01350115E1450125A168016
:1012E80000D0D89014321332152EECD700D016C087
:1012F80011F017C012F01200060E626E280E5F6E13
:10130800130E5D6E040E5B6E210E5A6E040E606E37
:10131800220E6C6E70EC0CF0D00E4AEC0BF0000E46
:101328004AEC0BF062504AEC0BF05F504AEC0BF0C1
:101338005D504AEC0BF05B504AEC0BF05A504AEC0B
:101348000BF060504AEC0BF06C504AEC0BF067EC79
:101358000CF0120070EC0CF0D00E4AEC0BF0000E02
:101368004AEC0BF03FEC0CF0D10E4AEC0BF0010EFE
:10137800C8EC0AF0626E010EC8EC0AF05F6E010E4E
:10138800C8EC0AF05D6E010EC8EC0AF05B6E010E47
:10139800C8EC0AF05A6E010EC8EC0AF0606E000E36
:1013A800C8EC0AF06C6E67EC0CF01200000001004B
:1013B8000002000005000007000007000007000009
:1013C80007000100000400000500000700000700F6
:1013D80000070000070010000040000050000070E7
:1013E8000000700000700000700000A262E222029B
:1013F800C2E0A8906898B030187A10385A424A5219
:101408003F5000083D24186ED8803F34196E41C003
:101418001AF042C01BF03B501CEC08F03BC023F014
:101428003CC024F03DC025F03EC026F03FC027F068
:1014380040C028F0000E2A6E030E296E000E2C6E96
:10144800000E2B6E41C02DF042C02EF0FAEC04F0D5
:10145800120017C011F018C012F0000E146EFA0E28
:10146800136EC7EC0BF011C01BF012C01CF01BC0B0
:1014780019F01CC01AF0191E1A1E194A1A2AFF0E52
:1014880019241B6EFF0E1A201C6EB80EB16E1BC0FD
:10149800B2FF1C50B36EA192B18000D0A1A2FED7BA
:1014A800B1901200176E2A0E93EC0CF0000E8BEC24
:1014B8000CF0175059248BEC0CF0000E8BEC0CF050
:1014C800155059248BEC0CF02B0E93EC0CF0000EFD
:1014D8008BEC0CF0145061248BEC0CF0000E8BECB0
:1014E8000CF0165061248BEC0CF02C0E93EC0CF0E5
:1014F80012001A501B10D8B41DD0010E1C6E05D056
:10150800D8901A361B361C2A00D01BBE02D0F8D73A
:1015180000D01A50185C1B501958D8A005D01A5082
:10152800185E1B50195A00D0D8901B321A321C2E44
:10153800F0D700D018C018F019C019F012002B6E9F
:101548002BC02CF02D6A0ED023C018F025C019F03E
:1015580026C01AF027C01BF02C501CEC08F02C4AAF
:101568002D2A00D024502BC028F0296A2826000EE6
:10157800292228502C5C2D50800A2A6E2950800A76
:101588002A58D8A0E1D71200116EC5EC0CF0000E55
:10159800126E070E126401D00FD0A2EC0CF083AECD
:1015A80003D0D880133604D013501324136E00D000
:1015B800C1EC0CF0122AEDD71150D8B403D079EC55
:1015C8000CF003D0B3EC0CF000D0135000D0120094
:1015D80054EC0CF033EC0CF0700ED36E0F0EC16EA1
:1015E800000E926E110E936E000E946E800E956E24
:1015F800000E966EF19EA00E116E860E126E010EF2
:10160800136E000E146EAEEC0CF0FCEC0BF0120036
:1016180011C015F012C016F003D0154A162A00D0D2
:1016280015C0D9FF16C0DAFFDF50D8A4F6D711C00D
:1016380013F012C014F0131E141E134A142A155066
:101648001324116E16501420126E00D012002A0EA8
:1016580093EC0CF0000E8BEC0CF0000E8BEC0CF005
:10166800000E8BEC0CF07F0E8BEC0CF02B0E93EC39
:101678000CF0000E8BEC0CF0000E8BEC0CF0000E56
:101688008BEC0CF09F0E8BEC0CF01200116E000E20
:10169800126E070E126401D011D011AE03D0C5EC42
:1016A8000CF003D0B8EC0CF000D0A2EC0CF0C1ECBC
:1016B8000CF011501124116E122AEBD7C5EC0CF066
:1016C800A2EC0CF0C1EC0CF0120011C015F012C025
:1016D80016F005D0154A162A134A142A00D013C04A
:1016E800F6FF14C0F7FF15C0D9FF16C0DAFF0800CF
:1016F800F5CFDFFFDF50D8A4EDD712001B6E800EA8
:101708001B6013D09F0E186401D00FD018C014F0BE
:101718001B28156E1828166E1B5056EC0AF01A5026
:101728008BEC0CF019508BEC0CF0120070EC0CF0F8
:10173800900E4AEC0BF0AA0E4AEC0BF03FEC0CF0C2
:10174800910E4AEC0BF0000EC8EC0AF0166E67EC2E
:101758000CF016C014F0156A00D012008282829034
:10176800800EC76E300EC66E96EC05F02BEC0BF0B3
:10177800A3EC06F0360E93EC0CF0C00E8BEC0CF0DC
:10178800010E536E120011501302F3CF15F0F4CF6F
:1017980016F011501402F350162612501302F3508B
:1017A800162615C011F016C012F000D01200136EE4
:1017B800000E126E3A0E136006D02F0E136403D07B
:1017C800010E126E00D012C011F0113000D01200BC
:1017D800156E70EC0CF0155015244AEC0BF01350F4
:1017E8004AEC0BF014504AEC0BF067EC0CF01200CA
:1017F800480E166EAC0E136E020E146E1650ECECFC
:101808000BF0EE0E136E165026EC0CF01200000EC4
:10181800186E800E196EA00E1A6E24C01BF025C01B
:101828001CF0000E1CEC07F01200030ED56EDB0E48
:10183800D66E0B0ED76EF294D58E00D0F2A4FED7DA
:10184800D59E1200146E70EC0CF0145014244AEC5F
:101858000BF013504AEC0BF067EC0CF01200F2920C
:10186800F19CF288000ECF6E000ECE6E9E909D8089
:10187800F28CF28E1200C1EC0CF0C5EC0CF0A2EC6C
:101888000CF0B8EC0CF0C1EC0CF01200126E9E9645
:10189800C9CF11F012C0C9FF00D0C7A0FED71200EF
:1018A800000E126E190E116E3C0E1AEC09F0700E35
:1018B800D36E12008294000E186E640E176E2DEC13
:1018C8000AF082841200C1EC0CF0B8EC0CF0A2EC27
:1018D8000CF0C5EC0CF01200C5EC0CF0A2EC0CF00E
:1018E800B8EC0CF0C1EC0CF01200B8EC0CF0A2EC67
:1018F8000CF0C1EC0CF0C5EC0CF01200F90ECB6E3C
:10190800050ECA6E4A0EBB6E3C0EBA6E1200136EFE
:101918008292828013504AEC0CF082821200136E7D
:101928008292829013504AEC0CF082821200116E5F
:1019380000D0ACA2FED711C0ADFF12009388060EEE
:10194800E82EFED700D01200000E516EF19CCD900B
:101958009E901200A2EC0CF0C5EC0CF01200A2EC68
:101968000CF0C1EC0CF01200839E959E00D000D0C4
:101978001200000EBA6E819612008198939800D0DA
:101988001200958E00D000D01200000E516ECD903E
:041998001200FF0139
:10FD7C0000000000000000005F000000070007000A
:10FD8C00147F147F14242A7F2A12231308646236EA
:10FD9C00495620500008070300001C224100004176
:10FDAC00221C002A1C7F1C2A08083E0808008070B0
:10FDBC0030000808080808000060600020100804E3
:10FDCC00023E5149453E00427F4000724949494636
:10FDDC002141494D331814127F1027454545393CB4
:10FDEC004A494931412111090736494949364649A1
:10FDFC0049291E00001400000040340000000814C3
:10FE0C00224114141414140041221408020159093B
:10FE1C00063E415D594E7C1211127C7F4949493690
:10FE2C003E414141227F4141413E7F494949417F09
:10FE3C00090909013E414151737F0808087F0041BF
:10FE4C007F41002040413F017F081422417F404008
:10FE5C0040407F021C027F7F0408107F3E414141DD
:10FE6C003E7F090909063E4151215E7F0919294649
:10FE7C00264949493203017F01033F4040403F1F5F
:10FE8C002040201F3F4038403F6314081463030494
:10FE9C007804036159494D43007F414141020408F4
:10FEAC001020004141417F040201020440404040C7
:10FEBC0040000307080020545478407F28444438FD
:10FECC003844444428384444287F38545454180047
:10FEDC00087E090218A4A49C787F080404780044C6
:10FEEC007D40002040403D007F1028440000417FB1
:10FEFC0040007C047804787C08040478384444443A
:10FF0C0038FC1824241818242418FC7C0804040831
:10FF1C00485454542404043F44243C4040207C1C4A
:10FF2C002040201C3C4030403C44281028444C903D
:10FF3C0090907C4464544C44000836410000007797
:10FF4C0000000041360800020102040201000A0010
:10FF5C006400E80310270100100000010010205479
:10FF6C00656D7065726174757265203D2025642025
:10FF7C006465677265657343203D20256420646564
:10FF8C006772656573460D0A00253032783A253064
:10FF9C0032783A2530327820253032782F2530329D
:10FFAC00782F25303278004E45435F436F646520CF
:10FFBC003D20257820466F756E64203D20256420F9
:10FFCC000D0A00454345333330314C205370726970
:10FFDC006E672032322D53310030313233343536A6
:10FFEC00373839616263646566004C4142203131B7
:04FFFC0020000000E1
:020000040020DA
:08000000FFFFFFFFFFFFFFFF00
:020000040030CA
:0E000000FF08191EFF8281FF0FC00FE00F40A6
:00000001FF
