:040000009BEF7FF003
:10FEE6001B0EC16EA90EC06E120040792430191285
:10FEF600027800180B6E0B50010D010EF324D96E1B
:10FF0600000EF420DA6EDF50836E1200000E0C6EC7
:10FF1600000E0B6E0CBE08D0680E0B5C420E0C5821
:10FF2600D8B005D001D003D00B4A0C2AF3D7120063
:10FF3600F00EF66EFE0EF76E000EF86E00EE01F095
:10FF460010EE0AF00900F5CFEEFFE550E150FAE1B8
:10FF56000001CEEF7FF00C6E0C50010D010EF32464
:10FF6600D96E000EF420DA6EDF503F0B826E0C5015
:10FF7600010D010EF324D96E000EF420DA6EDF5067
:10FF8600400B0B6E0B50D8A402D0000E01D0010E10
:10FF9600846E00D0120073EC7FF00F0E926E000E8E
:10FFA600936E000E946E000E946E000E956E000E0B
:10FFB600966E00D0000E806E000E816E8268836899
:10FFC6008468000E0E6E000E0D6E0EBE08D00E502A
:10FFD600F1E10A0E0D5CD8B0EDD701D0EBD70D508C
:10FFE600AEEC7FF00D507DEC7FF089EC7FF00D4A92
:0AFFF6000E2AEBD7DFD700EF00F072
:020000040030CA
:04000000FF08191EBE
:0200060081FF78
:00000001FF
