:04000000CAEF7FF0D4
:10FF4E00407924301912027800180B6E0B50010DF7
:10FF5E00010EF324D96E000EF420DA6EDF50836E9C
:10FF6E001200000E0C6E000E0B6E0CBE08D0680E4A
:10FF7E000B5C420E0C58D8B005D001D003D00B4A02
:10FF8E000C2AF3D712004E0EF66EFF0EF76E000E11
:10FF9E00F86E00EE01F010EE0AF00900F5CFEEFF5C
:10FFAE00E550E150FAE10001DDEF7FF00F0E926EA9
:10FFBE00000E936E000E946E000E956E000E966EF1
:10FFCE00000E0E6E000E0D6E0EBE08D00E50F8E135
:10FFDE000A0E0D5CD8B0F4D701D0F2D70D50ACECB0
:10FFEE007FF0B8EC7FF00D4A0E2AEED7E9D700EF7E
:02FFFE0000F011
:020000040020DA
:08000000FFFFFFFFFFFFFFFF00
:020000040030CA
:0E000000FF08191EFF8381FF0FC00FE00F40A5
:00000001FF
