:0400000092EF7FF00C
:10FF24000001AFEF7FF0010EC26E0E0EC16EA90E7E
:10FF3400C06E1200C2820AD0C450046E036AC35059
:10FF44000324056E000E0420066E00D0C2B2F4D75E
:10FF540005C001F006C002F0120095EC7FF0000E1F
:10FF6400936E00D09CEC7FF001C007F002C008F053
:10FF740007C001F008C002F0C3EC7FF0F3D700EF34
:10FF840000F00A0E8A6E000E066E050E056E055010
:10FF94000610D8B414D001D012D001C003F002C0AE
:10FFA40004F003500410D8B406D001D004D00306E2
:10FFB400D8A00406F6D70506D8A00606E8D7050E8D
:10FFC4008A6E000E066E050E056E05500610D8B436
:10FFD40014D001D012D001C003F002C004F00350C9
:10FFE4000410D8B406D001D004D00306D8A0040667
:0CFFF400F6D70506D8A00606E8D71200D4
:020000040020DA
:08000000FFFFFFFFFFFFFFFF00
:020000040030CA
:0E000000FF08191EFF8381FF0FC00FE00F40A5
:00000001FF
