:040000000CEF00F011
:10000800FACF03F0FBCF04F0E9CF05F0D4ED15F0FB
:10001800D2EF16F043AE20D02D0E0001D96F435019
:100028007F0B0008800F0101556F55C120F0216A30
:10003800000E236E0A0E226E26EC14F02050300FAC
:100048000001DA6F55C128F0296A000E2B6E0A0EDE
:100058002A6E17EC16F01BD02B0E0001D96F43C087
:1000680020F044C021F0000E236E0A0E226E26EC0A
:1000780014F02050300F0001DA6F43C028F044C05C
:1000880029F0000E2B6E0A0E2A6E17EC16F0285077
:10009800300F0001DB6F00D046AE33D02D0E0001CB
:1000A800DD6F7F0E45140001FD6F000E4614000140
:1000B800FE6F0001FD1FFE1FFD4BFE2B800E000191
:1000C800FD250101536F000E0001FE210101546F4F
:1000D80053C120F054C121F0000E236E0A0E226E87
:1000E80026EC14F02050300F0001DE6F53C128F0C9
:1000F80054C129F0000E2B6E0A0E2A6E17EC16F06A
:100108001BD02B0E0001DD6F45C020F046C021F04A
:10011800000E236E0A0E226E26EC14F02050300FCB
:100128000001DE6F45C028F046C029F0000E2B6E96
:100138000A0E2A6E17EC16F02850300F0001DF6FF8
:1001480000D05F380F0B300F0001AF6F5F500F0BFF
:10015800300F0001B06F60380F0B300F0001B26F25
:1001680060500F0B300F0001B36F63380F0B300F67
:100178000001B56F63500F0B300F0001B66F613887
:100188000F0B300F00018B6F61500F0B300F000108
:100198008C6F5C380F0B300F00018E6F5C500F0BAB
:1001A800300F00018F6F6E380F0B300F0001916F09
:1001B8006E500F0B300F0001926F57380F0B300F36
:1001C8000001826F57500F0B300F0001836F5838B2
:1001D8000F0B300F0001856F58500F0B300F0001C7
:1001E800866F59380F0B300F0001886F59500F0B6D
:1001F800300F0001896F0001EA050001EB11D8A456
:100208000BD0CD0E116E000E126EE90E136EFF0E9E
:10021800146E01EC1BF00BD0CD0E116E000E126E99
:10022800ED0E136EFF0E146E01EC1BF000D06FC0C4
:1002380020F0216A000E236E640E226E26EC14F064
:100248002050300F0001BE6F000E236E0A0E226E82
:100258006FC020F0216A26EC14F020C028F021C0DD
:1002680029F0000E2B6E0A0E2A6E17EC16F0285095
:10027800300F0001BF6F6FC028F0296A000E2B6E87
:100288000A0E2A6E17EC16F02850300F0001C06FC6
:100298004F04D8A40BD0D50E116E000E126EE90EC5
:1002A800136EFF0E146E01EC1BF00BD0D50E116E01
:1002B800000E126EED0E136EFF0E146E01EC1BF0A5
:1002C80000D080BA02D0310E01D0300E0001E16FAB
:1002D80000D049C020F04AC021F0000E236E640E01
:1002E800226E26EC14F02050300F0001D16F000E62
:1002F800236E0A0E226E49C020F04AC021F026EC77
:1003080014F020C028F021C029F0000E2B6E0A0E30
:100318002A6E17EC16F02850300F0001D26F49C032
:1003280028F04AC029F0000E2B6E0A0E2A6E17EC30
:1003380016F02850300F0001D36FE7C011F0E8C065
:1003480012F0E9C013F037EC10F011C020F012C021
:1003580021F0000E236E640E226E26EC14F020505D
:10036800300F0001B86F000E236E0A0E226EE7C030
:1003780011F0E8C012F0E9C013F037EC10F011C02A
:1003880020F012C021F026EC14F020C028F021C083
:1003980029F0000E2B6E0A0E2A6E17EC16F0285064
:1003A800300F0001BA6FE7C011F0E8C012F0E9C0E1
:1003B80013F037EC10F011C028F012C029F0000E2D
:1003C8002B6E0A0E2A6E17EC16F02850300F00011B
:1003D800BB6F4BC020F04CC021F0030E236EE80E1B
:1003E800226E26EC14F02050300F0001C36F000E6F
:1003F800236E640E226E4BC020F04CC021F026EC18
:1004080014F020C028F021C029F0000E2B6E0A0E2F
:100418002A6E17EC16F02850300F0001C46F000E3A
:100428002B6E640E2A6E4BC028F04CC029F017ECD6
:1004380016F028C020F029C021F0000E236E0A0E05
:10044800226E26EC14F02050300F0001C56F000E0C
:100458002B6E0A0E2A6E4BC028F04CC029F017EC00
:1004680016F028C051F129C052F151C128F052C1EB
:1004780029F0000E2B6E0A0E2A6E17EC16F0285083
:10048800300F0001C66F170E396ED90E3A6E000E86
:100498003B6EFF0E3D6EE00E3C6E000E3F6E000E92
:1004A8003E6E020E406E010EBEEC0CF0170E396E59
:1004B800DD0E3A6E000E3B6EFF0E3D6EE00E3C6E9A
:1004C800000E3F6E000E3E6E020E406E460EBEECF3
:1004D8000CF0340E396EAF0E3A6E000E3B6E070EFE
:1004E8003D6E3C68000E3F6E000E3E6E020E406E82
:1004F8000F0EBEEC0CF0520E396E8B0E3A6E000EDB
:100508003B6E070E3D6EE00E3C6E000E3F6E000E19
:100518003E6E020E406E0F0EBEEC0CF06E0E396E83
:10052800820E3A6E000E3B6E070E3D6E3C68000E62
:100538003F6E000E3E6E010E406E0A0EBEEC0CF0D1
:100548006E0E396ECD0E3A6E000E3B6E070E3D6E86
:100558003C68000E3F6E000E3E6E010E406E5F0E50
:10056800BEEC0CF0820E396EBE0E3A6E000E3B6E7B
:10057800F80E3D6E000E3C6E000E3F6E000E3E6E95
:10058800010E406E230EBEEC0CF0820E396ED50EB5
:100598003A6E000E3B6EF80E3D6E000E3C6E000E7D
:1005A8003F6E000E3E6E010E406E5F0EBEEC0CF00C
:1005B800960E396ED10E3A6E000E3B6E070E3D6EEA
:1005C800E00E3C6E000E3F6E000E3E6E010E406E59
:1005D8000A0EBEEC0CF0960E396EE10E3A6E000E65
:1005E8003B6E070E3D6EE00E3C6E000E3F6E000E39
:1005F8003E6E010E406E230EBEEC0CF0960E396E68
:10060800B80E3A6E000E3B6E070E3D6EE00E3C6E65
:10061800000E3F6E000E3E6E010E406E320EBEECB6
:100628000CF0960E396EC30E3A6E000E3B6E070E36
:100638003D6EE00E3C6E000E3F6E000E3E6E010EEB
:10064800406E5D0EBEEC0CF01200CEEC1CF060ECBF
:100658001BF0000E256E000E246EFEEC1BF04DC044
:1006680011F04EC012F0D90E136EFE0E146E01EC8E
:100678001BF0010E396E4DC03AF04EC03BF0FF0E34
:100688003D6E3C68000E3F6E000E3E6E010E406EE1
:10069800010EBEEC0CF04DC011F04EC012F06E0E03
:1006A800136EFF0E146E01EC1BF00B0E396E4DC06D
:1006B8003AF04EC03BF0F80E3D6E1F0E3C6E000E39
:1006C8003F6E000E3E6E010E406E180EBEEC0CF032
:1006D800000E1D6E280E1C6E000E1F6E170E1E6E6D
:1006E800000E216E020E206EFF0E236EE00E226EAB
:1006F80037EC09F04DC011F04EC012F0F50E136E34
:10070800FF0E146E01EC1BF0170E396E4DC03AF057
:100718004EC03BF0FF0E3D6EE00E3C6E000E3F6E8D
:10072800000E3E6E020E406E2D0EBEEC0CF04DC05B
:1007380011F04EC012F0EF0E136EFF0E146E01ECA6
:100748001BF0000E1D6E6E0E1C6E000E1F6E170E37
:100758001E6E000E216E020E206EFF0E236EE00E3E
:10076800226E37EC09F0170E396E4DC03AF04EC0C4
:100778003BF0FF0E3D6EE00E3C6E000E3F6E000E2D
:100788003E6E020E406E730EBEEC0CF04DC011F0C2
:100798004EC012F0B00E136EFF0E146E01EC1BF07B
:1007A800280E396E4DC03AF04EC03BF0000E3D6E3B
:1007B8001F0E3C6E000E3F6E000E3E6E010E406E28
:1007C800320EBEEC0CF04DC011F04EC012F0DF0E30
:1007D800136EFF0E146E01EC1BF0470E396E4DC000
:1007E8003AF04EC03BF0F80E3D6E000E3C6E000E27
:1007F8003F6E000E3E6E010E406E320EBEEC0CF0E7
:100808004DC011F04EC012F0AA0E136EFF0E146EFA
:1008180001EC1BF0640E396E4DC03AF04EC03BF04F
:10082800FF0E3D6EE00E3C6E000E3F6E000E3E6EFB
:10083800010E406E040EBEEC0CF04DC011F04EC01F
:1008480012F0BF0E136EFF0E146E01EC1BF0640E57
:10085800396E4DC03AF04EC03BF0FF0E3D6EE00ED3
:100868003C6E000E3F6E000E3E6E010E406E4D0E49
:10087800BEEC0CF04DC011F04EC012F07B0E136EA2
:10088800FF0E146E01EC1BF0780E396E4DC03AF075
:100898004EC03BF0000E3D6E1F0E3C6E000E3F6ECC
:1008A800000E3E6E010E406E060EBEEC0CF04DC002
:1008B80011F04EC012F0D80E136EFF0E146E01EC3C
:1008C8001BF0780E396E4DC03AF04EC03BF0000E6A
:1008D8003D6E1F0E3C6E000E3F6E000E3E6E010E0A
:1008E800406E550EBEEC0CF04DC011F04EC012F02B
:1008F800F80E136EFF0E146E01EC1BF08C0E396EA1
:100908004DC03AF04EC03BF0FF0E3D6E3C68000E05
:100918003F6E000E3E6E010E406E0C0EBEEC0CF0EB
:100928004DC011F04EC012F0FB0E136EFF0E146E88
:1009380001EC1BF08C0E396E4DC03AF04EC03BF006
:10094800FF0E3D6E3C68000E3F6E000E3E6E010EBF
:10095800406E210EBEEC0CF04DC011F04EC012F0EE
:10096800E40E136EFF0E146E01EC1BF08C0E396E44
:100978004DC03AF04EC03BF0FF0E3D6E3C68000E95
:100988003F6E000E3E6E010E406E320EBEEC0CF055
:100998004DC011F04EC012F0F10E136EFF0E146E22
:1009A80001EC1BF08C0E396E4DC03AF04EC03BF096
:1009B800FF0E3D6E3C68000E3F6E000E3E6E010E4F
:1009C800406E5F0EBEEC0CF012001F0E306E000E73
:1009D800316E99D1250E3818D8B404D038503AEC75
:1009E8001DF091D1000E376E000E366E000E356E7A
:1009F80005D035841D4A1E2A01D00BD01DC0F6FF34
:100A08001EC0F7FF0800F550300AD8B4F2D701D05D
:100A1800F5D71DC0F6FF1EC0F7FF0800F550AFEC74
:100A28001BF0D8A03BD0000E376E000E366E00D0FB
:100A380036C011F037C012F0000E146E0A0E136E95
:100A480075EC1BF011C036F012C037F0D00E2B6ECB
:100A5800FF0E2C6E1DC0F6FF1EC0F7FF0800F550F4
:100A68002D6E2E6A2B502D262C502E222D503626D8
:100A78002E5037221D4A1E2A1DC0F6FF1EC0F7FF42
:100A88000800F550AFEC1BF0D8A008D0D1D706D09D
:100A980048D11BD0358E19D036D117D01DC0F6FFDE
:100AA8001EC0F7FF1D4A1E2A0800F5CF38F038503F
:100AB800000AD8B436D1640AD8B407D00D0AD8B41D
:100AC80004D0110AD8B4E6D71ED135BE15D030C02F
:100AD800D9FF31C0DAFFDECF33F0DDCF34F0020EBC
:100AE8003026000E312234AE4ED0030E3512336C50
:100AF800341ED8B0342A47D030C0D9FF31C0DAFF0D
:100B0800DECF33F0DDCF34F0020E3026000E312276
:100B18003AD0010E386E050E3818D8B43DD001D041
:100B28003BD03850020D660EF324F66EFE0EF4200C
:100B3800F76E0900F550335C0900F5503458D8A019
:100B48002BD001D029D0382AE6D726D0010E386E0E
:100B5800040E3818D8B420D001D01ED03850020D59
:100B6800700EF324F66EFE0EF420F76E0900F550B1
:100B7800335C0900F5503458D8A00ED001D00CD001
:100B8800382AE6D709D03550800B000AD8B4C1D727
:100B9800800AD8B4DBD700D036503710D8B40AD082
:100BA80035C02BF0030E2B16D8B404D03606D8A0C7
:100BB800370600D0800E38BE7F0E2B6E3650385C5C
:100BC8003750800A2B58D8B007D03850365E000E00
:100BD80038BEFF0E375A05D0000E376E000E366E3F
:100BE80000D035A41AD035C02BF0030E2B16D8B47C
:100BF80004D02D0E3AEC1DF000D036503710D8B482
:100C080026D0300E3AEC1DF03606D8A037063650FE
:100C18003710D8B41CD0F5D71AD036503710D8B4FE
:100C28000CD0200E3AEC1DF03606D8A03706365008
:100C38003710D8B402D0F5D700D035C02BF0030E4A
:100C48002B16D8B404D02D0E3AEC1DF000D038C0C5
:100C580032F053D045D03250020D660EF324F66EB2
:100C6800FE0EF420F76E0900F5CF13F00A00F5CF59
:100C780014F033C011F034C012F0D6EC17F011C0E4
:100C880018F012C019F0000E1B6E0A0E1A6E9BECBB
:100C980019F01850300F386E2CD033C011F034C012
:100CA80012F03250020D700EF324F66EFE0EF42090
:100CB800F76E0900F5CF13F00A00F5CF14F0D6EC63
:100CC80017F011500F0B2F6E2F50010D4D0EF324FE
:100CD800F66EFF0EF420F76E0800F5CF38F009D055
:100CE8003550800B000AD8B4B6D7800AD8B4D5D707
:100CF80000D038503AEC1DF000D032063228D8B473
:100D080002D0EED700D01DC0F6FF1EC0F7FF1D4A67
:100D18001E2A0800F5CF38F03850D8B402D05AD679
:100D280000D01200A8EC17F029EC03F0D7EC18F06B
:100D380075EC19F00001806900D044EC17F063509D
:100D480000018019D8B49FD063C080F02FEC1AF04E
:100D580028C04BF029C04CF030EC18F03BC0E7F04D
:100D68003CC0E8F03DC0E9F0C9EC1AF014C043F00B
:100D780015C044F043AE1DD043C056F144C057F1EE
:100D88000101561F571F564B572B800E010156273E
:100D9800000E57237F0E01015617000E5717010149
:100DA800561F571F564B572B56C143F057C144F097
:100DB80000D043C011F044C012F0000E146E090EAA
:100DC800136E75EC1BF011C020F012C021F0000E5C
:100DD800236E050E226E26EC14F0200E2024456E9C
:100DE800000E2120466E780E1D6EFE0E1E6E5FC030
:100DF8001FF0206A60C021F0226A63C023F0246AD1
:100E080061C025F0266A5CC027F0286A6EC029F008
:100E18002A6AE9EC04F0C40E1D6EFE0E1E6E43C075
:100E28001FF044C020F045C021F046C022F0E9EC94
:100E380004F0960E1D6EFE0E1E6E80AA04D00101EF
:100E4800566B562B02D00101566B010156511F6E8D
:100E5800206A4FC021F0226AE9EC04F0ED0E1D6E05
:100E6800FE0E1E6E4BC01FF04CC020F049C021F092
:100E78004AC022F0E9EC04F05BEC18F077EC1DF0C6
:100E88000EEC00F000D058EC16F0E806D8A42CD0F0
:100E9800000E0001F56F000EF46F17D02CEC1DF05A
:100EA800F1EC11F021D02CEC1DF01AEC13F01CD051
:100EB8002CEC1DF071EC14F017D02CEC1DF088EC24
:100EC8001CF012D033EC1DF00FD05E50000AD8B4DD
:100ED800E5D7010AD8B4E7D7030AD8B4E9D7070A8F
:100EE800D8B4EBD7EFD700D05004D8A426D7000E3B
:100EF800506E23D70CEF00F02E6E240E306E1E0EAF
:100F08002F6EC2D02F50440F236E190E246E020E7E
:100F1800256E000E276E000E266E3050020DF3501F
:100F28000E0FE6EC19F0440E236E190E246E020E15
:100F3800256E000E276E000E266E3050020DF350FF
:100F48000E0FE6EC19F0440E236E190E246E020EF5
:100F5800256E070E276E26680E0EE6EC19F0A8D04F
:100F6800440E236E190E246E020E256E000E276E97
:100F7800000E266E0E0EE6EC19F0440E236E190EC6
:100F8800246E020E256E070E276E266830500E0F4F
:100F9800E6EC19F08DD0440E236E190E246E020E65
:100FA800256E000E276E000E266E30500E0FE6ECF2
:100FB80019F0440E236E190E246E020E256E070ECC
:100FC800276E26683050020DF3500E0FE6EC19F02C
:100FD8006FD0440E236E190E246E020E256E000E7D
:100FE800276E000E266E3050020DF3500E0FE6EC01
:100FF80019F02F50440F236E190E246E020E256E21
:10100800070E276E26680E0EE6EC19F051D02F5009
:10101800440F236E190E246E020E256E000E276EE5
:10102800000E266E0E0EE6EC19F02F50440F236EBC
:10103800190E246E020E256E070E276E2668305094
:101048000E0FE6EC19F034D02F50440F236E190E12
:10105800246E020E256E000E276E000E266E30508E
:101068000E0FE6EC19F02F50440F236E190E246E64
:10107800020E256E070E276E26683050020DF350BB
:101088000E0FE6EC19F014D02E50000AD8B43AD757
:10109800010AD8B465D7030AD8B47DD7010AD8B4F1
:1010A80098D7070AD8B4B3D7010AD8B4CDD700D097
:1010B80012002E6E240E306E1E0E2F6EBFD0440E00
:1010C800236E190E246E020E256E000E276E000E7A
:1010D800266E30500E0FE6EC19F0440E236E190EF2
:1010E800246E020E256E070E276E26680E0EE6EC9D
:1010F80019F0B8D0440E236E190E246E020E256E18
:10110800000E276E000E266E3050020DF3500E0FA3
:10111800E6EC19F0440E236E190E246E020E256EAD
:10112800070E276E266830500E0FE6EC19F09AD09D
:10113800440E236E190E246E020E256E000E276EC5
:10114800000E266E0E0EE6EC19F02F50440F236E9B
:10115800190E246E020E256E000E276E000E266EE6
:101168000E0EE6EC19F0440E236E190E246E020ED4
:10117800256E070E276E26683050020DF3500E0FAD
:10118800E6EC19F06FD02F50440F236E190E246E21
:10119800020E256E000E276E000E266E30500E0FC2
:1011A800E6EC19F02F50440F236E190E246E020E30
:1011B800256E070E276E26680E0EE6EC19F052D043
:1011C8002F50440F236E190E246E020E256E000E4A
:1011D800276E000E266E3050020DF3500E0FE6EC0F
:1011E80019F02F50440F236E190E246E020E256E2F
:1011F800070E276E266830500E0FE6EC19F032D035
:10120800440E236E190E246E020E256E000E276EF4
:10121800000E266E0E0EE6EC19F02F50440F236ECA
:10122800190E246E020E256E070E276E26683050A2
:10123800020DF3500E0FE6EC19F014D02E50000AF0
:10124800D8B43DD7010AD8B455D7030AD8B470D753
:10125800010AD8B498D7070AD8B4B2D7010AD8B4C3
:10126800CFD700D0120020C024F021C025F0241EC2
:10127800251E244A252A010E24242A6E000E252024
:101288002B6E000E276E010E266E20C024F021C0A2
:1012980025F0D89024362536241E251E244A252AD2
:1012A80024C028F025C029F0000E2D6E000E2C6EEB
:1012B80020C02EF021C02FF01E502024186E22C00E
:1012C80019F023C01AF01C5033EC1BF02050000812
:1012D8001E24186E22C019F023C01AF01C5033ECDB
:1012E8001BF01EC018F022C019F023C01AF01C50C1
:1012F800202433EC1BF01EC018F022C019F023C0C4
:101308001AF0205000081C2433EC1BF078D02BBEB8
:101318000BD02E06D8A02F06020E2826000E292252
:1013280028502A2629502B222C4A2D2A020E2626FE
:10133800000E272226502A2627502B221E502E2404
:10134800186E22C019F023C01AF01C502C2433EC5C
:101358001BF01E502E24186E22C019F023C01AF05C
:101368002C5000081C2433EC1BF02E5000081E24BF
:10137800186E22C019F023C01AF01C502C2433EC2C
:101388001BF02E5000081E24186E22C019F023C02E
:101398001AF02C5000081C2433EC1BF01E502C248F
:1013A800186E22C019F023C01AF01C502E2433ECFA
:1013B8001BF01E502C24186E22C019F023C01AF0FE
:1013C8002E5000081C2433EC1BF02C5000081E245F
:1013D800186E22C019F023C01AF01C502E2433ECCA
:1013E8001BF02C5000081E24186E22C019F023C0D0
:1013F8001AF02E5000081C2433EC1BF000D02E509D
:101408002C5C2D50800A246E2F50800A2458D8A0B6
:101418007ED7120069C020F0216A000E236E0A0EE2
:10142800226E26EC14F02050300F0001A66F69C020
:1014380028F0296A000E2B6E0A0E2A6E17EC16F099
:101448002850300F0001A76F6AC020F0216A000EF3
:10145800236E0A0E226E26EC14F02050300F000185
:10146800A96F6AC028F0296A000E2B6E0A0E2A6E30
:1014780017EC16F02850300F0001AA6F6CC020F04E
:10148800216A000E236E0A0E226E26EC14F02050FC
:10149800300F0001AC6F6CC028F0296A000E2B6E6B
:1014A8000A0E2A6E17EC16F02850300F0001AD6FA7
:1014B8006BC020F0216A000E236E0A0E226E26EC05
:1014C80014F02050300F00019D6F6BC028F0296A7E
:1014D800000E2B6E0A0E2A6E17EC16F02850300FED
:1014E80000019E6F67C020F0216A000E236E0A0E6D
:1014F800226E26EC14F02050300F0001A06F67C058
:1015080028F0296A000E2B6E0A0E2A6E17EC16F0C8
:101518002850300F0001A16F6DC020F0216A000E25
:10152800236E0A0E226E26EC14F02050300F0001B4
:10153800A36F6DC028F0296A000E2B6E0A0E2A6E62
:1015480017EC16F02850300F0001A46F340E396ED6
:10155800A60E3A6E000E3B6E070E3D6E3C68000EFE
:101568003F6E000E3E6E020E406E0F0EBEEC0CF08B
:10157800520E396E9D0E3A6E000E3B6E070E3D6E92
:10158800E00E3C6E000E3F6E000E3E6E020E406E88
:101598000F0EBEEC0CF01200F2925250D8B4A5D047
:1015A800CE50CFCF01F0026A01C002F0016A0110EB
:1015B800476E0250486E000ECF6E000ECE6E95D06C
:1015C800000ECF6E000ECE6E9E90900ECD6ECD802A
:1015D800000E5A6E000E0001E36F000EE46F000E5D
:1015E800E56F000EE66F010E1FD0F18C8FD0350E1F
:1015F800475C210E4858D8A089D01C0E475C250EA0
:101608004858D8B083D0020E1FD0F19C7FD0A10ECD
:10161800475C0F0E4858D8A079D0880E475C130E47
:101628004858D8B073D0030E526EDFD76FD0910EE2
:10163800475C010E4858D8A069D0BC0E475C020E22
:101648004858D8B063D0040E526EDFD75FD0910EE1
:10165800475C010E4858D8A043D0080E475C070ED7
:101668004858D8B03DD0D8900001E3350001E36F69
:101678000001E4350001E46F0001E5350001E56F84
:101688000001E6350001E66FE90E475C030E485895
:10169800D8A014D0010E0001E3250001E36F000E6D
:1016A8000001E4210001E46F000E0001E5210001C2
:1016B800E56F000E0001E6210001E66F5A285A6E18
:1016C8001F0E5A640AD0000E0001F56F010EF46F68
:1016D800E4C051F0F298000E526E030E526E85D798
:1016E80073EC1DF082D781D711D05250000AD8B4BC
:1016F80067D7010AD8B47BD7030AD8B488D7010AB8
:10170800D8B495D7070AD8B4A2D700D01200366E3D
:10171800800E3660A6D09F0E2E6401D0A2D0345021
:10172800D8A403D0010E346E00D01F0E2F6404D04D
:101738007E0E2F6403D000D03F0E2F6E000E386E41
:10174800040E386401D08DD0530E2F6015D0E00EF2
:101758002F24116E126AFF0E1222000E146E050E4F
:10176800136E75EC1BF038501126000E12228B0EEA
:101778001124F66EFC0E14D0AD0E2F24116E126AD1
:10178800FF0E1222000E146E050E136E75EC1BF080
:1017980038501126000E12228A0E1124F66EFD0E04
:1017A8001220F76E0800F5CF35F000D0000E376E26
:1017B800060E376401D053D035A023D03404D8A402
:1017C8000CD02E503724186E30C019F031C01AF0E2
:1017D8003650382433EC1BF03ED037503402F350E7
:1017E8002E24236E34C024F034C025F030C026F0F7
:1017F80031C027F038503402F3503624E6EC19F0A3
:101808002AD03050321804E131503318D8B423D0DC
:101818003404D8A40CD02E503724186E32C019F0D6
:1018280033C01AF03650382433EC1BF014D037503C
:101838003402F3502E24236E34C024F034C025F033
:1018480032C026F033C027F038503402F350362423
:10185800E6EC19F000D0372AD8903532A9D7382AC3
:101868006FD71200010E24EC1DF0000E186E960EB4
:10187800176EAEEC18F0110E24EC1DF0010E186E68
:10188800F40E176EAEEC18F0B10E24EC1DF0010E3C
:101898001CEC1DF02C0E1CEC1DF02D0E1CEC1DF08C
:1018A800B20E24EC1DF0010E1CEC1DF02C0E1CECED
:1018B8001DF02D0E1CEC1DF0B30E24EC1DF0010ED6
:1018C8001CEC1DF02C0E1CEC1DF02D0E1CEC1DF05C
:1018D800010E1CEC1DF02C0E1CEC1DF02D0E1CEC4A
:1018E8001DF0B40E24EC1DF0070E1CEC1DF0C00E0C
:1018F80024EC1DF0A20E1CEC1DF0020E1CEC1DF0D9
:10190800840E1CEC1DF0C10E24EC1DF0C50E1CEC61
:101918001DF0C20E24EC1DF00A0E1CEC1DF0000E8A
:101928001CEC1DF0C30E24EC1DF08A0E1CEC1DF0FF
:101938002A0E1CEC1DF0C40E24EC1DF08A0E1CECC3
:101948001DF0EE0E1CEC1DF0C50E24EC1DF00E0E65
:101958001CEC1DF0200E24EC1DF0360E24EC1DF0BE
:10196800C80E1CEC1DF03A0E24EC1DF0050E1CEC04
:101978001DF0120001014A6F4AC150F139C04FF100
:101988003AC011F03BC012F06DEC1AF011C04BF1E7
:1019980012C04CF1000E01014E6F000E4D6F66D063
:1019A800000181510001D8B434D04050050D010127
:1019B8005051416E426AF3504126F450422242BED1
:1019C80028D0425004E1810E415CD8A022D0000EFC
:1019D8000101506F4050070DF35001014F25030FCF
:1019E80001014F6FA00E01014F6504D0A00E010147
:1019F8004F6F00D001014D513A24D96E01014E516B
:101A08003B20DA6E200EDE18D8B42CD002D02AD0B3
:101A180000D04FC12EF001014D513A24D96E010179
:101A28004E513B20DA6EDF502F6E3CC030F03DC087
:101A380031F03EC032F03FC033F040C034F0010115
:101A480050518BEC0BF04050060DF350010150251E
:101A58000101506F800E0101506504D0800E010114
:101A6800506F00D001014D4B4E2B00D001014B515E
:101A780001014D5D01014C5101014E59D8A090D78B
:101A88001200000E256E000E246EFEEC1BF04DC0F9
:101A980011F04EC012F0150E136EFF0E146E01EC0D
:101AA8001BF0010E396E4DC03AF04EC03BF0FF0EF0
:101AB8003D6E3C68000E3F6E000E3E6E010E406E9D
:101AC800010EBEEC0CF04DC011F04EC012F0880EA5
:101AD800136EFF0E146E01EC1BF0100E396E4DC024
:101AE8003AF04EC03BF0F80E3D6E1F0E3C6E000EF5
:101AF8003F6E000E3E6E020E406E040EBEEC0CF001
:101B08004DC011F04EC012F0B00E136EFF0E146EE1
:101B180001EC1BF0280E396E4DC03AF04EC03BF078
:101B2800000E3D6E1F0E3C6E000E3F6E000E3E6EA8
:101B3800010E406E320EBEEC0CF0440E236E190EF0
:101B4800246E020E256E070E276E26680E0EE6EC32
:101B580019F04DC011F04EC012F0DF0E136EFF0EDB
:101B6800146E01EC1BF0470E396E4DC03AF04EC0B2
:101B78003BF0F80E3D6E000E3C6E000E3F6E000E00
:101B88003E6E010E406E320EBEEC0CF01200000EDE
:101B9800256E000E246EFEEC1BF04DC011F04EC0F9
:101BA80012F03B0E136EFF0E146E01EC1BF0010ECB
:101BB800396E4DC03AF04EC03BF0FF0E3D6E3C68AA
:101BC800000E3F6E000E3E6E010E406E010EBEEC22
:101BD8000CF04DC011F04EC012F0C80E136EFF0E7F
:101BE800146E01EC1BF00B0E396E4DC03AF04EC06E
:101BF8003BF0F80E3D6E1F0E3C6E000E3F6E000E61
:101C08003E6E020E406E060EBEEC0CF04DC011F09A
:101C18004EC012F0D00E136EFF0E146E01EC1BF0C6
:101C28001A0E396E4DC03AF04EC03BF0F80E3D6EBC
:101C38001F0E3C6E000E3F6E000E3E6E020E406E92
:101C4800060EBEEC0CF04DC011F04EC012F0B00EF6
:101C5800136EFF0E146E01EC1BF0280E396E4DC08A
:101C68003AF04EC03BF0000E3D6E1F0E3C6E000E6B
:101C78003F6E000E3E6E010E406E320EBEEC0CF052
:101C8800440E236E190E246E020E256E070E276E63
:101C980026680E0EE6EC19F012001FC023F0246A25
:101CA800256A1E34233601E324802350266E2650ED
:101CB800D8A402D00ED06CD022C023F0246A256AA2
:101CC8002134233601E3248023502B6E2B50D8A4D3
:101CD80007D0000E1D6E000E1E6E000E1F6E58D02F
:101CE8002B507B0F26261FC02BF022502B1A800E5C
:101CF8002B161E8E218EFF0E2016FF0E2116000EAB
:101D08002216000E276E000E286E000E296E070E92
:101D18002A6E00D01DA007D0205027262150282247
:101D28002250292200D0D8901F321E321D32D8905E
:101D38002036213622362A2EEDD700D0090E2A6EFB
:101D480000D01DA007D0205027262150282222503D
:101D5800292200D0D8901F321E321D32D890293245
:101D6800283227322A2EEDD700D027C011F028C0FC
:101D780012F029C013F026C014F02BC015F056EC51
:101D880012F011C01DF012C01EF013C01FF000D0D9
:101D98001200000E256E000E246EFEEC1BF04DC0E6
:101DA80011F04EC012F0150E136EFF0E146E01ECFA
:101DB8001BF0010E396E4DC03AF04EC03BF0FF0EDD
:101DC8003D6E3C68000E3F6E000E3E6E010E406E8A
:101DD800010EBEEC0CF04DC011F04EC012F0940E86
:101DE800136EFF0E146E01EC1BF01A0E396E4DC007
:101DF8003AF04EC03BF0FF0E3D6EE00E3C6E000E1A
:101E08003F6E000E3E6E020E406E010EBEEC0CF0F0
:101E18004DC011F04EC012F0B50E136EFF0E146EC9
:101E280001EC1BF0290E396E4DC03AF04EC03BF064
:101E3800FF0E3D6EE00E3C6E000E3F6E000E3E6ED5
:101E4800020E406E010EBEEC0CF04DC011F04EC0FB
:101E580012F05E0E136EFF0E146E01EC1BF03C0EBA
:101E6800396E4DC03AF04EC03BF0070E3D6E3C68EF
:101E7800000E3F6E000E3E6E010E406E0F0EBEEC61
:101E88000CF01200E00E24EC1DF0020E1CEC1DF00C
:101E98001C0E1CEC1DF0070E1CEC1DF0120E1CECA9
:101EA8001DF0370E1CEC1DF0320E1CEC1DF0290E37
:101EB8001CEC1DF02D0E1CEC1DF0290E1CEC1DF069
:101EC800250E1CEC1DF02B0E1CEC1DF0390E1CEC25
:101ED8001DF0000E1CEC1DF0010E1CEC1DF0030E95
:101EE8001CEC1DF0100E1CEC1DF0E10E24EC1DF096
:101EF800030E1CEC1DF01D0E1CEC1DF0070E1CEC57
:101F08001DF0060E1CEC1DF02E0E1CEC1DF02C0E08
:101F18001CEC1DF0290E1CEC1DF02D0E1CEC1DF008
:101F28002E0E1CEC1DF02E0E1CEC1DF0370E1CECBA
:101F38001DF03F0E1CEC1DF0000E1CEC1DF0000EF9
:101F48001CEC1DF0020E1CEC1DF0100E1CEC1DF01C
:101F5800130E24EC1DF0000E186E0A0E176EAEEC70
:101F680018F0290E24EC1DF0000E186E640E176E82
:101F7800AEEC18F012002A50285C2950800A2C6E0A
:101F88002B50800A2C58D8A005D0000E4A6E000E9F
:101F9800496E68D028C02CF029C02DF02C1E2D1EAB
:101FA8002C4A2D2A2A502C242E6E2B502D202F6E91
:101FB8002FBE0BD02F5004E1330E2E5CD8A005D0D5
:101FC800000E4A6E640E496E00D02FBE13D02F50FB
:101FD80004E1190E2E5CD8A00DD02FBE06D02F50CC
:101FE80009E1320E2E5CD8B005D0D8902E34496E57
:101FF8002F344A6E2FBE27D02F5004E10A0E2E5CD4
:10200800D8A021D02FBE06D02F501DE1190E2E5C6E
:10201800D8B019D02EC011F02FC012F0000E146ED7
:10202800030E136E75EC1BF011C020F012C021F0E6
:10203800000E236E020E226E26EC14F020C049F02A
:1020480021C04AF000D02FBE0DD02FBE06D02F5091
:1020580009E10A0E2E5CD8B005D02EC049F02FC079
:102068004AF000D0120013C015F0166A176A12342D
:10207800153601E3168015501F6E1F50D8A402D0E4
:1020880039D063D0170E156E11C016F012C017F0B4
:1020980013C018F01528196E04D0D89018321732CA
:1020A8001632192EFAD716501A6E128EFF0E111606
:1020B800FF0E1216000E131611501B6E12501C6ED6
:1020C80013501D6E1E6A8E0E1F5E1FAE10D01F505D
:1020D800800A8F0FD8B003D00DD037D000D0D89059
:1020E8001E321D321C321B321F3EF9D719D0170E73
:1020F8001F6411D0000E116E000E126E000E136ECA
:10210800000E146E22D007D0D8901B361C361D3610
:102118001E361F0600D01F50D8B402D0F5D700D005
:102128001A50D8B409D01E1E1D1E1C1E1B6C000E92
:102138001C221D221E2200D01BC011F01CC012F050
:102148001DC013F01EC014F000D012002EC032F0D3
:10215800336A346A2D34323601E333803250396EB3
:102168003950D8A402D00ED061D031C032F0336AD1
:10217800346A3034323601E3338032503A6E3A50A2
:10218800D8A407D0000E2C6E000E2D6E000E2E6EF9
:102198004DD0000E366E000E376E000E386E3A5077
:1021A800890F395E2EC03AF031503A1A800E3A162D
:1021B8002D8EFF0E2C16FF0E2D16000E2E16308EAD
:1021C800FF0E2F16FF0E3016000E3116180E356E44
:1021D80000D0D8903636373638362F502C5C3050F1
:1021E8002D5831502E58D8A007D02F502C5E305083
:1021F8002D5A31502E5A3680D8902C362D362E3600
:10220800352EE7D700D036C011F037C012F038C0ED
:1022180013F039C014F03AC015F056EC12F011C0A2
:102228002CF012C02DF013C02EF000D01200236E37
:10223800800E236069D09F0E186401D065D0FF0E10
:102248001D6EFF0E1E6E195023C01FF0206A1F2638
:10225800000E20221D501F261E50202220BE0AD00C
:10226800205004E1800E1F5CD8A004D02350000841
:10227800800F196EFF0E1D6EFF0E1E6E1A5018C0CD
:102288001FF0206A1F26000E20221D501F261E50F8
:10229800202220BE0BD0205004E1A00E1F5CD8A045
:1022A80005D018500008A00F1A6E00D018C014F0FE
:1022B800235019241D6E1D04156E18501A241E6E05
:1022C8001E04166E23504EEC19F01C50216E1BC0D4
:1022D80022F0818A819C1AC018F01850D8B413D003
:1022E80001D011D019C023F02350D8B40AD001D09E
:1022F80008D02150BAEC1CF02250BAEC1CF023068E
:10230800F3D71806EAD7818C12009F0E1D6EFF0EB8
:102318001E6E64C01FF0206A65C021F0226A66C084
:1023280023F0246AE9EC04F064C020F0216A000E6E
:10233800236E0A0E226E26EC14F02050300F000196
:10234800946F64C028F0296A000E2B6E0A0E2A6E5C
:1023580017EC16F02850300F0001956F65C020F07B
:10236800216A000E236E0A0E226E26EC14F020500D
:10237800300F0001976F65500A0B300F0001986FFE
:1023880066C020F0216A000E236E0A0E226E26EC2B
:1023980014F02050300F00019A6F66C028F0296AA7
:1023A800000E2B6E0A0E2A6E17EC16F02850300F0E
:1023B80000019B6F340E396E940E3A6E000E3B6E20
:1023C800070E3D6E3C68000E3F6E000E3E6E020E1C
:1023D800406E0F0EBEEC0CF01200000E546E44EC72
:1023E80017F063504BEC1BF06C6E60504BEC1BF01D
:1023F8006A6E5F504BEC1BF0696E5C504BEC1BF047
:10240800676E61504BEC1BF06B6E6E504BEC1BF023
:102418006D6E45EC0DF00EEC0AF0010E0001FB6F3D
:102428003CD058EC16F0E806D8A437D0020E5E640B
:1024380031D0090E5E602ED02CEC1DF0030E5E1814
:10244800D8A403D041EC1CF000D0040E5E18D8A428
:1024580003D04DEC1CF000D0050E5E18D8A403D0B4
:1024680092EC1CF000D0060E5E18D8A403D003EC42
:1024780015F000D0070E5E18D8A403D0BBEC14F0FA
:1024880000D0080E5E18D8A403D004EC1DF000D0CC
:102498005E6803D033EC1DF000D00001FB05D8B412
:1024A800C0D712001450D8B405D011501210131010
:1024B800D8A40ED0000E116E000E126E000E136E10
:1024C80053D006D0142AD89013321232113200D0C9
:1024D800000E1114166E000E1214176EFE0E131451
:1024E800186E165017101810D8B40ED0EBD70CD0A1
:1024F800142A010E1126000E1222000E1322D89063
:1025080013321232113200D0000E1114166E000E62
:102518001214176EFF0E1314186E16501710181099
:10252800D8B408D0E5D706D01406D890113612369C
:10253800133600D012BE04D0020E1460F5D700D0B6
:1025480014B002D0129E00D0D89014321450131236
:102558001550D8B402D0138E00D011C011F012C09B
:1025680012F013C013F000D0120001014D6F040ED9
:10257800CB6E070ECA6E000E206E800E216E400EC6
:10258800226E01014D519CEC1BF019C01DF01AC0C0
:102598001EF01BC01FF051EC0EF01DC02CF01EC029
:1025A8002DF01FC02EF0000E2F6EA00E306E410EC3
:1025B800316EAAEC10F02CC04AF12DC04BF12EC0A0
:1025C8004CF14AC111F04BC112F04CC113F037EC79
:1025D80010F011C04EF112C04FF101014D513B6E88
:1025E8003C6A01014E513B5C3C50800A3D6E010142
:1025F8004F51800A3D58D8B004D001014E4B4F2BA3
:1026080000D04EC13BF0030E3B163B38F00B0C09D3
:10261800BD6E4EC13BF04FC13CF03C343C323B32C6
:102628003C343C323B323B50BE6E1200000E536EBF
:10263800010E0001F96F75EC19F059504BEC1BF0C5
:10264800596E58504BEC1BF0586E57504BEC1BF022
:10265800576E59C066F058C065F057C064F0CBECAF
:102668000DF089EC11F03CD058EC16F0E806D8A42F
:1026780037D0020E5E6431D0090E5E602ED02CEC8D
:102688001DF0030E5E18D8A403D059EC1CF000D03E
:10269800040E5E18D8A403D065EC1CF000D0050E1B
:1026A8005E18D8A403D071EC1CF000D0060E5E189A
:1026B800D8A403D027EC19F000D0070E5E18D8A4D0
:1026C80003D000EC19F000D0080E5E18D8A403D08F
:1026D80014EC1DF000D05E6803D033EC1DF000D080
:1026E8000001F905D8B4C0D71200680E1A6E070E9B
:1026F800176E0E0E186E18C014F01A501AEC1BF054
:10270800196E1950010B196E19502509196E18C048
:1027180013F019C014F01A50D0EC1BF0F2EC1CF0B6
:102728001A501A248CEC1AF017508CEC1AF07DEC25
:102738001CF0D8801A348CEC1AF0010E0BEC1AF04D
:10274800596E010E0BEC1AF0586E010E0BEC1AF0D4
:10275800576E000E0BEC1AF0566E59507F0B596EDF
:1027680058507F0B586E57507F0B576E5650800944
:10277800566EF2EC1CF01A501A248CEC1AF0175012
:102788008CEC1AF059508CEC1AF058508CEC1AF06A
:1027980057508CEC1AF056508CEC1AF0E9EC1CF0FF
:1027A800120068C020F0216A000E236E640E226EAB
:1027B80026EC14F020500001FD6F000E236E0A0E67
:1027C800226E68C020F0216A26EC14F020C028F0A0
:1027D80021C029F0000E2B6E0A0E2A6E17EC16F097
:1027E80028500001FE6F68C028F0296A000E2B6E81
:1027F8000A0E2A6E17EC16F028500001FF6F000130
:10280800FD51300F0001C86F0001FE51300F00016B
:10281800C96F0001FF51300F0001CA6F4A0E396EAF
:10282800C80E3A6E000E3B6EF80E3D6E000E3C6E02
:10283800000E3F6E000E3E6E020E406E280EBEEC7D
:102848000CF01200000E256E23AE07D0226C231E5A
:10285800D8B0232A010E256E00D021AE07D0206CF7
:10286800211ED8B0212A010E251A00D0000E276E8D
:10287800000E266E22502310D8B421D0010E246EEB
:1028880005D0D89022362336242A00D023BE02D081
:10289800F8D700D0D890263627362250205C23500F
:1028A8002158D8A006D02250205E2350215A2680D5
:1028B80000D0D89023322232242EECD700D02550D5
:1028C800D8B405D0266C271ED8B0272A00D026C039
:1028D80020F027C021F000D01200010E0001FA6F8D
:1028E8006FC068F0CDEC0EF0D5EC13F03BD0010EC4
:1028F8000101516F000E0101526F58EC16F00101F1
:1029080051195211D8A42ED0000E0001F56F000EF7
:10291800F46F040E5E6423D0090E5E6020D02CECA8
:102928001DF0050E5E18D8A403D0A6EC1CF000D04C
:10293800060E5E18D8A403D0B0EC1CF000D0070E29
:102948005E18D8A403D09CEC1CF000D0080E5E18CA
:10295800D8A403D00CEC1DF000D05E6803D033EC93
:102968001DF000D00001FA05D8B4C1D7120030D04C
:10297800692A180E6918D8A43FD0000E696E3CD099
:102988006A2A3C0E6A18D8A437D0000E6A6E34D072
:102998006C2A3C0E6C18D8A42FD0000E6C6E2CD06C
:1029A8006B2A0C0E6B18D8A427D0000E6B6E24D09F
:1029B800672A1F0E6718D8A41FD0000E676E1CD098
:1029C8006D2A640E6D18D8A417D0000E6D6E14D041
:1029D8005450000AD8B4CCD7010AD8B4D1D7030AC6
:1029E800D8B4D6D7010AD8B4DBD7070AD8B4E0D709
:1029F800010AD8B4E5D700D00EEC0AF0120030D0A6
:102A08006950D8A403D0170E696E3ED069063CD031
:102A18006A50D8A403D03B0E6A6E36D06A0634D00A
:102A28006C50D8A403D03B0E6C6E2ED06C062CD004
:102A38006B50D8A403D00C0E6B6E26D06B0624D036
:102A48006750D8A403D01F0E676E1ED067061CD02F
:102A58006D50D8A403D0640E6D6E16D06D0614D0D8
:102A68005450000AD8B4CCD7010AD8B4D1D7030A35
:102A7800D8B4D6D7010AD8B4DBD7070AD8B4E0D778
:102A8800010AD8B4E5D700D00EEC0AF01200680E9F
:102A9800356E000E366E6C5004EC18F02E50636ED6
:102AA8006A5004EC18F02E50606E695004EC18F06F
:102AB8002E505F6E010E5D6E675004EC18F02E50BC
:102AC8005C6E6B5004EC18F02E50616E6D5004EC87
:102AD80018F02E506E6EF2EC1CF0355035248CEC4C
:102AE8001AF036508CEC1AF063508CEC1AF06050E7
:102AF8008CEC1AF05F508CEC1AF05D508CEC1AF0EC
:102B08005C508CEC1AF061508CEC1AF06E508CEC26
:102B18001AF0E9EC1CF01200226E800E22603FD001
:102B28009F0E186401D03BD0FF0E1C6EFF0E1D6E69
:102B3800195018C01EF01F6A1E26000E1F221C50B6
:102B48001E261D501F221FBE0BD01F5004E1A00ED1
:102B58001E5CD8A005D018500008A00F196E00D030
:102B68001B50206E1AC021F018C014F022C015F0B6
:102B7800185019241C6E1C04166E22504EEC19F0C5
:102B8800818A819C07D02050BAEC1CF02150BAEC05
:102B98001CF000D019061928D8A4F5D7818C12008A
:102BA8000600EACF06F0E1CF07F0E2CF08F0D9CF70
:102BB80009F0DACF0AF0F3CF0BF0F4CF0CF0F6CF30
:102BC8000DF0F7CF0EF0F8CF0FF0F5CF10F09EA074
:102BD80003D04EEC1DF000D0F2A203D0D0EC0AF0E6
:102BE80000D0F0A003D06FEC1DF000D010C0F5FFAE
:102BF8000FC0F8FF0EC0F7FF0DC0F6FF0CC0F4FFC2
:102C08000BC0F3FF0AC0DAFF09C0D9FF08C0E2FF12
:102C180007C0E1FF06C0EAFF05C0E9FF04C0FBFFEB
:102C280003C0FAFF1100000E2D6E29AE07D0286CE4
:102C3800291ED8B0292A010E2D6E00D02BAE05D042
:102C48002A6C2B1ED8B02B2A00D02A502B10D8B4AF
:102C58001DD0010E2C6E05D0D8902A362B362C2A82
:102C680000D02BBE02D0F8D700D02A50285C2B50B9
:102C78002958D8A005D02A50285E2B50295A00D0B0
:102C8800D8902B322A322C2EF0D700D02D50D8B421
:102C980005D0286C291ED8B0292A00D028C028F0D1
:102CA80029C029F000D012000001F4050001F51137
:102CB800D8A438D0000E0001F56F000EF46FF2882A
:102CC800F19C5E68000E3B6E000E3A6E3BBE08D06B
:102CD8003B501BE1150E3A5CD8B017D001D015D087
:102CE8001F0E3A24D96E010E3B20DA6E5150DE18C1
:102CF800D8A407D03AC05EF0000E3B6E150E3A6EAF
:102D080000D03A4A3B2AE2D700D05E28D8A408D09F
:102D1800AE0E1D6EFE0E1E6EE9EC04F0000E02D023
:102D2800010E00D0120044EC17F05CC056F0680E9B
:102D3800356E070E366E645004EC18F02E50576E40
:102D4800655004EC18F02E50586E665004EC18F0DC
:102D58002E50596E59507F0B596E58507F0B586E34
:102D680057507F0B576E56508009566EF2EC1CF088
:102D7800355035248CEC1AF036508CEC1AF059503A
:102D88008CEC1AF058508CEC1AF057508CEC1AF066
:102D980056508CEC1AF0E9EC1CF0120000EEE3F04F
:102DA8001A0EEE6AE806FDE100EE43F02C0EEE6A1C
:102DB800E806FDE1820EF66E330EF76E000EF86E31
:102DC80001EE00F010EE4AF00900F5CFEEFFE550F5
:102DD800E150FAE1EC0EF66E2E0EF76E000EF86E6C
:102DE80000EE80F010EE63F00900F5CFEEFFE5503D
:102DF800E150FAE1F00EF66E3A0EF76E000EF86E3C
:102E08000900F5CF6FF0000EF86E000196EF06F09E
:102E1800136E000EAC6E000EAB6E13A002D0AC8821
:102E280000D013A203D0AC8CAB8C00D013A402D07A
:102E3800AC8E00D013A602D0AB8802D0AB8A00D0EB
:102E480013B8AC849E9813AA02D0AB8600D013ACFA
:102E580002D09D8A01D09D9A9E9A13AE02D09D8879
:102E680001D09D9811C0AFFF1250B06EAC8AAB8EE6
:102E7800949C948EACB8ACBE02D0948C00D0120056
:102E8800680E156E000E146EF2EC1CF01550152429
:102E98008CEC1AF014508CEC1AF07DEC1CF0D880F5
:102EA80015348CEC1AF0010E0BEC1AF0636E010E5F
:102EB8000BEC1AF0606E010E0BEC1AF05F6E010E4F
:102EC8000BEC1AF05D6E010E0BEC1AF05C6E010E45
:102ED8000BEC1AF0616E000E0BEC1AF06E6EE9EC5A
:102EE8001CF01200FF0130303A30303A30300030F8
:102EF800302F30302F30300030303A30303A3030E8
:102F08000030312F30312F30300030303A30303A05
:102F180030300030303A30303A303000302E3030F7
:102F280056003037354600303030300030373546BF
:102F3800004F464600303030004F4646002B3235B1
:102F4800002B373700300000C4EC1CF041EC1DF0BA
:102F5800700ED36E0E0EC16E220E926E030E936E1D
:102F6800010E946E000E956E000E966E000E846E25
:102F7800000E4F6EF19E000EB26E030EB16EA00EE3
:102F8800116E860E126E010E136E000E146E54EC46
:102F98001DF0EFEC1BF0E0EC1BF027EC1CF04B0EE7
:102FA8006F6E1200000E166E000E156E1350141080
:102FB800D8B421D0010E176E05D0D8901336143628
:102FC800172A00D014BE02D0F8D700D0D8901536F2
:102FD80016361350115C14501258D8A006D013504E
:102FE800115E1450125A158000D0D8901432133242
:102FF800172EECD700D015C011F016C012F0120031
:10300800346E34C020F0216A000E236E0A0E226E40
:1030180026EC14F020C030F021C031F0303A313ABB
:10302800F00E311630500F0B3112F00E301634C03E
:1030380028F0296A000E2B6E0A0E2A6E17EC16F07D
:1030480028503024326E29503120336E32C02EF091
:1030580033C02FF000D0120089EC1BF011C041F0F2
:1030680012C042F041C011F042C012F0000E146EBE
:10307800050E136E75EC1BF011C019F012C01AF092
:10308800ABEC1AF019C02CF01AC02DF01BC02EF0B2
:10309800000E2F6E800E306E440E316EAAEC10F0CA
:1030A8002CC03EF02DC03FF02EC040F0120045C0AD
:1030B80028F046C029F06FC02AF02B6ABFEC0FF049
:1030C80028C049F029C04AF04950B9EC12F02FEC59
:1030D8001AF028C03EF029C03FF049C028F04AC085
:1030E80029F0E7EC1AF03EC028F03FC029F085EC43
:1030F80018F04F04D8A402D0808802D0809800D05D
:10310800120021EE34F010EE2AF00D0EDBCFE3FFB3
:10311800E806FCE229BE05D0295005E12804D8B00C
:1031280002D0000E14D028C020F029C021F0010ED2
:10313800236EF40E226E26EC14F0D8902036213639
:103148002A0E2024D96E000E2120DA6EDF50846EFC
:1031580000D0120017C011F018C012F0000E146E43
:103168007D0E136E75EC1BF011C01BF012C01CF025
:103178001BC019F01CC01AF0191E1A1E194A1A2A67
:10318800FF0E19241B6EFF0E1A201C6E030ED56E3F
:103198001BC0D6FF1C50D76EF294D58E00D0F2A477
:1031A800FED7D59E1200680E1F6E0E0E1B6E0F0EF8
:1031B8001C6E1BC014F01F501AEC1BF01D6E1D5026
:1031C800FE0B1D6E1BC013F01DC014F01F50D0EC79
:1031D8001BF01CC014F01F501AEC1BF01E6E1E5082
:1031E800FE0B1E6E1CC013F01EC014F01F50D0EC56
:1031F8001BF079EC13F0120018D0642A180E64182A
:10320800D8A41ED0000E646E1BD0652A3C0E65182B
:10321800D8A416D0000E656E13D0662A3C0E661828
:10322800D8A40ED0000E666E0BD05350000AD8B446
:10323800E4D7010AD8B4E9D7030AD8B4EED700D046
:1032480089EC11F0120018D06450D8A403D0170EDE
:10325800646E1DD064061BD06550D8A403D03B0E05
:10326800656E15D0650613D06650D8A403D03B0E02
:10327800666E0DD066060BD05350000AD8B4E4D75A
:10328800010AD8B4E9D7030AD8B4EED700D089EC3C
:1032980011F01200176E2A0E24EC1DF0000E1CEC23
:1032A8001DF017505B241CEC1DF0000E1CEC1DF0EB
:1032B80015505B241CEC1DF02B0E24EC1DF0000EA9
:1032C8001CEC1DF0145062241CEC1DF0000E1CECCC
:1032D8001DF0165062241CEC1DF02C0E24EC1DF081
:1032E8001200680E156E070E146EF2EC1CF01550E5
:1032F80015248CEC1AF014508CEC1AF07DEC1CF0B0
:10330800D88015348CEC1AF0010E0BEC1AF0596EBB
:10331800010E0BEC1AF0586E010E0BEC1AF0576EFA
:10332800000E0BEC1AF0566EE9EC1CF012001A5065
:103338001B10D8B41DD0010E1C6E05D0D8901A36BB
:103348001B361C2A00D01BBE02D0F8D700D01A505A
:10335800185C1B501958D8A005D01A50185E1B507D
:10336800195A00D0D8901B321A321C2EF0D700D030
:1033780018C018F019C019F012002045434533331E
:1033880030314C2053702732322053312000000056
:10339800000000000000000000A262E22202C2E079
:1033A800A8906898B030187A10385A424A520100EA
:1033B80003000200040005000600070000010203E4
:1033C800040506072B6E2BC02CF02D6A0ED023C0E7
:1033D80018F025C019F026C01AF027C01BF02C5091
:1033E80090EC15F02C4A2D2A00D024502BC028F040
:1033F800296A2826000E292228502C5C2D50800A84
:103408002A6E2950800A2A58D8A0E1D71200116ED6
:103418006BEC1DF0000E126E070E126401D00FD077
:1034280048EC1DF083AE03D0D880133604D0135077
:103438001324136E00D067EC1DF0122AEDD711503B
:10344800D8B403D0FBEC1CF003D059EC1DF000D02D
:10345800135000D01200B2CF20F0216A000E236E64
:10346800020E226E26EC14F020C02AF021C02BF0A8
:10347800000EB26E2AC011F02BC012F0000E146EAE
:103488003C0E136E75EC1BF011C028F012C029F029
:1034980000D012002A0E24EC1DF0000E1CEC1DF0CA
:1034A800000E1CEC1DF0000E1CEC1DF07F0E1CEC39
:1034B8001DF02B0E24EC1DF0000E1CEC1DF0000E70
:1034C8001CEC1DF0000E1CEC1DF09F0E1CEC1DF0FA
:1034D800120011C015F012C016F003D0154A162AB2
:1034E80000D015C0D9FF16C0DAFFDF50D8A4F6D730
:1034F80011C013F012C014F0131E141E134A142A1C
:1035080015501324116E16501420126E00D012009C
:10351800116E000E126E070E126401D011D011AE9A
:1035280003D06BEC1DF003D05EEC1DF000D048EC2E
:103538001DF067EC1DF011501124116E122AEBD703
:103548006BEC1DF048EC1DF067EC1DF01200000E4E
:103558001C6E1AAE07D0196C1A1ED8B01A2A010EA2
:103568001C6E00D019C011F01AC012F0136A8E0E2A
:10357800146E1CC015F056EC12F011C019F012C0F0
:103588001AF013C01BF000D01200480E186EAA0ED5
:10359800166EF2EC1CF0185018248CEC1AF0165029
:1035A8008CEC1AF07DEC1CF0D88018348CEC1AF0F6
:1035B800000E0BEC1AF0176EE9EC1CF017C014F0B3
:1035C800156A00D0120029BE09D0295004E1460E20
:1035D800285CD8A003D0835007090CD028C020F05D
:1035E80029C021F0000E236E0A0E226E26EC14F07C
:1035F80020508310836E00D0120011C015F012C045
:1036080016F005D0154A162A134A142A00D013C0FA
:10361800F6FF14C0F7FF15C0D9FF16C0DAFF08007F
:10362800F5CFDFFFDF50D8A4EDD71200166EF2EC0D
:103638001CF0165016248CEC1AF014508CEC1AF06E
:103648007DEC1CF0D88016348CEC1AF0000E0BECD4
:103658001AF0156EE9EC1CF0155000D012001B6E24
:10366800800E1B6013D09F0E186401D00FD018C0B5
:1036780014F01B28156E1828166E1B504EEC19F006
:103688001A501CEC1DF019501CEC1DF01200156EA0
:1036980015C011F00F0E111615C012F0123A0F0EC8
:1036A800121612500A0D1150F324136E000EF42056
:1036B800146E135000D01200818C819A800EC76E50
:1036C800300EC66E36EC0CF04EEC1AF046EC0FF0ED
:1036D800360E24EC1DF0C00E1CEC1DF0010E556ECC
:1036E800120011501302F3CF15F0F4CF16F0115059
:1036F8001402F350162612501302F350162615C062
:1037080011F016C012F000D01200C28200D0C2B26E
:10371800FED7C450146E136AC3501324156E000EDE
:103728001420166E15C011F016C012F000D0120049
:103738001C6E1C50116E126A136A8E0E146E000EE7
:10374800156E56EC12F011C019F012C01AF013C021
:103758001BF000D01200136E000E126E3A0E1360AA
:1037680006D02F0E136403D0010E126E00D012C0C3
:1037780011F0113000D01200156EF2EC1CF015504B
:1037880015248CEC1AF013508CEC1AF014508CECB5
:103798001AF0E9EC1CF01200156EF2EC1CF0155052
:1037A80015248CEC1AF013508CEC1AF014508CEC95
:1037B8001AF0E9EC1CF01200F292F090F288F08610
:1037C800F19CF19A000ECF6E000ECE6E9E909D80F9
:1037D800F28CF28E1200480E166EAC0E136E020EAC
:1037E800146E1650C0EC1BF0EE0E136E165034EC2F
:1037F8001CF01200000E186E800E196EA00E1A6EC4
:1038080024C01BF025C01CF0000E1BEC11F01200A8
:10381800000E126E000E116E800E125CD8B005D02C
:1038280001D003D0114A122AF7D71200280E1D6EB4
:10383800FF0E1E6EE9EC04F0010E4F6E4950B9EC14
:1038480012F080881200010E1D6EFF0E1E6EE9EC4C
:1038580004F0000E4F6E000EB9EC12F080981200C2
:10386800146EF2EC1CF0145014248CEC1AF0135063
:103878008CEC1AF0E9EC1CF012005450D8A403D0D8
:10388800050E546E02D0540600D054505DEC08F07A
:103898001200542A060E5418D8A403D0000E546EF1
:1038A80000D0545080EC07F012005350D8A403D035
:1038B800020E536E02D0530600D053505DEC08F050
:1038C8001200532A030E5318D8A403D0000E536EC7
:1038D80000D0535080EC07F0120097EC16F075EC0E
:1038E80019F044EC17F029EC03F0000E0001F96F11
:1038F800120067EC1DF06BEC1DF048EC1DF05EEC5F
:103908001DF067EC1DF012004F50D8A403D01AEC3C
:103918001CF003D027EC1CF000D012004BEC15F083
:1039280044EC17F029EC03F0000E0001FB6F1200C5
:10393800682A780E686403D0780E686E00D0D5ECDB
:1039480013F0120068C06FF044EC17F029EC03F094
:10395800000E0001FA6F12006806320E686003D08C
:10396800320E686E00D0D5EC13F01200126E9E96DF
:10397800C9CF11F012C0C9FF00D0C7A0FED71200EE
:10398800000E126E190E116E3C0E0CEC17F0700E34
:10399800D36E12008292000E186E640E176EAEEC93
:1039A80018F082821200F90ECB6E050ECA6E7C0EDC
:1039B800BB6E3C0EBA6E1200F90ECB6E070ECA6EC5
:1039C8007C0EBB6E3C0EBA6E120067EC1DF05EEC0E
:1039D8001DF048EC1DF06BEC1DF012006BEC1DF0B7
:1039E80048EC1DF05EEC1DF067EC1DF012005EEC7B
:1039F8001DF048EC1DF067EC1DF06BEC1DF012009B
:103A080044EC17F029EC03F0000E0001FB6F1200E4
:103A180044EC17F029EC03F0000E0001FA6F1200D5
:103A280044EC17F029EC03F0000E0001F96F1200C6
:103A3800136E819C818A1350BAEC1CF0818C1200A1
:103A4800136E819C819A1350BAEC1CF0818C120081
:103A5800D7EC1CF00CEC1CF063EC1DF01200E0EC51
:103A68001CF00CEC1CF063EC1DF01200116E00D081
:103A7800ACA2FED711C0ADFF1200010EC26E0E0E31
:103A8800C16EA90EC06E12009388060EE82EFED7EE
:103A980000D01200000E526EF19CCD909E90120044
:103AA80048EC1DF06BEC1DF0120048EC1DF067ECC3
:103AB8001DF01200839E959E00D000D01200000ECB
:103AC800BA6E819612008198939800D01200958E54
:103AD80000D000D01200F090010E506E1200000EBF
:0A3AE800526ECD90120012004B0048
:10FC8A0000000000000000005F00000007000700FD
:10FC9A00147F147F14242A7F2A12231308646236DD
:10FCAA00495620500008070300001C224100004169
:10FCBA00221C002A1C7F1C2A08083E0808008070A3
:10FCCA0030000808080808000060600020100804D6
:10FCDA00023E5149453E00427F4000724949494629
:10FCEA002141494D331814127F1027454545393CA7
:10FCFA004A49493141211109073649494936464994
:10FD0A0049291E00001400000040340000000814B5
:10FD1A00224114141414140041221408020159092E
:10FD2A00063E415D594E7C1211127C7F4949493683
:10FD3A003E414141227F4141413E7F494949417FFC
:10FD4A00090909013E414151737F0808087F0041B2
:10FD5A007F41002040413F017F081422417F4040FB
:10FD6A0040407F021C027F7F0408107F3E414141D0
:10FD7A003E7F090909063E4151215E7F091929463C
:10FD8A00264949493203017F01033F4040403F1F52
:10FD9A002040201F3F4038403F6314081463030487
:10FDAA007804036159494D43007F414141020408E7
:10FDBA001020004141417F040201020440404040BA
:10FDCA0040000307080020545478407F28444438F0
:10FDDA003844444428384444287F3854545418003A
:10FDEA00087E090218A4A49C787F080404780044B9
:10FDFA007D40002040403D007F1028440000417FA4
:10FE0A0040007C047804787C08040478384444442C
:10FE1A0038FC1824241818242418FC7C0804040824
:10FE2A00485454542404043F44243C4040207C1C3D
:10FE3A002040201C3C4030403C44281028444C9030
:10FE4A0090907C4464544C4400083641000000778A
:10FE5A0000000041360800020102040201000A0003
:10FE6A006400E8031027010010000001001025308B
:10FE7A0032783A253032783A2530327820253032B5
:10FE8A00782F253032782F2530327800616C6172F4
:10FE9A006D203D20256420486561746572203D20EF
:10FEAA002564200043616E6E6F742066696E64205B
:10FEBA00627574746F6E200D0A002054656D70208F
:10FECA003D2025642043203D202564204620002033
:10FEDA00454345333330314C205370273232205357
:10FEEA0078000052504D203D202564202064632074
:10FEFA003D2025640D0A0046616E206973207475E1
:10FF0A00726E6564206F66660D0A00454345333399
:10FF1A0030314C2053702732322053310000466171
:10FF2A006E206973207475726E6564206F6E0D0A97
:10FF3A0000454345333330314C2053702732322049
:10FF4A0053310030313233343536373839616263F0
:10FF5A00646566005365742048656174657220544F
:10FF6A00656D700054656D70657261747572653A7D
:10FF7A0000485452205365742054656D70005469CA
:10FF8A006D652053657475700000202048656174A2
:10FF9A00657200200025783A25783A25780D0A00FE
:10FFAA00416C61726D2054696D650020205365743F
:10FFBA007570002000416C61726D2053570020203B
:10FFCA00416C61726D00202053657475700048544D
:10FFDA0052205357004461746500566F6C74004F89
:10FFEA004E20004F46460052504D00432F004443D6
:06FFFA0000524D00000062
:020000040020DA
:08000000FFFFFFFFFFFFFFFF00
:020000040030CA
:0E000000FF08191EFF8281FF0FC00FE00F40A6
:00000001FF
