:0400000000EF6EF0AF
:10D91C00000EBA6E81961200010EC26E0E0EC16E12
:10D92C00A90EC06E1200036E829282900350BBEC63
:10D93C006CF082821200036E829282800350BBECE8
:10D94C006CF082821200F90ECB6E050ECA6E4A0E76
:10D95C00BB6E3C0EBA6E12008294000E086E640E02
:10D96C00076E1EEC6FF082841200026E9E96C9CF79
:10D97C0001F002C0C9FF00D0C7A0FED71200000EF4
:10D98C00026E190E016E3C0E7AEC6FF0600ED36EC7
:10D99C0012001F0E926E000E936E000E946E000E0F
:10D9AC00956E000E966E1200030ED56EDB0ED66EC3
:10D9BC000B0ED76EF294D58E00D0F2A4FED7D59E66
:10D9CC001200000E086E800E096EA00E0A6E14C0B6
:0ED9DC000BF015C00CF0000E68EC73F012009A
:10D9EB00013030003030003030003030003030004B
:10D9FB003030004400300030003000300044003044
:10DA0B00003000C28200D0C2B2FED7C450046E03F5
:10DA1B006AC3500324056E000E0420066E05C00178
:10DA2B00F006C002F000D0120001500302F3CF0544
:10DA3B00F0F4CF06F001500402F350062602500317
:10DA4B0002F350062605C001F006C002F000D0120A
:10DA5B000082828290800EC76E300EC66E2FEC75E0
:10DA6B00F0E1EC6DF0B6EC74F0360E99EC6CF0C0A6
:10DA7B000EA1EC6CF0010E776E12003D6E3DC03EB8
:10DA8B00F03E50D8B40BD001D009D03EC03AF07A5A
:10DA9B0050FEEC76F0F3EC6FF03E06F2D7000E3A48
:10DAAB006E7A50FEEC76F012000B6E800E0B60134C
:10DABB00D09F0E086401D00FD008C004F00B2805CE
:10DACB006E0828066E0B50CEEC6EF00A50A1EC6C73
:10DADB00F00950A1EC6CF0120001C005F002C00679
:10DAEB00F005D0054A062A034A042A00D003C0F6E3
:10DAFB00FF04C0F7FF05C0D9FF06C0DAFF0800F529
:10DB0B00CFDFFFDF50D8A4EDD712003E6E3D043FB0
:10DB1B006E3F50D8B40BD001D009D03FC03AF03E85
:10DB2B00503EEC72F0BCEC70F03F06F2D7000E3AB0
:10DB3B006E3E503EEC72F0BCEC70F01200000E0C1E
:10DB4B006E0AAE07D0096C0A1ED8B00A2A010E0C59
:10DB5B006E00D009C001F00AC002F0036A8E0E04F9
:10DB6B006E0CC005F0A0EC72F001C009F002C00A07
:10DB7B00F003C00BF000D0120001C005F002C0068C
:10DB8B00F003D0054A062A00D005C0D9FF06C0DA3B
:10DB9B00FFDF50D8A4F6D701C003F002C004F00396
:10DBAB001E041E034A042A05500324016E0650046A
:10DBBB0020026E00D012002A0E99EC6CF0000EA120
:10DBCB00EC6CF0000EA1EC6CF0000EA1EC6CF07F95
:10DBDB000EA1EC6CF02B0E99EC6CF0000EA1EC6C22
:10DBEB00F0000EA1EC6CF0000EA1EC6CF09F0EA1FE
:10DBFB00EC6CF0120000EE80F01F0EEE6AE806FDF2
:10DC0B00E100EE65F0170EEE6AE806FDE1EB0EF6AD
:10DC1B006ED90EF76E000EF86E00EE42F010EE238A
:10DC2B00F00900F5CFEEFFE550E150FAE1000EF8F8
:10DC3B006E0001EAEF71F0366E020E7A6E36C0336B
:10DC4B00F07A509DEC79F00AD0819801D0818881CF
:10DC5B009A13D0819801D08188818A0ED0365000DA
:10DC6B000AD8B4F2D7010AD8B4F1D7030AD8B4F161
:10DC7B00D7010AD8B4F0D700D01200366E030E7A53
:10DC8B006E36C033F07A509DEC79F00AD084920155
:10DC9B00D08482849413D0849201D0848284840EA5
:10DCAB00D03650000AD8B4F2D7010AD8B4F1D70352
:10DCBB000AD8B4F1D7010AD8B4F0D700D012003685
:10DCCB006E000E7A6E36C033F07A509DEC79F00A06
:10DCDB00D0809A01D0808A819013D0809A01D08015
:10DCEB008A81800ED03650000AD8B4F2D7010AD8F8
:10DCFB00B4F1D7030AD8B4F1D7010AD8B4F0D700DE
:10DD0B00D01200366E010E7A6E36C033F07A509D0B
:10DD1B00EC79F00AD0819201D08182819413D08169
:10DD2B009201D0818281840ED03650000AD8B4F291
:10DD3B00D7010AD8B4F1D7030AD8B4F1D7010AD85E
:10DD4B00B4F0D700D012001B6E1BC01CF01D6A0E66
:10DD5B00D013C008F015C009F016C00AF017C00B9D
:10DD6B00F01C5034EC70F01C4A1D2A00D014501BD0
:10DD7B00C018F0196A1826000E192218501C5C1DC9
:10DD8B0050800A1A6E1950800A1A58D8A0E1D7127F
:10DD9B0000076E2A0E99EC6CF0000EA1EC6CF007EC
:10DDAB00507824A1EC6CF0000EA1EC6CF0055078CF
:10DDBB0024A1EC6CF02B0E99EC6CF0000EA1EC6C2A
:10DDCB00F004507B24A1EC6CF0000EA1EC6CF0067F
:10DDDB00507B24A1EC6CF02C0E99EC6CF012002F04
:10DDEB005000082D24086ED8802F34096E31C00ADC
:10DDFB00F032C00BF02B5034EC70F02BC013F02C26
:10DE0B00C014F02DC015F02EC016F02FC017F03037
:10DE1B00C018F0000E1A6E030E196E000E1C6E0069
:10DE2B000E1B6E31C01DF032C01EF0B7EC75F01238
:10DE3B000007C001F008C002F0000E046EFA0E03DA
:10DE4B006E1AEC6DF001C00BF002C00CF00BC009A8
:10DE5B00F00CC00AF0091E0A1E094A0A2AFF0E0915
:10DE6B00240B6EFF0E0A200C6EB80EB16E0BC0D6D3
:10DE7B00FF0C50D76EA192B18000D0A1A2FED7B1FA
:10DE8B0090120015C008F017C009F01BC00AF01C57
:10DE9B00C00BF0135078EC70F0155019241D6E1D4B
:10DEAB0004086E17C009F01BC00AF01CC00BF0135E
:10DEBB005078EC70F015C008F019C009F01BC00ABF
:10DECB00F01CC00BF0135034EC70F015C008F019B7
:10DEDB00C009F01BC00AF01CC00BF0135017241D17
:10DEEB006E1D0434EC70F01200036E000EAC6E006D
:10DEFB000EAB6E03A002D0AC8800D003A203D0AC53
:10DF0B008CAB8C00D003A402D0AC8E00D003A60245
:10DF1B00D0AB8802D0AB8A00D003B8AC849E9803F8
:10DF2B00AA02D0AB8600D003AC02D09D8A01D09D53
:10DF3B009A9E9A03AE02D09D8801D09D9801C0AFE6
:10DF4B00FF0250B06EAC8AAB8E949C948EACB8AC86
:10DF5B00BE02D0948C00D01200000E066E02AE07EB
:10DF6B00D0016C021ED8B0022A010E066E00D0043E
:10DF7B00AE05D0036C041ED8B0042A00D0035004A5
:10DF8B0010D8B41DD0010E056E05D0D89003360401
:10DF9B0036052A00D004BE02D0F8D700D0035001BA
:10DFAB005C04500258D8A005D00350015E04500207
:10DFBB005A00D0D89004320332052EF0D700D00689
:10DFCB0050D8B405D0016C021ED8B0022A00D00183
:10DFDB00C001F002C002F000D01200838E6CC001B1
:10DFEB00F06DC002F0FD0E036EFF0E046E72EC6D51
:10DFFB00F00A0E296E6CC02AF06DC02BF0FF0E2DAF
:10E00B006E2C68000E2F6E000E2E6E010E306E7889
:10E01B000ED6EC73F0DAEC6CF0839E6CC001F06DF5
:10E02B00C002F0FB0E036EFF0E046E72EC6DF00A75
:10E03B000E296E6CC02AF06DC02BF0FF0E2D6E2CCE
:10E04B0068000E2F6E000E2E6E010E306E780ED6FF
:10E05B00EC73F0DAEC6CF094EC78F01200126E804A
:10E06B000E12603FD09F0E086401D03BD0FF0E0C08
:10E07B006EFF0E0D6E095008C00EF00F6A0E2600D3
:10E08B000E0F220C500E260D500F220FBE0BD00F71
:10E09B005004E1A00E0E5CD8A005D008500008A0DB
:10E0AB000F096E00D00B50106E0AC011F008C0049F
:10E0BB00F012C005F0085009240C6E0C04066E1209
:10E0CB0050CEEC6EF08280829207D01050BBEC6C7D
:10E0DB00F01150BBEC6CF000D009060928D8A4F560
:10E0EB00D782821200126E800E12603FD09F0E08F4
:10E0FB006401D03BD0FF0E0C6EFF0E0D6E0950125B
:10E10B00C00EF00F6A0E26000E0F220C500E260DBD
:10E11B00500F220FBE0BD00F5004E1800E0E5CD8B7
:10E12B00A005D012500008800F096E00D00B5010C4
:10E13B006E0AC011F008C004F0125009240C6E0CCA
:10E14B0004056E08C006F01250CEEC6EF082808291
:10E15B009207D01050BBEC6CF01150BBEC6CF00084
:10E16B00D009060928D8A4F5D782821200838E6CB9
:10E17B00C001F06DC002F0FD0E036EFF0E046E7257
:10E18B00EC6DF00A0E296E6CC02AF06DC02BF0FFFF
:10E19B000E2D6E2C68000E2F6E000E2E6E010E30A3
:10E1AB006E780ED6EC73F0A9EC6CF0DAEC6CF083B5
:10E1BB009E6CC001F06DC002F0FB0E036EFF0E04EF
:10E1CB006E72EC6DF00A0E296E6CC02AF06DC02BCE
:10E1DB00F0FF0E2D6E2C68000E2F6E000E2E6E01B2
:10E1EB000E306E780ED6EC73F08EEC6CF0DAEC6CC5
:10E1FB00F094EC78F0120003AE17D001C007F002D8
:10E20B00C008F003C009F0071E081E091E072A00EC
:10E21B000E08220922000E0724016E000E082002B0
:10E22B006E800E0920036E00D006AE17D004C00717
:10E23B00F005C008F006C009F0071E081E091E07EE
:10E24B002A000E08220922000E0724046E000E0875
:10E25B0020056E800E0920066E00D0000E011A00FC
:10E26B000E021A800E031A000E041A000E051A80F5
:10E27B000E061A0450015C0550025806500358D87C
:10E28B00B002D0D89002D0D88000D01200000E0679
:10E29B006E04AE07D0036C041ED8B0042A010E0620
:10E2AB006E00D002AE07D0016C021ED8B0022A015C
:10E2BB000E061A00D0000E086E000E076E035004F7
:10E2CB0010D8B421D0010E056E05D0D890033604BA
:10E2DB0036052A00D004BE02D0F8D700D0D890075C
:10E2EB003608360350015C04500258D8A006D00300
:10E2FB0050015E0450025A078000D0D890043203BC
:10E30B0032052EECD700D00650D8B405D0076C08D8
:10E31B001ED8B0082A00D007C001F008C002F000D8
:10E32B00D01200000E696E000E686E819E4E0E5567
:10E33B006E010E87EC6EF0010E21EC6EF0010E43B8
:10E34B00EC6EF0020E65EC6EF0080E43EC6DF00314
:10E35B000E65EC6EF0030E43EC6DF0010E65EC6E8A
:10E36B00F080A410D0020E43EC6EF0060E43EC6D61
:10E37B00F0030E43EC6EF0030E43EC6DF0010E4315
:10E38B00EC6EF000D0020E21EC6EF0080E43EC6D3B
:10E39B00F0030E21EC6EF0030E43EC6DF0010E2139
:10E3AB00EC6EF080A210D0020E87EC6EF0060E43DE
:10E3BB00EC6DF0030E87EC6EF0030E43EC6DF00189
:10E3CB000E87EC6EF000D01200CFEC6CF092EC6C80
:10E3DB00F0C5EC6CF0700ED36E4EEC7BF007EC6D71
:10E3EB00F001C040F002C041F040C001F041C0025A
:10E3FB00F0000E046E050E036E1AEC6DF001C009F1
:10E40B00F002C00AF0A4EC6DF009C00DF00AC00ECA
:10E41B00F00BC00FF0000E106E800E116E440E123A
:10E42B006E45EC74F00DC065F00EC066F00FC06762
:10E43B00F065C001F066C002F067C003F0000E0487
:10E44B006E200E056E400E066E01EC71F0D8B00218
:10E45B00D0010E01D0000E746E00D07450D8B403EE
:10E46B00D003EC73F0FAD797EC71F0F7D700EF000D
:10E47B00F03B6E57D03AC001F0026A000E046E0AF0
:10E48B000E036E4CEC71F00150300F526E3AC0011E
:10E49B00F0026A000E046E0A0E036EB2EC6FF0010E
:10E4AB0050300F536E1E0E296E520E2A6E000E2B1D
:10E4BB006E000E2D6E1F0E2C6E000E2F6E000E2E8C
:10E4CB006E020E306E020ED6EC73F033D03AC001F2
:10E4DB00F0026A000E046E0A0E036E4CEC71F00132
:10E4EB0050300F4F6E3AC001F0026A000E046E0AF4
:10E4FB000E036EB2EC6FF00150300F506E5A0E29B6
:10E50B006E4F0E2A6E000E2B6E070E2D6E2C6800B2
:10E51B000E2F6E000E2E6E020E306E020ED6EC73A8
:10E52B00F008D03B50000AD8B4A5D7020AD8B4CE15
:10E53B00D700D012000450D8B405D00150021003FC
:10E54B0010D8A40ED0000E016E000E026E000E034A
:10E55B006E53D006D0042AD8900332023201320017
:10E56B00D0000E0114066E000E0214076EFE0E0391
:10E57B0014086E065007100810D8B40ED0EBD70C49
:10E58B00D0042A010E0126000E0222000E0322D80F
:10E59B009003320232013200D0000E0114066E00DD
:10E5AB000E0214076EFF0E0314086E0650071008B8
:10E5BB0010D8B408D0E5D706D00406D8900136029F
:10E5CB0036033600D002BE04D0020E0460F5D7002D
:10E5DB00D004B002D0029E00D0D890043204500375
:10E5EB00120550D8B402D0038E00D001C001F00246
:10E5FB00C002F003C003F000D01200000E696E01E0
:10E60B000E686E818E440E556E020E65EC6EF00137
:10E61B000E87EC6EF0010E21EC6EF0010E43EC6EEA
:10E62B00F080A606D0070E3D6E000E8BEC6DF00051
:10E63B00D0020E65EC6EF0090E43EC6DF0030E6527
:10E64B00EC6EF0030E43EC6DF0010E65EC6EF0809A
:10E65B00A410D0020E43EC6EF0060E43EC6DF003EB
:10E66B000E43EC6EF0030E43EC6DF0010E43EC6EBB
:10E67B00F000D0020E21EC6EF080A805D00A0E3D02
:10E68B006E020E8BEC6DF0070E43EC6DF0030E215A
:10E69B00EC6EF0030E43EC6DF0010E21EC6EF0808E
:10E6AB00A210D0020E87EC6EF0060E43EC6DF00359
:10E6BB000E87EC6EF0030E43EC6DF0010E87EC6EE3
:10E6CB00F000D01200136E800E136069D09F0E08FD
:10E6DB006401D065D0FF0E0D6EFF0E0E6E09501348
:10E6EB00C00FF0106A0F26000E10220D500F260ED1
:10E6FB0050102210BE0AD0105004E1800E0F5CD8CF
:10E70B00A004D013500008800F096EFF0E0D6EFF92
:10E71B000E0E6E0A5008C00FF0106A0F26000E1076
:10E72B00220D500F260E50102210BE0BD01050048D
:10E73B00E1A00E0F5CD8A005D008500008A00F0A6E
:10E74B006E00D008C004F0135009240D6E0D0405A3
:10E75B006E08500A240E6E0E04066E1350CEEC6E2D
:10E76B00F00C50116E0BC012F0828082920AC0081E
:10E77B00F00850D8B413D001D011D009C013F01346
:10E78B0050D8B40AD001D008D01150BBEC6CF012A9
:10E79B0050BBEC6CF01306F3D70806EAD782821253
:10E7AB0000356E35C039F029C038F02AC001F02B86
:10E7BB00C002F0C2EC6DF001C033F002C034F000C7
:10E7CB000E376E000E366E54D04250D8B42CD0306B
:10E7DB0050050D3950316E326AF3503126F45032F8
:10E7EB002232BE21D0325004E1810E315CD8A01B05
:10E7FB00D0000E396E3050070DF3503824030F380C
:10E80B006EA00E386403D0A00E386E00D036502A9E
:10E81B0024D96E37502B20DA6E200EDE18D8B42593
:10E82B00D002D023D000D038C01EF036502A24D9C5
:10E83B006E37502B20DA6EDF501F6E2CC020F02D60
:10E84B00C021F02EC022F02FC023F030C024F039AD
:10E85B005053EC76F03050060DF3503924396E805E
:10E86B000E396403D0800E396E00D0364A372A0039
:10E87B00D03350365C34503758D8A0A6D712000F7F
:10E88B00C013F0146A156A0E34133601E3148013A7
:10E89B00501A6E1A50D8A402D00ED061D012C013E9
:10E8AB00F0146A156A1134133601E3148013501BEC
:10E8BB006E1B50D8A407D0000E0D6E000E0E6E000E
:10E8CB000E0F6E4DD0000E176E000E186E000E1947
:10E8DB006E1B50890F1A5E0FC01BF012501B1A8053
:10E8EB000E1B160E8EFF0E0D16FF0E0E16000E0FC4
:10E8FB0016118EFF0E1016FF0E1116000E121618A3
:10E90B000E166E00D0D89017361836193610500DDB
:10E91B005C11500E5812500F58D8A007D010500D44
:10E92B005E11500E5A12500F5A1780D8900D360E9A
:10E93B00360F36162EE7D700D017C001F018C002DD
:10E94B00F019C003F01AC004F01BC005F0A0EC7264
:10E95B00F001C00DF002C00EF003C00FF000D0129A
:10E96B0000E00E99EC6CF0020EA1EC6CF01C0EA109
:10E97B00EC6CF0070EA1EC6CF0120EA1EC6CF03706
:10E98B000EA1EC6CF0320EA1EC6CF0290EA1EC6C2C
:10E99B00F02D0EA1EC6CF0290EA1EC6CF0250EA164
:10E9AB00EC6CF02B0EA1EC6CF0390EA1EC6CF000C2
:10E9BB000EA1EC6CF0010EA1EC6CF0030EA1EC6C53
:10E9CB00F0100EA1EC6CF0E10E99EC6CF0030EA1C3
:10E9DB00EC6CF01D0EA1EC6CF0070EA1EC6CF006CC
:10E9EB000EA1EC6CF02E0EA1EC6CF02C0EA1EC6CCD
:10E9FB00F0290EA1EC6CF02D0EA1EC6CF02E0EA1FB
:10EA0B00EC6CF02E0EA1EC6CF0370EA1EC6CF03F21
:10EA1B000EA1EC6CF0000EA1EC6CF0000EA1EC6CF6
:10EA2B00F0020EA1EC6CF0100EA1EC6CF0130E9931
:10EA3B00EC6CF0000E086E0A0E076E1EEC6FF029E0
:10EA4B000E99EC6CF0000E086E640E076E1EEC6FE8
:10EA5B00F01200010E99EC6CF0000E086E960E078A
:10EA6B006E1EEC6FF0110E99EC6CF0010E086EF44B
:10EA7B000E076E1EEC6FF0B10E99EC6CF0010EA14F
:10EA8B00EC6CF02C0EA1EC6CF02D0EA1EC6CF0B23A
:10EA9B000E99EC6CF0010EA1EC6CF02C0EA1EC6C51
:10EAAB00F02D0EA1EC6CF0B30E99EC6CF0010EA1F5
:10EABB00EC6CF02C0EA1EC6CF02D0EA1EC6CF001BB
:10EACB000EA1EC6CF02C0EA1EC6CF02D0EA1EC6CED
:10EADB00F0B40E99EC6CF0070EA1EC6CF0C00E9933
:10EAEB00EC6CF0A20EA1EC6CF0020EA1EC6CF084BD
:10EAFB000EA1EC6CF0C10E99EC6CF0C50EA1EC6C98
:10EB0B00F0C20E99EC6CF00A0EA1EC6CF0000EA1A9
:10EB1B00EC6CF0C30E99EC6CF08A0EA1EC6CF02A45
:10EB2B000EA1EC6CF0C40E99EC6CF08A0EA1EC6C9F
:10EB3B00F0EE0EA1EC6CF0C50E99EC6CF00E0EA184
:10EB4B00EC6CF0200E99EC6CF0360E99EC6CF0C876
:10EB5B000EA1EC6CF03A0E99EC6CF0050EA1EC6C7E
:10EB6B00F0120017C01FF018C020F01F1E201E1F30
:10EB7B004A202A010E1F24256E000E2020266E002F
:10EB8B000E226E010E216E17C01FF018C020F0D898
:10EB9B00901F3620361F1E201E1F4A202A1FC023FF
:10EBAB00F020C024F0000E286E000E276E17C0292F
:10EBBB00F018C02AF067D026BE0BD02906D8A02AA1
:10EBCB0006020E2326000E2422235025262450262F
:10EBDB0022274A282A020E2126000E222221502506
:10EBEB00262250262219A025D029500008152408CA
:10EBFB006E295029241B241F6E1F28096E1DC00A65
:10EC0B00F01EC00BF01350272434EC70F02750008B
:10EC1B00081524086E275027241B241F6E1F280954
:10EC2B006E1DC00AF01EC00BF01350292434EC707B
:10EC3B00F000D019A227D0295000081524086E29FE
:10EC4B005029241B241F6E1F28096E1DC00AF01E9D
:10EC5B00C00BF027500008132434EC70F027500041
:10EC6B00081524086E275027241B241F6E1F280904
:10EC7B006E1DC00AF01EC00BF0295000081324347F
:10EC8B00EC70F000D02950275C2850800A1F6E2AA8
:10EC9B0050800A1F58D8A08FD71200266E800E26E0
:10ECAB0060A6D09F0E1E6401D0A2D02450D8A4031E
:10ECBB00D0010E246E00D01F0E1F6404D07E0E1FD9
:10ECCB006403D000D03F0E1F6E000E286E040E287A
:10ECDB006401D08DD0530E1F6015D0E00E1F2401A0
:10ECEB006E026AFF0E0222000E046E050E036E1AF0
:10ECFB00EC6DF028500126000E0222BB0E0124F60B
:10ED0B006EFD0E14D0AD0E1F24016E026AFF0E02B3
:10ED1B0022000E046E050E036E1AEC6DF0285001E6
:10ED2B0026000E0222BA0E0124F66EFE0E0220F70A
:10ED3B006E0800F5CF25F000D0000E276E060E27CB
:10ED4B006401D053D025A023D02404D8A40CD01E0A
:10ED5B00502724086E20C009F021C00AF026502845
:10ED6B00245AEC6DF03ED027502402F3501E24138E
:10ED7B006E24C014F024C015F020C016F021C0176B
:10ED8B00F028502402F3502624A9EC6EF02AD02050
:10ED9B0050221804E121502318D8B423D02404D8CE
:10EDAB00A40CD01E502724086E22C009F023C00AE1
:10EDBB00F0265028245AEC6DF014D027502402F37F
:10EDCB00501E24136E24C014F024C015F022C0165C
:10EDDB00F023C017F028502402F3502624A9EC6E20
:10EDEB00F000D0272AD8902532A9D7282A6FD7121E
:10EDFB00003B6EAED03AC001F0026A000E046E0A00
:10EE0B000E036E4CEC71F00150300F4C6E3AC0019A
:10EE1B00F0026A000E046E0A0E036EB2EC6FF00184
:10EE2B0050300F4D6E1E0E296E4C0E2A6E000E2B9F
:10EE3B006E000E2D6E1F0E2C6E000E2F6E000E2E02
:10EE4B006E020E306E640ED6EC73F090D03AC001A9
:10EE5B00F0026A000E046E0A0E036E4CEC71F001A8
:10EE6B0050300F496E3AC001F0026A000E046E0A70
:10EE7B000E036EB2EC6FF00150300F4A6E3C0E2950
:10EE8B006E490E2A6E000E2B6EF80E2D6E1F0E2C79
:10EE9B006E000E2F6E000E2E6E020E306E640ED6AE
:10EEAB00EC73F064D03AC001F0026A000E046E0AF3
:10EEBB000E036E4CEC71F00150300F466E3AC001F0
:10EECB00F0026A000E046E0A0E036EB2EC6FF001D4
:10EEDB0050300F476E5A0E296E460E2A6E000E2BBF
:10EEEB006E070E2D6E2C68000E2F6E000E2E6E020E
:10EEFB000E306E640ED6EC73F039D03AC001F002CE
:10EF0B006A000E046E0A0E036E4CEC71F001503069
:10EF1B000F436E3AC001F0026A000E046E0A0E0334
:10EF2B006EB2EC6FF00150300F446E780E296E43C9
:10EF3B000E2A6E000E2B6EFF0E2D6E2C68000E2F00
:10EF4B006E000E2E6E020E306E640ED6EC73F00E4B
:10EF5B00D03B50000AD8B44ED7010AD8B477D703A8
:10EF6B000AD8B4A0D7010AD8B4C8D700D012001061
:10EF7B00C014F011C015F0141E151E144A152A01E9
:10EF8B000E14241A6E000E15201B6E000E176E0148
:10EF9B000E166E10C014F011C015F0D89014361563
:10EFAB0036141E151E144A152A14C018F015C01954
:10EFBB00F0000E1D6E000E1C6E10C01EF011C01F57
:10EFCB00F00E501024086E12C009F013C00AF00C9A
:10EFDB00505AEC6DF0105000080E24086E12C00948
:10EFEB00F013C00AF00C505AEC6DF00EC008F01282
:10EFFB00C009F013C00AF00C5010245AEC6DF00E3F
:10F00B00C008F012C009F013C00AF0105000080C31
:10F01B00245AEC6DF078D01BBE0BD01E06D8A01F67
:10F02B0006020E1826000E192218501A2619501B0C
:10F03B00221C4A1D2A020E1626000E172216501AE3
:10F04B002617501B220E501E24086E12C009F013F7
:10F05B00C00AF00C501C245AEC6DF00E501E240804
:10F06B006E12C009F013C00AF01C5000080C245A91
:10F07B00EC6DF01E5000080E24086E12C009F01340
:10F08B00C00AF00C501C245AEC6DF01E5000080EF8
:10F09B0024086E12C009F013C00AF01C5000080CB3
:10F0AB00245AEC6DF00E501C24086E12C009F0139C
:10F0BB00C00AF00C501E245AEC6DF00E501C2408A4
:10F0CB006E12C009F013C00AF01E5000080C245A2F
:10F0DB00EC6DF01C5000080E24086E12C009F013E2
:10F0EB00C00AF00C501E245AEC6DF01C5000080E98
:10F0FB0024086E12C009F013C00AF01E5000080C51
:10F10B00245AEC6DF000D01E501C5C1D50800A146C
:10F11B006E1F50800A1458D8A07ED71200000E3CE8
:10F12B006E3C50040DF328C26E07EC6DF001C03A33
:10F13B00F002C03BF03AC001F03BC002F0000E04FD
:10F14B006E050E036E1AEC6DF001C009F002C00AD9
:10F15B00F0A4EC6DF009C00DF00AC00EF00BC00F5F
:10F16B00F0000E106E800E116E440E126E45EC7494
:10F17B00F00DC065F00EC066F00FC067F065C00102
:10F18B00F066C002F067C003F0000E046E600E055F
:10F19B006E400E066E01EC71F0D8B002D0010E017C
:10F1AB00D0000E746E000E80B6010E766E000E80CF
:10F1BB00B2010E756E000E80B8010E736E000E80DC
:10F1CB00B4010E726E7650D8A402D0300E01D0313D
:10F1DB000E636E7550D8A402D0300E01D0310E6183
:10F1EB006E7350D8A402D0300E01D0310E5D6E720A
:10F1FB0050D8A402D0300E01D0310E5B6E7450D8B3
:10F20B00A402D04E0E01D0440E5F6E00D00A0E2920
:10F21B006E550E2A6E000E2B6EFF0E2D6E2C680097
:10F22B000E2F6E000E2E6E010E306E230ED6EC736B
:10F23B00F00A0E296E570E2A6E000E2B6EFF0E2D46
:10F24B006E2C68000E2F6E000E2E6E010E306E4669
:10F25B000ED6EC73F00A0E296E590E2A6E000E2B89
:10F26B006EFF0E2D6E2C68000E2F6E000E2E6E0193
:10F27B000E306E640ED6EC73F0950E296E630E2A6B
:10F28B006E000E2B6EFF0E2D6E2C68000E2F6E0077
:10F29B000E2E6E010E306E060ED6EC73F0950E2907
:10F2AB006E610E2A6E000E2B6EFF0E2D6E2C6800FB
:10F2BB000E2F6E000E2E6E010E306E200ED6EC73DE
:10F2CB00F0950E296E5D0E2A6E000E2B6EFF0E2D25
:10F2DB006E2C68000E2F6E000E2E6E010E306E3AE5
:10F2EB000ED6EC73F0950E296E5B0E2A6E000E2B6C
:10F2FB006EFF0E2D6E2C68000E2F6E000E2E6E0103
:10F30B000E306E570ED6EC73F0950E296E5F0E2AEB
:10F31B006E000E2B6EFF0E2D6E2C68000E2F6E00E6
:10F32B000E2E6E010E306E700ED6EC73F012003492
:10F33B006E34501E0DF350230F356E3350D8A46727
:10F34B00D0000E2C6E280E2B6E35C02DF02E6A00C1
:10F35B000E306E070E2F6E000E326E000E316EF5F4
:10F36B00EC6EF0000E2C6E3C0E2B6E35C02DF02E7D
:10F37B006A000E306E070E2F6E000E326E000E31CD
:10F38B006EF5EC6EF0000E2C6E500E2B6E35C02D04
:10F39B00F02E6A000E306E070E2F6E000E326E00CE
:10F3AB000E316EF5EC6EF0000E0D6E280E0C6E35F8
:10F3BB00C00EF00F6A000E116E070E106EF80E13D2
:10F3CB006E000E126EBDEC77F0000E0D6E3C0E0C47
:10F3DB006E35C00EF00F6A000E116E070E106EFF29
:10F3EB000E136EE00E126EBDEC77F0000E0D6E502C
:10F3FB000E0C6E35C00EF00F6A000E116E070E105C
:10F40B006E070E136EE00E126EBDEC77F000D0336C
:10F41B0004D8A467D0000E2C6E280E2B6E35C02D91
:10F42B00F02E6A000E306E070E2F6EF80E326E0045
:10F43B000E316EF5EC6EF0000E2C6E3C0E2B6E3515
:10F44B00C02DF02E6A000E306E070E2F6E000E329E
:10F45B006E000E316EF5EC6EF0000E2C6E500E2B16
:10F46B006E35C02DF02E6A000E306E070E2F6E001B
:10F47B000E326E000E316EF5EC6EF0000E0D6E2836
:10F48B000E0C6E35C00EF00F6A000E116E070E10CB
:10F49B006EF80E136E000E126EBDEC77F0000E0DB3
:10F4AB006E3C0E0C6E35C00EF00F6A000E116E071F
:10F4BB000E106EFF0E136EE00E126EBDEC77F000A9
:10F4CB000E0D6E500E0C6E35C00EF00F6A000E1145
:10F4DB006E070E106E070E136EE00E126EBDEC77FC
:10F4EB00F000D0030E3318D8A467D0000E2C6E2872
:10F4FB000E2B6E35C02DF02E6A000E306E070E2FC0
:10F50B006E000E326E000E316EF5EC6EF0000E2CAE
:10F51B006E3C0E2B6E35C02DF02E6A000E306E0732
:10F52B000E2F6EFF0E326EE00E316EF5EC6EF000AC
:10F53B000E2C6E500E2B6E35C02DF02E6A000E3039
:10F54B006E070E2F6E000E326E000E316EF5EC6EE6
:10F55B00F0000E0D6E280E0C6E35C00EF00F6A000B
:10F56B000E116E070E106EF80E136E000E126EBD9E
:10F57B00EC77F0000E0D6E3C0E0C6E35C00EF00FDE
:10F58B006A000E116E070E106EFF0E136EE00E1258
:10F59B006EBDEC77F0000E0D6E500E0C6E35C00E7E
:10F5AB00F00F6A000E116E070E106E070E136EE051
:10F5BB000E126EBDEC77F000D0020E3318D8A46794
:10F5CB00D0000E2C6E280E2B6E35C02DF02E6A003F
:10F5DB000E306E070E2F6E000E326E000E316EF572
:10F5EB00EC6EF0000E2C6E3C0E2B6E35C02DF02EFB
:10F5FB006A000E306E070E2F6E000E326E000E314B
:10F60B006EF5EC6EF0000E2C6E500E2B6E35C02D81
:10F61B00F02E6A000E306E070E2F6E070E326EE064
:10F62B000E316EF5EC6EF0000E0D6E280E0C6E3575
:10F63B00C00EF00F6A000E116E070E106EF80E134F
:10F64B006E000E126EBDEC77F0000E0D6E3C0E0CC4
:10F65B006E35C00EF00F6A000E116E070E106EFFA6
:10F66B000E136EE00E126EBDEC77F0000E0D6E50A9
:10F67B000E0C6E35C00EF00F6A000E116E070E10D9
:10F68B006E070E136EE00E126EBDEC77F000D0120B
:10F69B0000B2EC6CF02EEC6DF0000E156E000E143B
:10F6AB006EE7EC6CF0800E6C6E000E6D6E6CC00134
:10F6BB00F06DC002F0960E036EFF0E046E72EC6DD1
:10F6CB00F0020E296E6CC02AF06DC02BF0FF0E2DD0
:10F6DB006E2C68000E2F6E000E2E6E010E306E0219
:10F6EB000ED6EC73F06CC001F06DC002F0E50E03AA
:10F6FB006EFF0E046E72EC6DF00A0E296E6CC02A52
:10F70B00F06DC02BF0FF0E2D6E2C68000E2F6E00CF
:10F71B000E2E6E010E306E020ED6EC73F00A0E2911
:10F72B006E550E2A6E000E2B6EFF0E2D6E2C680082
:10F73B000E2F6E000E2E6E010E306E230ED6EC7356
:10F74B00F06CC001F06DC002F0EB0E036EFF0E0407
:10F75B006E72EC6DF00A0E296E6CC02AF06DC02B28
:10F76B00F0FF0E2D6E2C68000E2F6E000E2E6E010C
:10F77B000E306E320ED6EC73F00A0E296E570E2A2F
:10F78B006E000E2B6EFF0E2D6E2C68000E2F6E0072
:10F79B000E2E6E010E306E460ED6EC73F06CC00161
:10F7AB00F06DC002F0EF0E036EFF0E046E72EC6D87
:10F7BB00F00A0E296E6CC02AF06DC02BF0FF0E2DD7
:10F7CB006E2C68000E2F6E000E2E6E010E306E50DA
:10F7DB000ED6EC73F00A0E296E570E2A6E000E2B06
:10F7EB006EFF0E2D6E2C68000E2F6E000E2E6E010E
:10F7FB000E306E640ED6EC73F06CC001F06DC0026F
:10F80B00F0FD0E036EFF0E046E72EC6DF00A0E2906
:10F81B006E6CC02AF06DC02BF0FF0E2D6E2C6800A5
:10F82B000E2F6E000E2E6E010E306E780ED6EC7310
:10F83B00F06CC001F06DC002F0C10E036EFF0E0440
:10F84B006E72EC6DF0140E296E6CC02AF06DC02B2D
:10F85B00F0000E2D6E1F0E2C6E000E2F6E000E2E56
:10F86B006E010E306E1E0ED6EC73F0000E146E1E73
:10F87B000E136E000E166E1B0E156E000E186E3CE0
:10F88B000E176E000E1A6E120E196E000E1C6E1FE6
:10F89B000E1B6E47EC6FF0000E0D6E280E0C6E00FB
:10F8AB000E0F6E230E0E6E000E116E070E106EF8FD
:10F8BB000E136E000E126EBDEC77F0000E0D6E3C4B
:10F8CB000E0C6E000E0F6E230E0E6E000E116E07D9
:10F8DB000E106EFF0E136EE00E126EBDEC77F00085
:10F8EB000E2C6E500E2B6E000E2E6E230E2D6E00F8
:10F8FB000E306E070E2F6E070E326EE00E316EF568
:10F90B00EC6EF01E0E296E4C0E2A6E000E2B6E0046
:10F91B000E2D6E1F0E2C6E000E2F6E000E2E6E0215
:10F92B000E306E640ED6EC73F06CC001F06DC0023D
:10F93B00F0D70E036EFF0E046E72EC6DF0320E29D3
:10F94B006E6CC02AF06DC02BF0F80E2D6E1F0E2CB6
:10F95B006E000E2F6E000E2E6E010E306E1E0ED62A
:10F96B00EC73F0000E146E1E0E136E000E166E3935
:10F97B000E156E000E186E3C0E176E000E1A6E12E0
:10F98B000E196EF80E1C6E1F0E1B6E47EC6FF000FF
:10F99B000E2C6E280E2B6E000E2E6E410E2D6E0051
:10F9AB000E306E070E2F6EF80E326E000E316EF5A6
:10F9BB00EC6EF0000E0D6E3C0E0C6E000E0F6E41D9
:10F9CB000E0E6E000E116E070E106EFF0E136EE014
:10F9DB000E126EBDEC77F0000E0D6E500E0C6E001D
:10F9EB000E0F6E410E0E6E000E116E070E106E078F
:10F9FB000E136EE00E126EBDEC77F03C0E296E49C5
:10FA0B000E2A6E000E2B6EF80E2D6E1F0E2C6E0036
:10FA1B000E2F6E000E2E6E020E306E640ED6EC7331
:10FA2B00F06CC001F06DC002F0CD0E036EFF0E0442
:10FA3B006E72EC6DF0500E296E6CC02AF06DC02BFF
:10FA4B00F0070E2D6E2C68000E2F6E000E2E6E0121
:10FA5B000E306E1E0ED6EC73F0000E146E1E0E13CF
:10FA6B006E000E166E570E156E000E186E3C0E17AE
:10FA7B006E000E1A6E120E196E070E1C6E1B684767
:10FA8B00EC6FF0000E2C6E280E2B6E000E2E6E5FA0
:10FA9B000E2D6E000E306E070E2F6EF80E326E00AE
:10FAAB000E316EF5EC6EF0000E0D6E3C0E0C6E0012
:10FABB000E0F6E5F0E0E6E000E116E070E106EFFA8
:10FACB000E136EE00E126EBDEC77F0000E0D6E5045
:10FADB000E0C6E000E0F6E5F0E0E6E000E116E078B
:10FAEB000E106E070E136EE00E126EBDEC77F05A11
:10FAFB000E296E460E2A6E000E2B6E070E2D6E2CE7
:10FB0B0068000E2F6E000E2E6E020E306E640ED637
:10FB1B00EC73F06CC001F06DC002F0DE0E036EFFF3
:10FB2B000E046E72EC6DF06E0E296E6CC02AF06DC9
:10FB3B00C02BF0FF0E2D6E2C68000E2F6E000E2EBC
:10FB4B006E010E306E1E0ED6EC73F0000E146E1E90
:10FB5B000E136E000E166E750E156E000E186E3CA3
:10FB6B000E176E000E1A6E120E196EFF0E1C6E1B08
:10FB7B006847EC6FF0000E2C6E280E2B6E000E2ECD
:10FB8B006E7D0E2D6E000E306E070E2F6EF80E3240
:10FB9B006E000E316EF5EC6EF0000E0D6E3C0E0C21
:10FBAB006E000E0F6E7D0E0E6E000E116E070E1098
:10FBBB006EFF0E136EE00E126EBDEC77F0000E0DA5
:10FBCB006E500E0C6E000E0F6E7D0E0E6E000E1133
:10FBDB006E070E106E070E136EE00E126EBDEC77F5
:10FBEB00F0780E296E430E2A6E000E2B6EFF0E2D33
:10FBFB006E2C68000E2F6E000E2E6E020E306E6491
:10FC0B000ED6EC73F06CC001F06DC002F0F30E0376
:10FC1B006EFF0E046E72EC6DF0140E296E6CC02A22
:10FC2B00F06DC02BF0000E2D6E1F0E2C6E000E2FE4
:10FC3B006E000E2E6E010E306E030ED6EC73F01EA0
:10FC4B000E296E520E2A6E000E2B6E000E2D6E1F9D
:10FC5B000E2C6E000E2F6E000E2E6E020E306E02EC
:10FC6B000ED6EC73F05A0E296E4F0E2A6E000E2B29
:10FC7B006E070E2D6E2C68000E2F6E000E2E6E0270
:10FC8B000E306E020ED6EC73F06CC001F06DC0023C
:10FC9B00F0F70E036EFF0E046E72EC6DF0500E2932
:10FCAB006E6CC02AF06DC02BF0070E2D6E2C680009
:10FCBB000E2F6E000E2E6E010E306E030ED6EC73F1
:10FCCB00F06CC001F06DC002F0AC0E036EFF0E04C1
:10FCDB006E72EC6DF08C0E296E6CC02AF06DC02B21
:10FCEB00F0FF0E2D6E2C68000E2F6E000E2E6E0187
:10FCFB000E306E010ED6EC73F0950E296E630E2A44
:10FD0B006E000E2B6EFF0E2D6E2C68000E2F6E00EC
:10FD1B000E2E6E010E306E060ED6EC73F0950E297C
:10FD2B006E610E2A6E000E2B6EFF0E2D6E2C680070
:10FD3B000E2F6E000E2E6E010E306E200ED6EC7353
:10FD4B00F0950E296E5D0E2A6E000E2B6EFF0E2D9A
:10FD5B006E2C68000E2F6E000E2E6E010E306E3A5A
:10FD6B000ED6EC73F0950E296E5B0E2A6E000E2BE1
:10FD7B006EFF0E2D6E2C68000E2F6E000E2E6E0178
:10FD8B000E306E570ED6EC73F0950E296E5F0E2A61
:10FD9B006E000E2B6EFF0E2D6E2C68000E2F6E005C
:10FDAB000E2E6E010E306E700ED6EC73F01200003C
:10FDBB00000000000000005F0000000700070014B7
:10FDCB007F147F14242A7F2A122313086462364976
:10FDDB005620500008070300001C2241000041225E
:10FDEB001C002A1C7F1C2A08083E08080080703063
:10FDFB0000080808080800006060002010080402D2
:10FE0B003E5149453E00427F4000724949494621D7
:10FE1B0041494D331814127F1027454545393C4A4B
:10FE2B004949314121110907364949493646494962
:10FE3B00291E0000140000004034000000081422AA
:10FE4B004114141414140041221408020159090618
:10FE5B003E415D594E7C1211127C7F494949363E19
:10FE6B00414141227F4141413E7F494949417F09FF
:10FE7B000909013E414151737F0808087F00417F0A
:10FE8B0041002040413F017F081422417F40404008
:10FE9B00407F021C027F7F0408107F3E4141413EA0
:10FEAB007F090909063E4151215E7F091929462622
:10FEBB004949493203017F01033F4040403F1F2026
:10FECB0040201F3F4038403F6314081463030478FD
:10FEDB0004036159494D43007F414141020408101D
:10FEEB0020004141417F0402010204404040404058
:10FEFB00000307080020545478407F2844443838C6
:10FF0B0044444428384444287F3854545418000837
:10FF1B007E090218A4A49C787F0804047800447D11
:10FF2B0040002040403D007F1028440000417F40AE
:10FF3B00007C047804787C08040478384444443802
:10FF4B00FC1824241818242418FC7C0804040848E2
:10FF5B005454542404043F44243C4040207C1C2033
:10FF6B0040201C3C4030403C44281028444C90908E
:10FF7B00907C4464544C44000836410000007700E8
:10FF8B0000004136080002010204024543453333A9
:10FF9B0030314C20535052494E472032322D533181
:10FFAB00004E5350204E534C54204557502045572C
:10FFBB004C54204D52004E4F5254482F534F5554D2
:10FFCB004800454153542F57455354004E2F53204F
:10FFDB004C5400452F57204C54004D6F64653A002C
:10FFEB0046523A0046533A00504E53005045570084
:05FFFB0020002A0000B7
:020000040001F9
:01000000FF00
:020000040020DA
:08000000FFFFFFFFFFFFFFFF00
:020000040030CA
:0E000000FF08191EFF8281FF0FC00FE00F40A6
:00000001FF
