:040000000CEF00F011
:10000800FACF03F0FBCF04F0E9CF05F06DED06F071
:10001800ABEF06F01F0E306E000E316E99D1250E33
:100028003818D8B404D0385016EC0AF091D1000E24
:10003800376E000E366E000E356E05D035841D4ABB
:100048001E2A01D00BD01DC0F6FF1EC0F7FF080006
:10005800F550300AD8B4F2D701D0F5D71DC0F6FF55
:100068001EC0F7FF0800F55078EC09F0D8A03BD087
:10007800000E376E000E366E00D036C011F037C055
:1000880012F0000E146E0A0E136E64EC09F011C023
:1000980036F012C037F0D00E2B6EFF0E2C6E1DC03E
:1000A800F6FF1EC0F7FF0800F5502D6E2E6A2B5084
:1000B8002D262C502E222D5036262E5037221D4A02
:1000C8001E2A1DC0F6FF1EC0F7FF0800F55078EC89
:1000D80009F0D8A008D0D1D706D048D11BD0358E8A
:1000E80019D036D117D01DC0F6FF1EC0F7FF1D4A24
:1000F8001E2A0800F5CF38F03850000AD8B436D197
:10010800640AD8B407D00D0AD8B404D0110AD8B4F8
:10011800E6D71ED135BE15D030C0D9FF31C0DAFFC1
:10012800DECF33F0DDCF34F0020E3026000E312260
:1001380034AE4ED0030E3512336C341ED8B0342A88
:1001480047D030C0D9FF31C0DAFFDECF33F0DDCF82
:1001580034F0020E3026000E31223AD0010E386EED
:10016800050E3818D8B43DD001D03BD03850020D18
:10017800740EF324F66EFF0EF420F76E0900F550A6
:10018800335C0900F5503458D8A02BD001D029D0C1
:10019800382AE6D726D0010E386E040E3818D8B49F
:1001A80020D001D01ED03850020D7E0EF324F66EFA
:1001B800FF0EF420F76E0900F550335C0900F55086
:1001C8003458D8A00ED001D00CD0382AE6D709D0A0
:1001D8003550800B000AD8B4C1D7800AD8B4DBD711
:1001E80000D036503710D8B40AD035C02BF0030EE3
:1001F8002B16D8B404D03606D8A0370600D0800E07
:1002080038BE7F0E2B6E3650385C3750800A2B581C
:10021800D8B007D03850365E000E38BEFF0E375AB9
:1002280005D0000E376E000E366E00D035A41AD0F9
:1002380035C02BF0030E2B16D8B404D02D0E16ECB7
:100248000AF000D036503710D8B426D0300E16EC4D
:100258000AF03606D8A0370636503710D8B41CD066
:10026800F5D71AD036503710D8B40CD0200E16EC6B
:100278000AF03606D8A0370636503710D8B402D060
:10028800F5D700D035C02BF0030E2B16D8B404D008
:100298002D0E16EC0AF000D038C032F053D045D0FD
:1002A8003250020D740EF324F66EFF0EF420F76E32
:1002B8000900F5CF13F00A00F5CF14F033C011F0A0
:1002C80034C012F052EC07F011C018F012C019F047
:1002D800000E1B6E0A0E1A6EFAEC07F01850300F5B
:1002E800386E2CD033C011F034C012F03250020DE9
:1002F8007E0EF324F66EFF0EF420F76E0900F5CF9C
:1003080013F00A00F5CF14F052EC07F011500F0B60
:100318002F6E2F50010DE50EF324F66EFF0EF4201C
:10032800F76E0800F5CF38F009D03550800B000A79
:10033800D8B4B6D7800AD8B4D5D700D0385016EC80
:100348000AF000D032063228D8B402D0EED700D056
:100358001DC0F6FF1EC0F7FF1D4A1E2A0800F5CF74
:1003680038F03850D8B402D05AD600D01200366EC1
:10037800800E3660A6D09F0E2E6401D0A2D03450D5
:10038800D8A403D0010E346E00D01F0E2F6404D001
:100398007E0E2F6403D000D03F0E2F6E000E386EF5
:1003A800040E386401D08DD0530E2F6015D0E00EA6
:1003B8002F24116E126AFF0E1222000E146E050E03
:1003C800136E64EC09F038501126000E1222990EB3
:1003D8001124F66EFD0E14D0AD0E2F24116E126A84
:1003E800FF0E1222000E146E050E136E64EC09F057
:1003F80038501126000E1222980E1124F66EFE0EA9
:100408001220F76E0800F5CF35F000D0000E376ED9
:10041800060E376401D053D035A023D03404D8A4B5
:100428000CD02E503724186E30C019F031C01AF095
:100438003650382437EC09F03ED037503402F350A8
:100448002E24236E34C024F034C025F030C026F0AA
:1004580031C027F038503402F350362420EC08F02D
:100468002AD03050321804E131503318D8B423D090
:100478003404D8A40CD02E503724186E32C019F08A
:1004880033C01AF03650382437EC09F014D03750FE
:100498003402F3502E24236E34C024F034C025F0E7
:1004A80032C026F033C027F038503402F3503624D7
:1004B80020EC08F000D0372AD8903532A9D7382A4E
:1004C8006FD71200F2925050D8B491D0CE50CFCFFF
:1004D80001F0026A01C002F0016A0110476E025081
:1004E800486E000ECF6E000ECE6E81D0000ECF6E1D
:1004F800000ECE6E9E90900ECD6ECD80000E576E83
:10050800000E436E000E446E000E456E000E466EE1
:10051800010E1FD0F18C7CD0350E475C210E485857
:10052800D8A076D01C0E475C250E4858D8B070D09D
:10053800020E1FD0F19C6CD0A10E475C0F0E4858DC
:10054800D8A066D0880E475C130E4858D8B060D043
:10055800030E506EDFD75CD0910E475C010E4858F1
:10056800D8A056D0080E475C070E4858D8B050D0CF
:10057800040E506EDFD74CD0910E475C010E4858E0
:10058800D8A030D0080E475C070E4858D8B02AD0FB
:10059800D8904334436E4434446E4534456E4634F3
:1005A800466EE90E475C030E4858D8A00CD0010EE1
:1005B8004324436E000E4420446E000E4520456ED1
:1005C800000E4620466E5728576E1F0E576407D0F8
:1005D800000E4C6E010E4B6EF298000E506E030E1C
:1005E800506E98D740EC0AF095D794D711D0505058
:1005F800000AD8B47BD7010AD8B48ED7030AD8B476
:100608009BD7010AD8B4A8D7070AD8B4B5D700D061
:100618001200010E0EEC0AF0000E186E960E176E00
:10062800AAEC07F0110E0EEC0AF0010E186EF40E8B
:10063800176EAAEC07F0B10E0EEC0AF0010E06ECEC
:100648000AF02C0E06EC0AF02D0E06EC0AF0B20E9B
:100658000EEC0AF0010E06EC0AF02C0E06EC0AF07D
:100668002D0E06EC0AF0B30E0EEC0AF0010E06ECA5
:100678000AF02C0E06EC0AF02D0E06EC0AF0010E1C
:1006880006EC0AF02C0E06EC0AF02D0E06EC0AF029
:10069800B40E0EEC0AF0070E06EC0AF0C00E0EECD3
:1006A8000AF0A20E06EC0AF0020E06EC0AF0840E1E
:1006B80006EC0AF0C10E0EEC0AF0C50E06EC0AF0C4
:1006C800C20E0EEC0AF00A0E06EC0AF0000E06EC5A
:1006D8000AF0C30E0EEC0AF08A0E06EC0AF02A0E97
:1006E80006EC0AF0C40E0EEC0AF08A0E06EC0AF0CC
:1006F800EE0E06EC0AF0C50E0EEC0AF00E0E06EC35
:100708000AF0200E0EEC0AF0360E0EEC0AF0C80EB7
:1007180006EC0AF03A0E0EEC0AF0050E06EC0AF0AA
:1007280012000001F36FF3C0F9F039C0F8F03AC0D5
:1007380011F03BC012F08BEC08F011C0F4F012C0BD
:10074800F5F0000E0001F76F000EF66F64D06F50E1
:10075800D8B434D04050050D0001F951416E426AB9
:10076800F3504126F450422242BE28D0425004E1C0
:10077800810E415CD8A022D0000E0001F96F4050D4
:10078800070DF3500001F825030F0001F86FA00EC4
:100798000001F86504D0A00E0001F86F00D0000138
:1007A800F6513A24D96E0001F7513B20DA6E200E3B
:1007B800DE18D8B42CD002D02AD000D0F8C02EF041
:1007C8000001F6513A24D96E0001F7513B20DA6E48
:1007D800DF502F6E3CC030F03DC031F03EC032F0EB
:1007E8003FC033F040C034F00001F951BBEC01F0D8
:1007F8004050060DF3500001F9250001F96F800EF5
:100808000001F96504D0800E0001F96F00D00001E5
:10081800F64BF72B00D00001F4510001F65D000102
:10082800F5510001F759D8A092D71200E00E0EEC4E
:100838000AF0020E06EC0AF01C0E06EC0AF0070E8F
:1008480006EC0AF0120E06EC0AF0370E06EC0AF077
:10085800320E06EC0AF0290E06EC0AF02D0E06EC14
:100868000AF0290E06EC0AF0250E06EC0AF02B0E0B
:1008780006EC0AF0390E06EC0AF0000E06EC0AF057
:10088800010E06EC0AF0030E06EC0AF0100E06EC58
:100898000AF0E10E0EEC0AF0030E06EC0AF01D0E4B
:1008A80006EC0AF0070E06EC0AF0060E06EC0AF053
:1008B8002E0E06EC0AF02C0E06EC0AF0290E06ECB9
:1008C8000AF02D0E06EC0AF02E0E06EC0AF02E0E9B
:1008D80006EC0AF0370E06EC0AF03F0E06EC0AF0BA
:1008E800000E06EC0AF0000E06EC0AF0020E06EC0A
:1008F8000AF0100E06EC0AF0130E0EEC0AF0000EC9
:10090800186E0A0E176EAAEC07F0290E0EEC0AF004
:10091800000E186E640E176EAAEC07F01200236E14
:10092800800E236069D09F0E186401D065D0FF0E39
:100938001D6EFF0E1E6E195023C01FF0206A1F2661
:10094800000E20221D501F261E50202220BE0AD035
:10095800205004E1800E1F5CD8A004D0235000086A
:10096800800F196EFF0E1D6EFF0E1E6E1A5018C0F6
:100978001FF0206A1F26000E20221D501F261E5021
:10098800202220BE0BD0205004E1A00E1F5CD8A06E
:1009980005D018500008A00F1A6E00D018C014F027
:1009A800235019241D6E1D04156E18501A241E6E2E
:1009B8001E04166E2350D3EC07F01C50216E1BC08A
:1009C80022F0828082921AC018F01850D8B413D03E
:1009D80001D011D019C023F02350D8B40AD001D0C7
:1009E80008D02150D8EC09F02250D8EC09F02306A1
:1009F800F3D71806EAD78282120069EC08F000D013
:100A080020EC07F061506E18D8B4FAD761C06EF0C8
:100A1800E8EC08F014500001FB6F0001FB51116E67
:100A2800126A11BE1206000E146E090E136E64ECE3
:100A380009F011C017F012C018F0000E1A6E050E5A
:100A4800196E58EC05F01750200F0001FA6FB10E1F
:100A58001D6EFF0E1E6E5CC01FF0206A5EC021F086
:100A6800226A61C023F0246A5FC025F0266A59C053
:100A780027F0286A6DC029F02A6A0EEC00F0860E6D
:100A88001D6EFF0E1E6E0001FB511F6E206A1FBEF9
:100A980020060001FA51216E226A21BE22060EECC0
:100AA80000F0AED70CEF00F0000E1C6E1AAE07D0A7
:100AB800196C1A1ED8B01A2A010E1C6E00D018AE76
:100AC80007D0176C181ED8B0182A010E1C1A00D0AF
:100AD800000E1E6E000E1D6E19501A10D8B421D0CB
:100AE800010E1B6E05D0D89019361A361B2A00D075
:100AF8001ABE02D0F8D700D0D8901D361E3619502D
:100B0800175C1A501858D8A006D01950175E1A50FA
:100B1800185A1D8000D0D8901A3219321B2EECD7E3
:100B280000D01C50D8B405D01D6C1E1ED8B01E2A8B
:100B380000D01DC017F01EC018F000D01200E2EC63
:100B480009F04FEC09F0000E256E000E246EA8EC9B
:100B580009F0D40E4D6E000E4E6E4DC011F04EC011
:100B680012F0CF0E136EFF0E146E06EC09F0020E93
:100B7800396E4DC03AF04EC03BF0FF0E3D6E3C68FA
:100B8800000E3F6E000E3E6E010E406E020E95EC9A
:100B980003F04DC011F04EC012F0F60E136EFF0EAA
:100BA800146E06EC09F00A0E396E4DC03AF04EC0CC
:100BB8003BF0FF0E3D6E3C68000E3F6E000E3E6E31
:100BC800010E406E320E95EC03F01200226E800E7C
:100BD80022603FD09F0E186401D03BD0FF0E1C6EE0
:100BE800FF0E1D6E195018C01EF01F6A1E26000E3B
:100BF8001F221C501E261D501F221FBE0BD01F5027
:100C080004E1A00E1E5CD8A005D018500008A00F63
:100C1800196E00D01B50206E1AC021F018C014F0B5
:100C280022C015F0185019241C6E1C04166E225090
:100C3800D3EC07F08280829207D02050D8EC09F0DC
:100C48002150D8EC09F000D019061928D8A4F5D7F6
:100C58008282120043482D004348200043482B005D
:100C6800505256004E585400502F5000564C2D00EC
:100C7800564C2B00455120002030200031303000E8
:100C88003230300020312000203220002033200074
:100C98002034200020352000203620002037200076
:100CA800203820002039200000F800F800F81F0044
:100CB8001F00E0071FF81FF81FF8000000000000E1
:100CC800000000000000000000000000000000001C
:100CD80000000600EACF06F0E1CF07F0E2CF08F007
:100CE800D9CF09F0DACF0AF0F3CF0BF0F4CF0CF03C
:100CF800F6CF0DF0F7CF0EF0F8CF0FF0F5CF10F0DC
:100D08009EA003D023EC0AF000D0F2A203D066EC38
:100D180002F000D010C0F5FF0FC0F8FF0EC0F7FFBB
:100D28000DC0F6FF0CC0F4FF0BC0F3FF0AC0DAFFDA
:100D380009C0D9FF08C0E2FF07C0E1FF06C0EAFF0B
:100D480005C0E9FF04C0FBFF03C0FAFF110000EE75
:100D5800D4F01F0EEE6AE806FDE100EE43F02B0E1C
:100D6800EE6AE806FDE15C0EF66E0C0EF76E000EFC
:100D7800F86E01EE00F010EE7EF00900F5CFEEFF00
:100D8800E550E150FAE1000EF66E0F0EF76E000E18
:100D9800F86E00EE80F010EE54F00900F5CFEEFF8B
:100DA800E550E150FAE1880EF66E140EF76E000E6B
:100DB800F86E0900F5CF6EF00900F5CF6FF0000E60
:100DC800F86E000101EF05F0136E000EAC6E000E18
:100DD800AB6E13A002D0AC8800D013A203D0AC8CA9
:100DE800AB8C00D013A402D0AC8E00D013A602D0D6
:100DF800AB8802D0AB8A00D013B8AC849E9813AAF3
:100E080002D0AB8600D013AC02D09D8A01D09D9A47
:100E18009E9A13AE02D09D8801D09D9811C0AFFF55
:100E28001250B06EAC8AAB8E949C948EACB8ACBEAB
:100E380002D0948C00D01200680E156E000E146E4D
:100E4800F4EC09F015501524C9EC08F01450C9EC5D
:100E580008F0C3EC09F0D8801534C9EC08F0010E8D
:100E680045EC08F0616E010E45EC08F05E6E010E6F
:100E780045EC08F05C6E010E45EC08F05A6E010E68
:100E880045EC08F0596E010E45EC08F05F6E000E57
:100E980045EC08F06D6EEBEC09F01200000E176ED1
:100EA800000E166E13501410D8B421D0010E156E12
:100EB80005D0D89013361436152A00D014BE02D0A7
:100EC800F8D700D0D890163617361350115C145046
:100ED8001258D8A006D01350115E1450125A16801A
:100EE80000D0D89014321332152EECD700D016C08B
:100EF80011F017C012F012000000010000020000FB
:100F080005000007000007000007000007000100B7
:100F180000040000050000070000070000070000AB
:100F28000700100000400000500000700000700032
:100F380000700000700000A262E22202C2E0A890E5
:100F48006898B030187A10385A424A5217C011F0CF
:100F580018C012F0000E146EFA0E136E64EC09F04D
:100F680011C01BF012C01CF01BC019F01CC01AF0F5
:100F7800191E1A1E194A1A2AFF0E19241B6EFF0E73
:100F88001A201C6EB80EB16E1BC0B2FF1C50B36E97
:100F9800A192B18000D0A1A2FED7B1901200176E25
:100FA8002A0E0EEC0AF0000E06EC0AF01750582430
:100FB80006EC0AF0000E06EC0AF01550582406EC70
:100FC8000AF02B0E0EEC0AF0000E06EC0AF0145094
:100FD800602406EC0AF0000E06EC0AF016506024B5
:100FE80006EC0AF02C0E0EEC0AF012001A501B1038
:100FF800D8B41DD0010E1C6E05D0D8901A361B36F9
:101008001C2A00D01BBE02D0F8D700D01A50185C9A
:101018001B501958D8A005D01A50185E1B50195AE1
:1010280000D0D8901B321A321C2EF0D700D018C02E
:1010380018F019C019F012002B6E2BC02CF02D6A75
:101048000ED023C018F025C019F026C01AF027C00A
:101058001BF02C50EAEC05F02C4A2D2A00D0245025
:101068002BC028F0296A2826000E292228502C5C3B
:101078002D50800A2A6E2950800A2A58D8A0E1D714
:101088001200116E3CEC0AF0000E126E070E12648C
:1010980001D00FD01DEC0AF083AE03D0D8801336F0
:1010A80004D013501324136E00D038EC0AF0122A1F
:1010B800EDD71150D8B403D0FDEC09F003D02EECD5
:1010C8000AF000D0135000D01200CEEC09F0A3ECC7
:1010D80005F01FEC09F0700ED36E0F0EC16E010EF5
:1010E800926E000E936E000E946E000E956E000EBA
:1010F800966EF19EA00E116E860E126E010E136E84
:10110800000E146E29EC0AF099EC09F0120011C0D7
:1011180015F012C016F003D0154A162A00D015C0D3
:10112800D9FF16C0DAFFDF50D8A4F6D711C013F0E4
:1011380012C014F0131E141E134A142A1550132437
:10114800116E16501420126E00D012002A0E0EECEA
:101158000AF0000E06EC0AF0000E06EC0AF0000E8B
:1011680006EC0AF07F0E06EC0AF02B0E0EEC0AF0E5
:10117800000E06EC0AF0000E06EC0AF0000E06EC73
:101188000AF09F0E06EC0AF01200116E000E126EA5
:10119800070E126401D011D011AE03D03CEC0AF056
:1011A80003D033EC0AF000D01DEC0AF038EC0AF05A
:1011B80011501124116E122AEBD73CEC0AF01DECE9
:1011C8000AF038EC0AF01200480E186EAA0E166ED5
:1011D800F4EC09F018501824C9EC08F01650C9ECC2
:1011E80008F0C3EC09F0D8801834C9EC08F0000EF8
:1011F80045EC08F0176EEBEC09F017C014F0156A0F
:1012080000D0120011C015F012C016F005D0154A12
:10121800162A134A142A00D013C0F6FF14C0F7FF89
:1012280015C0D9FF16C0DAFF0800F5CFDFFFDF5081
:10123800D8A4EDD71200F292F19CF288000ECF6E7E
:10124800000ECE6E9E909D80F28CF28E000E4C6E3B
:10125800000E4B6E000E436E000E446E000E456E7F
:10126800000E466E12001B6E800E1B6013D09F0E80
:10127800186401D00FD018C014F01B28156E182858
:10128800166E1B50D3EC07F01A5006EC0AF01950F2
:1012980006EC0AF0120082828290800EC76E300E31
:1012A800C66E0DEC03F0AAEC08F01AEC04F0360E4A
:1012B8000EEC0AF0C00E06EC0AF0010E526E120097
:1012C80011501302F3CF15F0F4CF16F01150140299
:1012D800F350162612501302F350162615C011F0BB
:1012E80016C012F000D01200136E000E126E3A0EE5
:1012F800136006D02F0E136403D0010E126E00D0B7
:1013080012C011F0113000D01200156EF4EC09F083
:1013180015501524C9EC08F01350C9EC08F0145006
:10132800C9EC08F0EBEC09F01200480E166EAC0E92
:10133800136E020E146E165089EC09F0EE0E136E41
:101348001650B6EC09F01200000E186E800E196ED9
:10135800A00E1A6E24C01BF025C01CF0000E93ECE2
:1013680004F01200146EF4EC09F014501424C9ECC3
:1013780008F01350C9EC08F0EBEC09F0120038EC57
:101388000AF03CEC0AF01DEC0AF033EC0AF038ECF9
:101398000AF01200000E126E190E116E3C0EE8ECE7
:1013A80006F0700ED36E1200126E9E96C9CF11F021
:1013B80012C0C9FF00D0C7A0FED712008294000E49
:1013C800186E640E176EAAEC07F08284120038ECCF
:1013D8000AF033EC0AF01DEC0AF03CEC0AF01200BB
:1013E8003CEC0AF01DEC0AF033EC0AF038EC0AF099
:1013F800120033EC0AF01DEC0AF038EC0AF03CEC71
:101408000AF01200136E829282801350D8EC09F011
:1014180082821200136E829282901350D8EC09F0E7
:1014280082821200116E00D0ACA2FED711C0ADFFAF
:1014380012009388060EE82EFED700D01200000E88
:10144800506EF19CCD909E9012001DEC0AF03CEC81
:101458000AF012001DEC0AF038EC0AF01200839E24
:10146800959E00D000D012008198939800D0120069
:10147800958E00D000D01200000E506ECD90120054
:02148800FF0162
:10FD980000000000000000005F00000007000700EE
:10FDA800147F147F14242A7F2A12231308646236CE
:10FDB800495620500008070300001C22410000415A
:10FDC800221C002A1C7F1C2A08083E080800807094
:10FDD80030000808080808000060600020100804C7
:10FDE800023E5149453E00427F400072494949461A
:10FDF8002141494D331814127F1027454545393C98
:10FE08004A49493141211109073649494936464984
:10FE180049291E00001400000040340000000814A6
:10FE2800224114141414140041221408020159091F
:10FE3800063E415D594E7C1211127C7F4949493674
:10FE48003E414141227F4141413E7F494949417FED
:10FE5800090909013E414151737F0808087F0041A3
:10FE68007F41002040413F017F081422417F4040EC
:10FE780040407F021C027F7F0408107F3E414141C1
:10FE88003E7F090909063E4151215E7F091929462D
:10FE9800264949493203017F01033F4040403F1F43
:10FEA8002040201F3F4038403F6314081463030478
:10FEB8007804036159494D43007F414141020408D8
:10FEC8001020004141417F040201020440404040AB
:10FED80040000307080020545478407F28444438E1
:10FEE8003844444428384444287F3854545418002B
:10FEF800087E090218A4A49C787F080404780044AA
:10FF08007D40002040403D007F1028440000417F94
:10FF180040007C047804787C08040478384444441D
:10FF280038FC1824241818242418FC7C0804040815
:10FF3800485454542404043F44243C4040207C1C2E
:10FF48002040201C3C4030403C44281028444C9021
:10FF580090907C4464544C4400083641000000777B
:10FF680000000041360800020102040201000A00F4
:10FF78006400E8031027010010000001001020545D
:10FF8800656D7065726174757265203D2025642009
:10FF98006465677265657343203D20256420646548
:10FFA8006772656573460D0A00253032783A253048
:10FFB80032783A2530327820253032782F25303281
:10FFC800782F2530327800454345333330314C2083
:10FFD800537072696E672032322D533100303132DE
:10FFE80033343536373839616263646566004C41AD
:08FFF80042203131200000001D
:020000040020DA
:08000000FFFFFFFFFFFFFFFF00
:020000040030CA
:0E000000FF08191EFF8281FF0FC00FE00F40A6
:00000001FF
