:040000008FEF0DF081
:101000000001000A006400E803102754656D706554
:10101000726174757265203D202564206D56200D27
:101020000A0A004C6967687420566F6C74203D2072
:1010300025642046200D0A0A00001EC022F0236A03
:10104000246A1D34223601E323802250276E21C0FA
:1010500022F0236A246A2034223601E323802250BE
:10106000266E2750D8B40BD02650275CD8B00ED0AF
:10107000275000082624226E180E226407D01FC0B5
:101080001CF020C01DF021C01EF0B8D02650D8B4EE
:101090000BD02750265CD8B00ED02650000827244D
:1010A000226E180E226407D01CC01CF01DC01DF05B
:1010B0001EC01EF0A3D0060E256E1EAE02D0258ED9
:1010C00000D021BE258C1D8EFF0E1C16FF0E1D1696
:1010D000000E1E16208EFF0E1F16FF0E2016000E8D
:1010E00021162650275CD8B01ED0D8901F36203647
:1010F0002136260627502618D8B40FD0250625C03D
:1011000022F0070E2216D8B408D0EFD706D0D89018
:101110001E321D321C32272A00D026502718D8B480
:1011200024D0F5D722D02750265CD8B01ED0D89036
:101130001C361D361E36270627502618D8B40FD069
:10114000250625C022F0070E2216D8B408D0EFD706
:1011500006D0D890213220321F32262A00D02650C5
:101160002718D8B402D0F5D700D025AE0CD0FF0E8A
:101170001C1AFF0E1D1AFF0E1E1A010E1C26000E51
:101180001D22000E1E2225AC0DD0FF0E1F1AFF0ED1
:10119000201AFF0E211A010E1F26000E2022000E1B
:1011A000212200D0000E256E1C501F261D5020222B
:1011B0001E50212221AE0FD0FF0E1F1AFF0E201A43
:1011C000FF0E211A010E1F26000E2022000E2122E2
:1011D000010E256E00D01FC001F020C002F021C01A
:1011E00003F027C004F025C005F0D9EC0BF001C0D6
:1011F0001CF002C01DF003C01EF000D01200FBEC7A
:101200000DF017EC0EF00F0E926E000E936E000EA6
:10121000946E000E956E000E966E00D0000E0CECD3
:101220000EF0B8EC0DF001C046F002C047F046C029
:1012300009F047C00AF054EC0DF009C00DF00AC0E7
:101240000EF00BC00FF0000E106E800E116E400EEF
:10125000126E79EC0AF00DC039F00EC03AF00FC0F2
:101260003BF0600E1F6E810E206E440E216E39C061
:1012700001F03AC002F03BC003F0CBEC0DF001C02E
:101280001CF002C01DF003C01EF01DEC08F01CC0D5
:1012900028F01DC029F01EC02AF0000E2B6EB00EE3
:1012A0002C6E400E2D6E68EC0BF028C03CF029C06F
:1012B0003DF02AC03EF0660E106EE60E116E3F0E37
:1012C000126E3CC00DF03DC00EF03EC00FF079EC48
:1012D0000AF00DC01CF00EC01DF00FC01EF0000E75
:1012E0001F6E000E206E420E216E1DEC08F01CC019
:1012F0003FF01DC040F01EC041F03FC001F040C0B3
:1013000002F041C003F0F5EC0AF001C048F002C061
:1013100049F048C001F049C002F0000E046E0A0E08
:10132000036E3CEC0CF00150446E48C001F049C023
:1013300002F0000E046E0A0E036E87EC0CF00150F2
:10134000456E445072EC0DF04550EFEC0DF00B0E75
:101350000D6E100E0E6E48C00FF049C010F0DAECA2
:1013600009F04850A4EC0DF0010E0CEC0EF0B8ECB6
:101370000DF001C046F002C047F046C037F047C04C
:1013800038F0D89037363836D8903736383637C0B8
:1013900042F038C043F0230E0D6E100E0E6E42C0A8
:1013A0000FF043C010F0DAEC09F0DDEC0DF036D7A9
:1013B00000EF00F00F0E126E000E136E8BD0250E94
:1013C0001818D8B404D0185005EC0EF083D0000ED5
:1013D000146E04D08DD015D07DD013D00DC0F6FF83
:1013E0000EC0F7FF0D4A0E2A0800F5CF18F018506E
:1013F000000AD8B47DD0640AD8B403D00D0AD8A4AA
:1014000069D012C0D9FF13C0DAFFDECF16F0DDCFEE
:1014100017F0020E1226000E132217AE07D0030E8D
:101420001412166C171ED8B0172A00D0010E186EB1
:10143000050E1818D8B416D001D014D01850020DCB
:10144000010EF324F66E100EF420F76E0900F5502D
:10145000165C0900F5501758D8A004D001D002D06E
:10146000182AE6D714C011F0030E1116D8B404D010
:101470002D0E05EC0EF000D018C015F025D015503B
:10148000020D010EF324F66E100EF420F76E090023
:10149000F5CF03F00A00F5CF04F016C001F017C035
:1014A00002F000EC0DF001C008F002C009F0000EDF
:1014B0000B6E0A0E0A6E2EEC0DF00850300F186EEF
:1014C000185005EC0EF000D015061528D8B402D03F
:1014D000D6D700D00DC0F6FF0EC0F7FF0D4A0E2A7A
:1014E0000800F5CF18F01850D8B402D068D700D053
:1014F00012000FC013F0146A156A0E34133601E39C
:1015000014801350166E1650D8A402D00ED06CD092
:1015100012C013F0146A156A1134133601E31480F3
:1015200013501B6E1B50D8A407D0000E0D6E000E7A
:101530000E6E000E0F6E58D01B507B0F16260FC07C
:101540001BF012501B1A800E1B160E8E118EFF0EF2
:101550001016FF0E1116000E1216000E176E000E5A
:10156000186E000E196E070E1A6E00D00DA007D06F
:1015700010501726115018221250192200D0D8905E
:101580000F320E320D32D8901036113612361A2E16
:10159000EDD700D0090E1A6E00D00DA007D0105064
:1015A0001726115018221250192200D0D8900F324D
:1015B0000E320D32D8901932183217321A2EEDD75A
:1015C00000D017C001F018C002F019C003F016C017
:1015D00004F01BC005F0D9EC0BF001C00DF002C007
:1015E0000EF003C00FF000D0120003C005F0066A31
:1015F000076A0234053601E3068005500F6E0F506E
:10160000D8A402D039D063D0170E056E01C006F001
:1016100002C007F003C008F00528096E04D0D89076
:10162000083207320632092EFAD706500A6E028EA9
:10163000FF0E0116FF0E0216000E031601500B6E70
:1016400002500C6E03500D6E0E6A8E0E0F5E0FAEC2
:1016500010D00F50800A8F0FD8B003D00DD037D0E4
:1016600000D0D8900E320D320C320B320F3EF9D72B
:1016700019D0170E0F6411D0000E016E000E026E0D
:10168000000E036E000E046E22D007D0D8900B36E9
:101690000C360D360E360F0600D00F50D8B402D0DF
:1016A000F5D700D00A50D8B409D00E1E0D1E0C1E5E
:1016B0000B6C000E0C220D220E2200D00BC001F08C
:1016C0000CC002F00DC003F00EC004F000D01200F8
:1016D0002AC02EF02F6A306A29342E3601E32F807B
:1016E0002E50356E3550D8A402D00ED061D02DC00A
:1016F0002EF02F6A306A2C342E3601E32F802E50C4
:10170000366E3650D8A407D0000E286E000E296E13
:10171000000E2A6E4DD0000E326E000E336E000E9B
:10172000346E3650890F355E2AC036F02D50361A89
:10173000800E3616298EFF0E2816FF0E2916000E73
:101740002A162C8EFF0E2B16FF0E2C16000E2D16B1
:10175000180E316E00D0D8903236333634362B50D6
:10176000285C2C5029582D502A58D8A007D02B502F
:10177000285E2C50295A2D502A5A3280D89028366B
:1017800029362A36312EE7D700D032C001F033C0D7
:1017900002F034C003F035C004F036C005F0D9ECD7
:1017A0000BF001C028F002C029F003C02AF000D0DD
:1017B00012000450D8B405D0015002100310D8A470
:1017C0000ED0000E016E000E026E000E036E53D09E
:1017D00006D0042AD89003320232013200D0000E23
:1017E0000114066E000E0214076EFE0E0314086E3E
:1017F000065007100810D8B40ED0EBD70CD0042A2E
:10180000010E0126000E0222000E0322D8900332A0
:101810000232013200D0000E0114066E000E0214D6
:10182000076EFF0E0314086E065007100810D8B498
:1018300008D0E5D706D00406D89001360236033624
:1018400000D002BE04D0020E0460F5D700D004B070
:1018500002D0029E00D0D8900432045003120550EA
:10186000D8B402D0038E00D001C001F002C002F053
:1018700003C003F000D01200000E066E04AE07D0C5
:10188000036C041ED8B0042A010E066E00D002AE0E
:1018900007D0016C021ED8B0022A010E061A00D031
:1018A000000E086E000E076E03500410D8B421D04D
:1018B000010E056E05D0D89003360436052A00D0F7
:1018C00004BE02D0F8D700D0D890073608360350AF
:1018D000015C04500258D8A006D00350015E0450A9
:1018E000025A078000D0D89004320332052EECD77C
:1018F00000D00650D8B405D0076C081ED8B0082A0E
:1019000000D007C001F008C002F000D01200000EA5
:10191000066E02AE07D0016C021ED8B0022A010E7C
:10192000066E00D004AE05D0036C041ED8B0042AA5
:1019300000D003500410D8B41DD0010E056E05D0A0
:10194000D89003360436052A00D004BE02D0F8D75A
:1019500000D00350015C04500258D8A005D00350B9
:10196000015E0450025A00D0D89004320332052E92
:10197000F0D700D00650D8B405D0016C021ED8B004
:10198000022A00D001C001F002C002F000D0120013
:10199000036E000EAC6E000EAB6E03A002D0AC88DE
:1019A00000D003A203D0AC8CAB8C00D003A402D037
:1019B000AC8E00D003A602D0AB8802D0AB8A00D098
:1019C00003B8AC849E9803AA02D0AB8600D003ACC7
:1019D00002D09D8A01D09D9A9E9A03AE02D09D8826
:1019E00001D09D9801C0AFFF0250B06EAC8AAB8EA3
:1019F000949C948EACB8ACBE02D0948C00D01200F3
:101A0000000E066E000E056E03500410D8B421D0EF
:101A1000010E076E05D0D89003360436072A00D091
:101A200004BE02D0F8D700D0D89005360636035051
:101A3000015C04500258D8A006D00350015E045047
:101A4000025A058000D0D89004320332072EECD71A
:101A500000D005C001F006C002F012000A500B10C1
:101A6000D8B41DD0010E0C6E05D0D8900A360B36B6
:101A70000C2A00D00BBE02D0F8D700D00A50085C68
:101A80000B500958D8A005D00A50085E0B50095ACF
:101A900000D0D8900B320A320C2EF0D700D008C0FC
:101AA00008F009C009F01200000E0C6E0AAE07D053
:101AB000096C0A1ED8B00A2A010E0C6E00D009C0AB
:101AC00001F00AC002F0036A8E0E046E0CC005F02D
:101AD000D9EC0BF001C009F002C00AF003C00BF012
:101AE00000D01200026E0250010D4A0EF324D96E8E
:101AF000000EF420DA6EDF503F0B826E0250010DB3
:101B00004A0EF324D96E000EF420DA6E400EDF6028
:101B100002D0000E01D0010E846E00D01200240EFF
:101B2000F66E1C0EF76E000EF86E00EE4AF010EE28
:101B30000AF00900F5CFEEFFE550E150FAE1000EA2
:101B4000F86E0001FFEF08F0016E2E0E016002D06A
:101B5000000E816E010E816E020E816E040E816E8A
:101B600000D04B0E016403D0070E816E00D012002E
:101B7000C28200D0C2B2FED7C450046E036AC35002
:101B80000324056E000E0420066E05C001F006C099
:101B900002F000D01200015002100310D8B406D099
:101BA000000E011A000E021A800E031A01C001F085
:101BB00002C002F003C003F01200000E026E000E1D
:101BC000016E02BE08D0680E015C420E0258D8B009
:101BD00005D001D003D0014A022AF3D71200016ECA
:101BE0000150010D4A0EF324D96E000EF420DA6E76
:101BF000DF50836E1200000E026E190E016E3C0E55
:101C0000C8EC0CF0600ED36E1200016E00D0ACA2D6
:101C1000FED701C0ADFF1200016E0150040DF32884
:101C2000C26E1200407924301912027800181B0E7F
:081C3000C16EA90EC06E120086
:020000040020DA
:08000000FFFFFFFFFFFFFFFF00
:020000040030CA
:0E000000FF08191EFF8381FF0FC00FE00F40A5
:00000001FF
