:04000000BFEF7FF0DF
:10FF7E000001D4EF7FF0000E026E000E016E02BE85
:10FF8E0008D0680E015C420E0258D8B005D001D0E0
:10FF9E0003D0014A022AF3D712009268000E936E24
:10FFAE00000E946E000E956E0F0EC16E000E056E55
:10FFBE00000E046E05BE0AD0055019E1070E045C52
:10FFCE00D8B000EF00F002D000EF00F080CF06F0C6
:10FFDE000650070B066E06C082FF8250FF0A036EA4
:10FFEE0003C083FFC2EC7FF0044A052AE3D700EF7B
:02FFFE0000F011
:020000040020DA
:08000000FFFFFFFFFFFFFFFF00
:020000040030CA
:0E000000FF08191EFF8381FF0FC00FE00F40A5
:00000001FF
