:04000000C6EF7FF0D8
:10FF8C000001DBEF7FF0000E026E000E016E02BE70
:10FF9C0008D0680E015C420E0258D8B005D001D0D2
:10FFAC0003D0014A022AF3D712009268000E936E16
:10FFBC00000E946E0F0EC16E000E046E000E036EDA
:10FFCC0004BE0AD0045014E1070E035CD8B000EF55
:10FFDC0000F002D000EF00F080CF05F00550070BC9
:10FFEC00056E05C082FFC9EC7FF0034A042AE8D7EE
:04FFFC0000EF00F022
:020000040020DA
:08000000FFFFFFFFFFFFFFFF00
:020000040030CA
:0E000000FF08191EFF8381FF0FC00FE00F40A5
:00000001FF
