:04000000C4EF7FF0DA
:10FF5C0081C7436402E6A520000E026E000E016EFE
:10FF6C0002BE08D0680E015C420E0258D8B005D013
:10FF7C0001D003D0014A022AF3D712005C0EF66EB0
:10FF8C00FF0EF76E000EF86E00EE0CF010EE08F09F
:10FF9C000900F5CFEEFFE550E150FAE10001D7EF93
:10FFAC007FF0000E946E000E956E0F0EC16E20EE5B
:10FFBC000CF010EE03F0070EDBCFE3FFE806FCE2DB
:10FFCC0000D0000E0B6E070E0B6401D0FAD70BC0DD
:10FFDC0082FF0B50010D030EF324D96E000EF4209A
:10FFEC00DA6EDF50836EB2EC7FF00B2AECD7E9D7D8
:04FFFC0000EF00F022
:020000040020DA
:08000000FFFFFFFFFFFFFFFF00
:020000040030CA
:0E000000FF08191EFF8281FF0FC00FE00F40A6
:00000001FF
