:0400000099EF7FF005
:10FF32000001B3EF7FF0010EC26E0E0EC16EA90E6C
:10FF4200C06E1200C28200D0C2B2FED7C450026E8E
:10FF5200016AC3500124036E000E0220046E035096
:10FF620000D012009CEC7FF0000E936E00D0A3EC48
:10FF72007FF0066E0650076E086A0750C4EC7FF0E9
:10FF8200F6D700EF00F0016E0A0E8A6E000E056EC3
:10FF9200050E046E04500510D8B413D001D011D050
:10FFA20001C002F0036A02500310D8B406D001D097
:10FFB20004D00206D8A00306F6D70406D8A0050688
:10FFC200E9D7050E8A6E000E056E050E046E04500A
:10FFD2000510D8B413D001D011D001C002F0036AC9
:10FFE20002500310D8B406D001D004D00206D8A023
:0EFFF2000306F6D70406D8A00506E9D71200CC
:020000040020DA
:08000000FFFFFFFFFFFFFFFF00
:020000040030CA
:0E000000FF08191EFF8381FF0FC00FE00F40A5
:00000001FF
