:04000000C9EF7FF0D5
:10FF92000001DEEF7FF0000E026E000E016E02BE67
:10FFA20008D0680E015C420E0258D8B005D001D0CC
:10FFB20003D0014A022AF3D71200000E946E000EFB
:10FFC200956E0F0EC16E000E046E000E036E04BE1F
:10FFD2000AD0045012E1080E035CD8B000EF00F022
:10FFE20002D000EF00F003C082FF0350070A836EC5
:0EFFF200CCEC7FF0034A042AEAD700EF00F0BF
:020000040020DA
:08000000FFFFFFFFFFFFFFFF00
:020000040030CA
:0E000000FF08191EFF8381FF0FC00FE00F40A5
:00000001FF
